:100000000C942A000C9466000C9470000C947A00F6
:100010000C9484000C948E000C9447000C944700C0
:100020000C9447000C9447000C9447000C94470034
:100030000C9447000C9447000C9447000C94470024
:100040000C9447000C9447000C9447000C94470014
:100050000C94470011241FBECFE5D8E0DEBFCDBF12
:1000600011E0A0E6B0E0E6EEFCE002C005900D92E3
:10007000AA32B107D9F711E0AAE2B1E001C01D929E
:10008000AE33B107E1F70E9477010C9471060C942E
:1000900000008FEF8ABB1BBA88EB87BB87E088BB69
:1000A0008CEC84BB15BA80EF81BB8CE082BB0895D9
:1000B00082E080BF81E885BD13BC089581E885BDDD
:1000C00081E083BD089515BC13BC08951F920F9263
:1000D0000FB60F9211240F900FBE0F901F9018951E
:1000E0001F920F920FB60F9211240F900FBE0F9018
:1000F0001F9018951F920F920FB60F9211240F9018
:100100000FBE0F901F9018951F920F920FB60F926F
:1001100011240F900FBE0F901F9018951F920F92F1
:100120000FB60F9211240F900FBE0F901F901895CD
:100130000E9449000E944A030E94EB0308958091A7
:100140002A010E944D0580932A01833120F083E12A
:1001500080932A0104C0882311F410922A01E091AF
:100160002A01F0E0E352FF4F6081862F0E94D40302
:1001700084ED0E94230380E690E00E945B03E091FF
:100180002A01F0E0E352FF4F808190E00E94B80323
:1001900088E690E00E945B0308950E94420380E09D
:1001A0000E94230384E790E00E945B0388E00E94A2
:1001B0002303949A089594980E94420380E00E9439
:1001C000230389E890E00E945B0380EC0E942303F4
:1001D0008EE990E00E945B038CE00E94230380E0A4
:1001E0000895CF93DF93C0E9D1E0B1991AC0E091AF
:1001F0003601F0913701808180FD13C00E94DB0041
:10020000882399F7E0913601F09137018081816070
:10021000808380E197E2FE013197F1F70197D9F7EA
:10022000E4CFB19918C0E0913601F0913701808197
:1002300080FF11C00E94CD00E0913601F09137019E
:1002400080818E7F808388E893E1FE013197F1F70A
:100250000197D9F7CACFB29916C0E0913601F09153
:100260003701808180FF0FC083EB90E00E945B0329
:100270008CE00E94230388E893E1FE013197F1F7B7
:100280000197D9F7B2CF839916C0E0913601F0916A
:100290003701808180FF0FC088EC90E00E945B03F3
:1002A0008CE00E94230388E893E1FE013197F1F787
:1002B0000197D9F79ACFB29907C0E0913601F09132
:1002C0003701808180FF91CF839907C0E09136018B
:1002D000F0913701808180FF88CFE0913601F09165
:1002E0003701808180FF81CF0E949F007ECF0E94D6
:1002F00098007894949A0E94F100FDCF0E948C029D
:1003000080EA0E94950280E00E94950280E00E94AF
:1003100095020E948C0281EA0E94950280E00E9470
:100320009C0280E00E949C0280E00E949C0280E08F
:100330000E949C0280E00E949C0281E00E949C023C
:100340000E94920208950E948C0280EA0E94950207
:1003500080E00E94950280E00E94950280E30E9466
:10036000950281E30E94950282E30E94950283E355
:100370000E94950284E30E9495020E9492020895D1
:10038000CF93DF930E948C0280EA0E94950280E066
:100390000E94950280E00E949502C0E0D0E080E0DB
:1003A0000E94950221968FE1CF3FD807C1F70E94A6
:1003B0009202DF91CF910895B89AC09880E897E0B3
:1003C0000197F1F7B89880E491E00197F1F7B09BBD
:1003D00002C080E0089588E097E00197F1F781E09E
:1003E0000895B89AC09885E08A95F1F7B89880E4A6
:1003F0008A95F1F786B381700895B89AC0988111F3
:10040000C09A88EB91E00197F1F7B898C0980895E9
:10041000CF92DF92EF92FF921F93CF93DF9310E082
:10042000C0E0D0E091E0C92ED12C80EEE82E81E032
:10043000F82E0E94F101882341F0C6010C2E02C063
:10044000880F991F0A94E2F7182BC7010197F1F75B
:100450002196C830D10569F7812FDF91CF911F9187
:10046000FF90EF90DF90CF9008950F931F93CF935D
:10047000DF93C0E0D0E0082F10E0C8010C2E02C0CE
:10048000959587950A94E2F780FF02C081E001C04C
:1004900080E00E94FD012196C830D10571F780EE01
:1004A00091E00197F1F7DF91CF911F910F9108959E
:1004B0000E94F1018823E1F30895CF93DF930E9416
:1004C000DC018823E9F08CEC0E94350284E40E9470
:1004D00035020E9458020E94DC01882389F08CECCE
:1004E0000E9435028EEB0E943502CBE2D1E00E94E1
:1004F0000802899381E0C433D807C9F781E001C0BD
:1005000080E0DF91CF91089582E180B981E081B9E7
:1005100084E086BF13B8089584EA86BF06B607FE56
:10052000FDCF089584E986BF089583B984E886BF26
:1005300006B607FEFDCF0895882311F484EC01C0B0
:1005400084E886BF06B607FEFDCF83B1089590E02C
:10055000D99887FF02C0D89A01C0D898D99A9F5FCE
:10056000983011F0880FF4CFDD98DC98DB9ADA9898
:1005700088EA92E0FC013197F1F7DA9A0197F1F7F6
:10058000DB9880E991E00197F1F70895CF93DF932D
:1005900040E050E0A8EAB2E0C0E9D1E022C0FC01AE
:1005A000E40FF51FE08120E0D998E7FF02C0D89A58
:1005B00001C0D898D99A2F5F283011F0EE0FF4CFF0
:1005C000DD9ADC98DB9ADA98FD013197F1F7DA9A37
:1005D000FD013197F1F7DB98FE013197F1F74F5F9D
:1005E0005F4F46175707DCF2DF91CF91089590E0F7
:1005F000D99887FF02C0D89A01C0D898D99A9F5F2E
:10060000983011F0880FF4CFDD9ADC98DB9ADA98F5
:1006100088EA92E0FC013197F1F7DA9A0197F1F755
:10062000DB9880E991E00197F1F70895DB98DC9879
:10063000DD9A85ED982F9A95F1F7DB9ADC98DD9A93
:100640008A95F1F7089590E0D99887FF02C0D89A6B
:1006500001C0D898D99A9F5F983011F0880FF4CFD5
:10066000DD98DC98DB9ADA9888EA92E0FC01319711
:10067000F1F7DA9A0197F1F7DB9880E991E00197B9
:10068000F1F7089581E00E94230380EC92E1019745
:10069000F1F7089588E30E94230386E00E94230374
:1006A00082E00E94230381E00E94230380EC92E118
:1006B0000197F1F70895FC0128EA32E040E951E0A2
:1006C0001DC090E0D99887FF02C0D89A01C0D89881
:1006D000D99A9F5F983011F0880FF4CF3196DD9A48
:1006E000DC98DB9ADA98C9010197F1F7DA9AC90127
:1006F0000197F1F7DB98CA010197F1F78081882310
:1007000001F70895CF93DF9310923B0110923A01C5
:1007100025C00896880F880F880F0E94A702C0E0A6
:10072000D0E0E0913A01F0913B0183E0EE0FFF1F32
:100730008A95E1F7EC0FFD1FEF50FF4F80810E947B
:10074000F7022196C830D10561F780913A01909166
:100750003B01019690933B0180933A0180913A01CD
:1007600090913B0187309105A4F2DF91CF910895DC
:10077000DF93CF93CDB7DEB72A970FB6F894DEBFDD
:100780000FBECDBFBE016F5F7F4F4AE050E00E94B9
:100790009B050E945B032A960FB6F894DEBF0FBE3E
:1007A000CDBFCF91DF9108950F931F93182F062F80
:1007B000C3980E94DB04C39ADE98812F602F0E94A9
:1007C000DB04DE9ADF98812F602F0E94DB04DF9A22
:1007D0001F910F9108950E94CA04C39880E060E0C1
:1007E0000E94DB04C39ADE9880E060E00E94DB0494
:1007F000DE9ADF9880E060E00E94DB04DF9A0895D3
:100800000E94CA04C39880E060E00E94DB04C39A9F
:10081000DE9880E060E00E94DB04DE9ADF9880E0F2
:1008200060E00E94DB04DF9A089587E689B910BC76
:1008300086E880BD88E98AB91CB8089510BC86E8AE
:1008400080BD88E98AB91CB80895AC0120E030E089
:1008500009C05D9BFECFFA01E20FF31F80818CB9C6
:100860002F5F3F4F26173707A4F308955D9BFECFF8
:100870008CB90895982F5D9BFECF892F82958F703C
:10088000805D8CB95D9BFECF9F70905D9CB9089593
:100890005D9BFECF8CB90895FC0104C05D9BFECF2B
:1008A00031968CB980818823C9F708955F9BFECF6C
:1008B0008CB10895DF93CF93CDB7DEB72A970FB6EB
:1008C000F894DEBF0FBECDBFAE014F5F5F4F2AE091
:1008D00030E00E94BC050E944C042A960FB6F894A2
:1008E000DEBF0FBECDBFCF91DF910895DF93CF93D1
:1008F000CDB7DEB72A970FB6F894DEBF0FBECDBFD7
:10090000AE014F5F5F4F2AE030E00E94F0050E9489
:100910004C042A960FB6F894DEBF0FBECDBFCF9120
:10092000DF910895DF93CF93CDB7DEB72A970FB647
:10093000F894DEBF0FBECDBFBE016F5F7F4F4AE0B0
:1009400050E00E949B050E944C042A960FB6F89432
:10095000DEBF0FBECDBFCF91DF910895DF93CF9360
:10096000CDB7DEB72A970FB6F894DEBF0FBECDBF66
:10097000BE016F5F7F4F4AE050E00E9415060E9463
:100980004C042A960FB6F894DEBF0FBECDBFCF91B0
:10099000DF9108951EB883E58DB91FB81DB808957D
:1009A00083E58DB908951DB8089593E59DB98FB974
:1009B000779BFECF089593E59DB98FB9779BFECFC6
:1009C0006FB9779BFECF0895FC0193E506C0319681
:1009D0009DB980818FB9779BFECF80818823B9F73D
:1009E00008951FB8779BFECF80E00895482F6AE0F6
:1009F0000E948F05282F30E084E0220F331F8A9554
:100A0000E1F7842F0E948F05892F820F0895282FE8
:100A100022952F709AE0299F900111248F70820FE8
:100A20000895A09A94E480E090FF02C0A89A01C0C3
:100A3000A8988F5F883011F09695F6CF0895A09A08
:100A400090E084E487FF02C0A89A01C0A8989F5F45
:100A5000983011F0880FF6CF0895A09880E093B3F6
:100A60008F5F8830E1F70895A09880E093B38F5F9F
:100A70008830E1F7089540E050E00BC020E030E01E
:100A8000000000002F5F3F4F24363105C9F74F5F4C
:100A90005F4F4817590794F308959D990CC09C998E
:100AA0000AC0E8ECF0E03197F1F79D9B10C09C99EB
:100AB0000EC08F5F08959D9B0AC09C9908C0E8EC0A
:100AC000F0E03197F1F79D9902C09C9B8150089509
:100AD0009D990CC09C9B0AC0E8ECF0E03197F1F7BF
:100AE0009D9910C09C990EC08F5F08959D9B0AC070
:100AF0009C9908C0E8ECF0E03197F1F79D9902C0AD
:100B00009C9B8150089528EC30E0F9013197F1F772
:100B1000F9013197F1F7F9013197F1F70895991B30
:100B200079E004C0991F961708F0961B881F7A95E4
:100B3000C9F780950895FB019F01E8944230C4F005
:100B40004532B4F44A3029F497FB1EF49095819510
:100B50009F4F642F77270E943B06805D8A330CF0FD
:100B6000895D8193CB010097A1F716F45DE2519363
:100B70001082C9010C942B06FA01CF93FF93EF93D7
:100B8000223044F1253234F5C22FE894CA3049F4BA
:100B900097FB3EF490958095709561957F4F8F4FB0
:100BA0009F4F2C2F332744275527FF93EF930E9405
:100BB0004F06EF91FF91605D6A330CF0695D6193C0
:100BC000B901CA01605070408040904051F716F45E
:100BD000CDE2C19310828F919F91CF910C942B06FF
:100BE000FA01CF93FF93EF932230CCF02532BCF47F
:100BF000C22F2C2F332744275527FF93EF930E94B2
:100C00004F06EF91FF91605D6A330CF0695D61936F
:100C1000B901CA01605070408040904051F7108285
:100C20008F919F91CF910C942B06FB019F01423035
:100C300074F0453264F4642F77270E943B06805D90
:100C40008A330CF0895D8193CB010097A1F7108264
:100C5000C9010C942B06DC01FC01672F71917723ED
:100C6000E1F7329704C07C916D9370836291AE1767
:100C7000BF07C8F30895AA1BBB1B51E107C0AA1FF9
:100C8000BB1FA617B70710F0A61BB70B881F991F2D
:100C90005A95A9F780959095BC01CD010895A1E2E0
:100CA0001A2EAA1BBB1BFD010DC0AA1FBB1FEE1FE6
:100CB000FF1FA217B307E407F50720F0A21BB30B31
:100CC000E40BF50B661F771F881F991F1A9469F7AD
:100CD00060957095809590959B01AC01BD01CF0109
:060CE0000895F894FFCF17
:100CE600566F6C756D652000202020202020202066
:100CF600204C200020202020416D706C69666572B2
:100D0600204F6666202020200020202020416D7084
:100D16006C69666572204F6E202020202000502EC0
:100D26005550494E4F562020502E53544F59414E40
:100D36004F5600505245535345442042544E204589
:100D460053434150452020005052455353454420BB
:100D560042544E20454E434F44455220000028320F
:100D66003C46505A646E78828C96A0AAB4BEC8D20D
:100D7600D70E1B11111111111F0E1B111111111F6D
:100D86001F0E1B1111111F1F1F0E1B11111F1F1FDD
:100D96001F0E1B111F1F1F1F1F0E1B1F1F1F1F1F95
:0A0DA6001F0E1F1F1F1F1F1F1F003D
:00000001FF
