:100000000C942A000C9466000C9470000C947A00F6
:100010000C9484000C948E000C9447000C944700C0
:100020000C9447000C9447000C9447000C94470034
:100030000C9447000C9447000C9447000C94470024
:100040000C9447000C9447000C9447000C94470014
:100050000C94470011241FBECFE5D8E0DEBFCDBF12
:1000600010E0A0E6B0E0E2E4FEE002C005900D92F0
:10007000AE3FB107D9F711E0AEEFB0E001C01D927D
:10008000A331B107E1F70E94BB010C941F070C9448
:1000900000008FEF8ABB1BBA88EB87BB87E088BB69
:1000A0008CEC84BB15BA80EF81BB8CE082BB0895D9
:1000B00082E080BF81E885BD13BC089581E885BDDD
:1000C00081E083BD089515BC13BC08951F920F9263
:1000D0000FB60F9211240F900FBE0F901F9018951E
:1000E0001F920F920FB60F9211240F900FBE0F9018
:1000F0001F9018951F920F920FB60F9211240F9018
:100100000FBE0F901F9018951F920F920FB60F926F
:1001100011240F900FBE0F901F9018951F920F92F1
:100120000FB60F9211240F900FBE0F901F901895CD
:100130000E9449000E948E030E942F040E94120612
:100140000E9439060895E091FE00F0E0EE54FF4F62
:100150006081862F0E94180484ED0E9467038091BD
:10016000FE008A3018F080E690E002C089E690E058
:100170000E949F038091FE0090E00E94FC0308957E
:100180000E9491058823E1F08F3F69F48091FE0081
:10019000882319F41092FE0003C081508093FE0062
:1001A0000E94A3000895813059F48091FE008331AC
:1001B00010F083E101C08F5F8093FE000E94A300D6
:1001C000089580E00E94670383E790E00E949F0308
:1001D00088E00E9467030E94350688E59BE120E9DC
:1001E00031E0F9013197F1F70197D9F70E940E0636
:1001F00088E59BE120E931E0F9013197F1F70197BA
:10020000D9F7AA980E948603949A089594980E9418
:10021000860380E00E94670388E890E00E949F03C5
:1002200080EC0E9467038DE990E00E949F038CE0C0
:100230000E946703AA9A80E49CE920E931E0F90171
:100240003197F1F70197D9F70E94FA0588E59BE10C
:1002500020E931E0F9013197F1F70197D9F70E94D0
:1002600031060895CF93DF938EE091E090930B01D8
:1002700080930A0180910E018C7F80930E01C0E96A
:10028000D1E0B19913C0E0910A01F0910B01808196
:1002900080FD0CC0816080830E94060180E197E2AE
:1002A000FE013197F1F70197D9F7EBCFB19913C060
:1002B000E0910A01F0910B01808180FF0CC08E7FDC
:1002C00080830E94E10088E893E1FE013197F1F715
:1002D0000197D9F7D6CFB29911C0E0910A01F091F8
:1002E0000B01808180FF0AC00E94860388E893E1A9
:1002F000FE013197F1F70197D9F7C3CF83990FC06A
:10030000E0910A01F0910B01808180FF08C088E82C
:1003100093E1FE013197F1F70197D9F7B2CFB29986
:100320000FC0E0910A01F0910B01808180FD08C0AF
:1003300088E893E1FE013197F1F70197D9F7A1CF52
:1003400083990FC0E0910A01F0910B01808180FD3B
:1003500008C088E893E1FE013197F1F70197D9F7DA
:1003600090CFE0910A01F0910B01808180FF89CF4D
:100370000E94C00086CF0E9498007894949A0E94B0
:100380003201FDCF0E94D00280EA0E94D90280E0B3
:100390000E94D90280E00E94D9020E94D00281EA24
:1003A0000E94D90280E00E94E00280E00E94E00208
:1003B00080E00E94E00280E00E94E00280E00E9473
:1003C000E00281E00E94E0020E94D60208950E94AD
:1003D000D00280EA0E94D90280E00E94D90280E027
:1003E0000E94D90280E30E94D90281E30E94D902CF
:1003F00082E30E94D90283E30E94D90284E30E942F
:10040000D9020E94D6020895CF93DF930E94D002B2
:1004100080EA0E94D90280E00E94D90280E00E9416
:10042000D902C0E0D0E080E00E94D90221968FE19D
:10043000CF3FD807C1F70E94D602DF91CF91089530
:10044000B89AC09880E897E00197F1F7B89880E4EF
:1004500091E00197F1F7B09B02C080E0089588E039
:1004600097E00197F1F781E00895B89AC09885E088
:100470008A95F1F7B89880E48A95F1F786B3817090
:100480000895B89AC0988111C09A88EB91E00197BD
:10049000F1F7B898C0980895CF92DF92EF92FF924B
:1004A0001F93CF93DF9310E0C0E0D0E091E0C92E1E
:1004B000D12C80EEE82E81E0F82E0E9435028823B0
:1004C00041F0C6010C2E02C0880F991F0A94E2F772
:1004D000182BC7010197F1F72196C830D10569F7AC
:1004E000812FDF91CF911F91FF90EF90DF90CF9000
:1004F00008950F931F93CF93DF93C0E0D0E0082FB0
:1005000010E0C8010C2E02C0959587950A94E2F779
:1005100080FF02C081E001C080E00E94410221967C
:10052000C830D10571F780EE91E00197F1F7DF91C6
:10053000CF911F910F9108950E9435028823E1F316
:100540000895CF93DF930E9420028823E9F08CEC7A
:100550000E94790284E40E9479020E949C020E9417
:100560002002882389F08CEC0E9479028EEB0E9495
:100570007902CFEFD0E00E944C02899381E0C8302D
:10058000D807C9F781E001C080E0DF91CF910895DD
:1005900082E180B981E081B984E086BF13B8089513
:1005A00084EA86BF06B607FEFDCF089584E986BFBC
:1005B000089583B984E886BF06B607FEFDCF089587
:1005C000882311F484EC01C084E886BF06B607FED8
:1005D000FDCF83B1089590E0D99887FF02C0D89AE3
:1005E00001C0D898D99A9F5F983011F0880FF4CF46
:1005F000DD98DC98DB9ADA9888EA92E0FC01319782
:10060000F1F7DA9A0197F1F7DB9880E991E0019729
:10061000F1F70895CF93DF9340E050E0A8EAB2E00D
:10062000C0E9D1E022C0FC01E40FF51FE08120E029
:10063000D998E7FF02C0D89A01C0D898D99A2F5FFD
:10064000283011F0EE0FF4CFDD9ADC98DB9ADA98BF
:10065000FD013197F1F7DA9AFD013197F1F7DB9857
:10066000FE013197F1F74F5F5F4F46175707DCF2F6
:10067000DF91CF91089590E0D99887FF02C0D89A72
:1006800001C0D898D99A9F5F983011F0880FF4CFA5
:10069000DD9ADC98DB9ADA9888EA92E0FC013197DF
:1006A000F1F7DA9A0197F1F7DB9880E991E0019789
:1006B000F1F70895DB98DC98DD9A85ED982F9A95EF
:1006C000F1F7DB9ADC98DD9A8A95F1F7089590E0CE
:1006D000D99887FF02C0D89A01C0D898D99A9F5F4D
:1006E000983011F0880FF4CFDD98DC98DB9ADA9817
:1006F00088EA92E0FC013197F1F7DA9A0197F1F775
:10070000DB9880E991E00197F1F7089581E00E947C
:10071000670380EC92E10197F1F7089588E30E9466
:10072000670386E00E94670382E00E94670381E01E
:100730000E94670380EC92E10197F1F70895FC01B4
:1007400028EA32E040E951E01DC090E0D99887FFE7
:1007500002C0D89A01C0D898D99A9F5F983011F0FA
:10076000880FF4CF3196DD9ADC98DB9ADA98C901CC
:100770000197F1F7DA9AC9010197F1F7DB98CA01FD
:100780000197F1F78081882301F70895CF93DF93D4
:100790001092100110920F0125C00896880F880F43
:1007A000880F0E94EB02C0E0D0E0E0910F01F091D1
:1007B000100183E0EE0FFF1F8A95E1F7EC0FFD1F9C
:1007C000EA53FF4F80810E943B032196C830D10538
:1007D00061F780910F0190911001019690931001A3
:1007E00080930F0180910F01909110018730910546
:1007F000A4F2DF91CF910895DF93CF93CDB7DEB709
:100800002A970FB6F894DEBF0FBECDBFBE016F5F53
:100810007F4F4AE050E00E9449060E949F032A96BB
:100820000FB6F894DEBF0FBECDBFCF91DF91089514
:100830000F931F93182F062FC3980E941F05C39A6A
:10084000DE98812F602F0E941F05DE9ADF98812F8E
:10085000602F0E941F05DF9A1F910F9108950E943B
:100860000E05C39880E060E00E941F05C39ADE98E1
:1008700080E060E00E941F05DE9ADF9880E060E083
:100880000E941F05DF9A08950E940E05C39880E01C
:1008900060E00E941F05C39ADE9880E060E00E943D
:1008A0001F05DE9ADF9880E060E00E941F05DF9A56
:1008B000089587E689B910BC86E880BD88E98AB9C1
:1008C0001CB8089510BC86E880BD88E98AB91CB8B8
:1008D0000895AC0120E030E009C05D9BFECFFA0135
:1008E000E20FF31F80818CB92F5F3F4F2617370728
:1008F000A4F308955D9BFECF8CB90895982F5D9B5E
:10090000FECF892F82958F70805D8CB95D9BFECF65
:100910009F70905D9CB908955D9BFECF8CB9089542
:10092000FC0104C05D9BFECF31968CB98081882389
:10093000C9F708955F9BFECF8CB10895DF93CF93E5
:10094000CDB7DEB72A970FB6F894DEBF0FBECDBF86
:10095000AE014F5F5F4F2AE030E00E946A060E94BE
:1009600090042A960FB6F894DEBF0FBECDBFCF918C
:10097000DF910895DF93CF93CDB7DEB72A970FB6F7
:10098000F894DEBF0FBECDBFAE014F5F5F4F2AE0D0
:1009900030E00E949E060E9490042A960FB6F894BA
:1009A000DEBF0FBECDBFCF91DF910895DF93CF9310
:1009B000CDB7DEB72A970FB6F894DEBF0FBECDBF16
:1009C000BE016F5F7F4F4AE050E00E9449060E94DF
:1009D00090042A960FB6F894DEBF0FBECDBFCF911C
:1009E000DF910895DF93CF93CDB7DEB72A970FB687
:1009F000F894DEBF0FBECDBFBE016F5F7F4F4AE0F0
:100A000050E00E94C3060E9490042A960FB6F89404
:100A1000DEBF0FBECDBFCF91DF9108951EB883E535
:100A20008DB91FB81DB8089583E58DB908951DB817
:100A3000089593E59DB98FB9779BFECF089593E50F
:100A40009DB98FB9779BFECF6FB9779BFECF089585
:100A5000FC0193E506C031969DB980818FB9779BE3
:100A6000FECF80818823B9F708951FB8779BFECF0A
:100A700080E00895482F6AE00E943D06282F30E06C
:100A800084E0220F331F8A95E1F7842F0E943D06F0
:100A9000892F820F0895282F22952F709AE0299F81
:100AA000900111248F70820F0895A09A94E480E041
:100AB00090FF02C0A89A01C0A8988F5F883011F0FB
:100AC0009695F6CF0895A09A90E084E487FF02C03F
:100AD000A89A01C0A8989F5F983011F0880FF6CFB0
:100AE0000895A09880E093B38F5F8830E1F7089570
:100AF000A09880E093B38F5F8830E1F7089540E0DD
:100B000050E00BC020E030E0000000002F5F3F4FBE
:100B100024363105C9F74F5F5F4F4817590794F3E3
:100B200008959D990EC09C990CC088EC90E00197A7
:100B3000F1F79D9B14C083B382958F70809581706F
:100B400008959D9B0CC09C990AC088EC90E0019789
:100B5000F1F79D9904C09C9902C08FEF089580E041
:100B600008959D990EC09C9B0CC088EC90E0019765
:100B7000F1F79D9914C083B382958F708095817031
:100B800008959D9B0CC09C990AC088EC90E0019749
:100B9000F1F79D9904C09C9902C08FEF089580E001
:100BA000089588EC90E0FC013197F1F7FC01319752
:100BB000F1F70197F1F780E008950895089590E026
:100BC000AE9880FF02C0AF9A01C0AF98AE9A9F5F07
:100BD000983011F08695F4CFAB9888EA92E0FC014A
:100BE0003197F1F7AB9A0197F1F7089580E20E94EF
:100BF000DF05089581E60E94DF0508958AE00E94DE
:100C0000DF0508958AE90E94DF0508958CE00E94BF
:100C1000DF0508958CE90E94DF05089580E00E94B9
:100C2000DF05089580E00E94DF05089590E0969822
:100C300080FF02C0C49A01C0C498969A9F5F983002
:100C400011F08695F4CF979888EA92E0FC013197ED
:100C5000F1F7979A0197F1F7089580E80E94160638
:100C600008958CEF0E941606089580E00E941606F3
:100C7000089580E00E9416060895991B79E004C04B
:100C8000991F961708F0961B881F7A95C9F78095CB
:100C90000895FB019F01E8944230C4F04532B4F45A
:100CA0004A3029F497FB1EF4909581959F4F642F4D
:100CB00077270E94E906805D8A330CF0895D819375
:100CC000CB010097A1F716F45DE251931082C901A0
:100CD0000C94D906FA01CF93FF93EF93223044F19D
:100CE000253234F5C22FE894CA3049F497FB3EF41C
:100CF00090958095709561957F4F8F4F9F4F2C2FCA
:100D0000332744275527FF93EF930E94FD06EF9169
:100D1000FF91605D6A330CF0695D6193B901CA01AE
:100D2000605070408040904051F716F4CDE2C1937E
:100D300010828F919F91CF910C94D906FA01CF9395
:100D4000FF93EF932230CCF02532BCF4C22F2C2F2E
:100D5000332744275527FF93EF930E94FD06EF9119
:100D6000FF91605D6A330CF0695D6193B901CA015E
:100D7000605070408040904051F710828F919F9159
:100D8000CF910C94D906FB019F01423074F045329B
:100D900064F4642F77270E94E906805D8A330CF0A3
:100DA000895D8193CB010097A1F71082C9010C9452
:100DB000D906DC01FC01672F71917723E1F73297A7
:100DC00004C07C916D9370836291AE17BF07C8F326
:100DD0000895AA1BBB1B51E107C0AA1FBB1FA61782
:100DE000B70710F0A61BB70B881F991F5A95A9F7D4
:100DF00080959095BC01CD010895A1E21A2EAA1B01
:100E0000BB1BFD010DC0AA1FBB1FEE1FFF1FA217BA
:100E1000B307E407F50720F0A21BB30BE40BF50BB7
:100E2000661F771F881F991F1A9469F76095709540
:100E3000809590959B01AC01BD01CF010895F89478
:020E4000FFCFE2
:100E4200566F6C756D653A2000566F6C756D653A1C
:100E520020300020202020416D706C696665722070
:100E62004F6666202020200020202020416D706CDB
:100E720069666572204F6E202020202000502E557A
:100E820050494E4F562020502E53544F59414E4FE9
:100E920056000028323C46505A646E78828C96A0E6
:100EA200AAB4BEC8D2D70E1B11111111111F0E1BED
:100EB200111111111F1F0E1B1111111F1F1F0E1BCC
:100EC20011111F1F1F1F0E1B111F1F1F1F1F0E1B84
:0E0ED2001F1F1F1F1F1F0E1F1F1F1F1F1F1F71
:00000001FF
