:100000000C942A000C9466000C9470000C947A00F6
:100010000C9484000C948E000C9447000C944700C0
:100020000C9447000C9447000C9447000C94470034
:100030000C9447000C9447000C9447000C94470024
:100040000C9447000C9447000C9447000C94470014
:100050000C94470011241FBECFE5D8E0DEBFCDBF12
:1000600010E0A0E6B0E0E2E3FAE002C005900D92F5
:10007000A839B107D9F710E0A8E9B0E001C01D9296
:10008000AD3AB107E1F70E94E6000C9417050C9415
:1000900000008FEF8ABB1BBA88EB87BB87E088BB69
:1000A0008CEC84BB15BA80EF81BB8CE082BB0895D9
:1000B00082E080BF81E885BD13BC089581E885BDDD
:1000C00081E083BD089515BC13BC08951F920F9263
:1000D0000FB60F9211240F900FBE0F901F9018951E
:1000E0001F920F920FB60F9211240F900FBE0F9018
:1000F0001F9018951F920F920FB60F9211240F9018
:100100000FBE0F901F9018951F920F920FB60F926F
:1001100011240F900FBE0F901F9018951F920F92F1
:100120000FB60F9211240F900FBE0F901F901895CD
:100130001F93CF93DF93C0E9D1E0B199FECFE09157
:10014000A500F091A600808180FD17C0949A0E94BE
:10015000340280E00E9415020E94D402E091A500C2
:10016000F091A60080818160808380ED97E0FE01A0
:100170003197F1F70197D9F7E0CF94980E943402B4
:1001800080E00E94150210E0812F0E9481021F5F13
:100190001031D1F7E091A500F091A60080818E7F0B
:1001A000808380ED97E0FE013197F1F70197D9F751
:1001B000C4CF0E94490082E080BF81E885BD13BCA6
:1001C0000E943C0281E00E94150208950E94D9001D
:1001D00078940E949800FDCF0E94FA0180EA0E9464
:1001E000030280E00E94030280E00E9403020E945A
:1001F000FA0181EA0E94030280E00E940A0280E084
:100200000E940A0280E00E940A0280E00E940A0224
:1002100080E00E940A0281E00E940A020E9400021D
:1002200008950E94FA0180EA0E94030280E00E9481
:10023000030280E00E94030280E30E94030281E344
:100240000E94030282E30E94030283E30E940302EE
:1002500084E30E9403020E9400020895CF93DF937B
:100260000E94FA0180EA0E94030280E00E940302D9
:1002700080E00E940302C0E0D0E080E00E94030220
:1002800021968FE1CF3FD807C1F70E940002DF918E
:10029000CF910895B89AC09880E897E00197F1F758
:1002A000B89880E491E00197F1F7B09B02C080E03C
:1002B000089588E097E00197F1F781E00895B89AF2
:1002C000C09885E08A95F1F7B89880E48A95F1F7AF
:1002D00086B381700895B89AC0988111C09A88EB4E
:1002E00091E00197F1F7B898C0980895CF92DF9206
:1002F000EF92FF921F93CF93DF9310E0C0E0D0E026
:1003000091E0C92ED12C80EEE82E81E0F82E0E94DB
:100310005F01882341F0C6010C2E02C0880F991F8F
:100320000A94E2F7182BC7010197F1F72196C8301C
:10033000D10569F7812FDF91CF911F91FF90EF9049
:10034000DF90CF9008950F931F93CF93DF93C0E07A
:10035000D0E0082F10E0C8010C2E02C095958795BB
:100360000A94E2F780FF02C081E001C080E00E94B1
:100370006B012196C830D10571F780EE91E00197AD
:10038000F1F7DF91CF911F910F9108950E945F01C6
:100390008823E1F30895CF93DF930E944A018823D5
:1003A000E9F08CEC0E94A30184E40E94A3010E9466
:1003B000C6010E944A01882389F08CEC0E94A301A7
:1003C0008EEB0E94A301CAE9D0E00E9476018993D6
:1003D00080E0C33AD807C9F781E001C080E0DF912F
:1003E000CF91089582E180B981E081B984E086BF30
:1003F00013B8089584EA86BF06B607FEFDCF0895B8
:1004000084E986BF089583B984E886BF06B607FEEF
:10041000FDCF0895882311F484EC01C084E886BFE1
:1004200006B607FEFDCF83B1089590E0D99887FF07
:1004300002C0D89A01C0D898D99A9F5F983011F01D
:10044000880FF4CFDD98DC98DB9ADA9888EA92E09E
:10045000FC013197F1F7DA9A0197F1F7DB9880E91F
:1004600091E00197F1F7089581E00E94150280EC78
:1004700092E10197F1F7089588E30E9415028FE059
:100480000E94150286E00E94150282E00E94150279
:1004900081E00E94150280EC92E10197F1F7089546
:1004A000CF93DF9340E050E0A8EAB2E0C0E9D1E0AA
:1004B00022C0FC01E40FF51FE08120E0D998E7FF9E
:1004C00002C0D89A01C0D898D99A2F5F283011F06D
:1004D000EE0FF4CFDD9ADC98DB9ADA98FD013197C4
:1004E000F1F7DA9AFD013197F1F7DB98FE013197C8
:1004F000F1F74F5F5F4F46175707DCF2DF91CF915F
:10050000089590E0D99887FF02C0D89A01C0D89882
:10051000D99A9F5F983011F0880FF4CFDD9ADC985C
:10052000DB9ADA9888EA92E0FC013197F1F7DA9ADF
:100530000197F1F7DB9880E991E00197F1F70895D1
:10054000DB98DC98DD9A85ED982F9A95F1F7DB9A88
:10055000DC98DD9A8A95F1F70895FC0128EA32E0EB
:1005600040E951E01DC090E0D99887FF02C0D89AB9
:1005700001C0D898D99A9F5F983011F0880FF4CFB6
:100580003196DD9ADC98DB9ADA98C9010197F1F788
:10059000DA9AC9010197F1F7DB98CA010197F1F7DF
:1005A0008081882301F70895CF93DF931092AA00EA
:1005B0001092A90025C00896880F880F880F0E9406
:1005C0001502C0E0D0E0E091A900F091AA0083E01C
:1005D000EE0FFF1F8A95E1F7EC0FFD1FE05AFF4F6A
:1005E00080810E9481022196C830D10561F78091F7
:1005F000A9009091AA0001969093AA008093A90067
:100600008091A9009091AA0087309105A4F2DF9112
:10061000CF910895DF93CF93CDB7DEB72A970FB66A
:10062000F894DEBF0FBECDBFBE016F5F7F4F4AE0C3
:1006300050E00E9441040E94AD022A960FB6F89441
:10064000DEBF0FBECDBFCF91DF9108950F931F93F3
:10065000182F062FC3980E942604C39ADE98812F74
:10066000602F0E942604DE9ADF98812F602F0E945F
:100670002604DF9A1F910F9108950E941504C398D4
:1006800080E060E00E942604C39ADE9880E060E08B
:100690000E942604DE9ADF9880E060E00E94260433
:1006A000DF9A08950E941504C39880E060E00E94DC
:1006B0002604C39ADE9880E060E00E942604DE9A59
:1006C000DF9880E060E00E942604DF9A089587E6C4
:1006D00089B910BC86E880BD88E98AB91CB808953C
:1006E000AC0120E030E009C05D9BFECFFA01E20FD3
:1006F000F31F80818CB92F5F3F4F26173707A4F374
:1007000008955D9BFECF8CB90895982F5D9BFECF19
:10071000892F82958F70805D8CB95D9BFECF9F7015
:10072000905D9CB908955D9BFECF8CB90895FC0146
:1007300004C05D9BFECF31968CB980818823C9F7B8
:1007400008955F9BFECF8CB10895DF93CF93CDB713
:10075000DEB72A970FB6F894DEBF0FBECDBFAE014D
:100760004F5F5F4F2AE030E00E9462040E949703CF
:100770002A960FB6F894DEBF0FBECDBFCF91DF91A2
:100780000895DF93CF93CDB7DEB72A970FB6F894CD
:10079000DEBF0FBECDBFAE014F5F5F4F2AE030E03E
:1007A0000E9496040E9497032A960FB6F894DEBF23
:1007B0000FBECDBFCF91DF910895DF93CF93CDB71B
:1007C000DEB72A970FB6F894DEBF0FBECDBFBE01CD
:1007D0006F5F7F4F4AE050E00E9441040E94970300
:1007E0002A960FB6F894DEBF0FBECDBFCF91DF9132
:1007F0000895DF93CF93CDB7DEB72A970FB6F8945D
:10080000DEBF0FBECDBFBE016F5F7F4F4AE050E03D
:100810000E94BB040E9497032A960FB6F894DEBF8D
:100820000FBECDBFCF91DF9108951EB883E58DB97E
:100830001FB81DB8089583E58DB908951DB80895B2
:1008400093E59DB98FB9779BFECF089593E59DB948
:100850008FB9779BFECF6FB9779BFECF0895FC01D0
:1008600093E506C031969DB980818FB9779BFECF05
:1008700080818823B9F708951FB8779BFECF80E069
:100880000895FB019F01E8944230C4F04532B4F46E
:100890004A3029F497FB1EF4909581959F4F642F61
:1008A00077270E94E104805D8A330CF0895D819393
:1008B000CB010097A1F716F45DE251931082C901B4
:1008C0000C94D104FA01CF93FF93EF93223044F1BB
:1008D000253234F5C22FE894CA3049F497FB3EF430
:1008E00090958095709561957F4F8F4F9F4F2C2FDE
:1008F000332744275527FF93EF930E94F504EF9188
:10090000FF91605D6A330CF0695D6193B901CA01C2
:10091000605070408040904051F716F4CDE2C19392
:1009200010828F919F91CF910C94D104FA01CF93B3
:10093000FF93EF932230CCF02532BCF4C22F2C2F42
:10094000332744275527FF93EF930E94F504EF9137
:10095000FF91605D6A330CF0695D6193B901CA0172
:10096000605070408040904051F710828F919F916D
:10097000CF910C94D104FB019F01423074F04532B9
:1009800064F4642F77270E94E104805D8A330CF0C1
:10099000895D8193CB010097A1F71082C9010C9466
:1009A000D104DC01FC01672F71917723E1F73297C5
:1009B00004C07C916D9370836291AE17BF07C8F33A
:1009C0000895AA1BBB1B51E107C0AA1FBB1FA61796
:1009D000B70710F0A61BB70B881F991F5A95A9F7E8
:1009E00080959095BC01CD010895A1E21A2EAA1B15
:1009F000BB1BFD010DC0AA1FBB1FEE1FFF1FA217CF
:100A0000B307E407F50720F0A21BB30BE40BF50BCB
:100A1000661F771F881F991F1A9469F76095709554
:100A2000809590959B01AC01BD01CF010895F8948C
:020A3000FFCFF6
:100A32000E1B11111111111F0E1B111111111F1F6C
:100A42000E1B1111111F1F1F0E1B11111F1F1F1F24
:100A52000E1B111F1F1F1F1F0E1B1F1F1F1F1F1FDC
:080A62000E1F1F1F1F1F1F1FA5
:00000001FF
