:100000000C942A000C942C040C9491000C949B00EA
:100010000C94A5000C94AF000C9447000C9447007E
:100020000C9447000C9447000C9447000C94470034
:100030000C9447000C9447000C9447000C94470024
:100040000C9447000C9447000C9447000C94470014
:100050000C94470011241FBECFE5D8E0DEBFCDBF12
:1000600016E0A0E6B0E0E0E9F6E102C005900D92EE
:10007000A039B107D9F716E0A0E9B6E001C01D929A
:10008000AB3BB107E1F70E94E7030C94460B0C94DD
:1000900000008FEF8ABB1BBA88EB87BB87E088BB69
:1000A0008CEC84BB15BA80EF81BB8CE082BB0895D9
:1000B00082E085BF089580E48BBF8ABF08951BBE90
:1000C00080E48ABF08950895089519BE1DBC1CBC24
:1000D000089581E88FBD81E18EBD1BBC81E08ABDA2
:1000E00008951FBC1EBC1BBC1ABC089581E88FBDBF
:1000F00081E18EBD1BBC81E08ABD08951FBC1EBC82
:100100001BBC1ABC089582E080BF81E885BD13BC8A
:10011000089581E885BD81E083BD089515BC13BCB9
:1001200008951F920F920FB60F9211240F900FBED9
:100130000F901F9018951F920F920FB60F921124D7
:100140000F900FBE0F901F9018951F920F920FB631
:100150000F9211240F900FBE0F901F9018951F92B1
:100160000F920FB60F9211240F900FBE0F901F9099
:1001700018950E9449000E942D060E94F8070E94CF
:10018000A0080E942207089580E690E00E947A0766
:100190008091910690E00E94C00782E790E00E9463
:1001A0007A0780919106E2E9F6E0E80FF11D80817F
:1001B00090E00E94C00786E790E00E947A070895C9
:1001C0001F931091920680919306882361F5112365
:1001D00079F489E790E00E947A0780E090E00E943D
:1001E000C00783E990E00E947A0780E090E013C0A6
:1001F0008FE990E00E947A0789E790E00E947A07F1
:100200001695812F90E00E94C00783E990E00E943C
:100210007A07812F90E00E94D3068AE990E00E943D
:100220003E0680E01BC08F3FA1F4112391F081EACC
:1002300090E00E947A0789E790E00E947A07812F78
:1002400090E08F5F904062E070E00E945D0A162FA0
:10025000D8CF83EA90E00E947A0781E01F91089549
:100260001F9384EC90E00E947A070E94BF048823C9
:1002700009F457C085E50E94180580E10E94180521
:100280008DE60E94180584EF0E9418058FE80E94F1
:10029000180582E00E94180588E00E94180580E099
:1002A0000E94180581EB0E94180584E40E9418053D
:1002B0000E943B050E94BF04882399F185E50E94B6
:1002C000180580E10E9418058DE60E94180584EF4C
:1002D0000E9418058FE80E94180582E00E94180508
:1002E00088E00E94180580E00E94180581EB0E94BA
:1002F00018058EEB0E941805109291060CC00E9402
:10030000EB04E12FF0E0EE56F94F808380919106E7
:100310008F5F8093910610919106193080F381E0F0
:1003200001C080E01F9108951F9385E091E00E9435
:100330007A070E94BF04882309F457C085E50E940C
:10034000180580E10E9418058BED0E94180589E0D0
:100350000E94180585EA0E94180581E00E94180590
:1003600088E00E94180580E00E94180581EC0E9438
:10037000180584E40E9418050E943B050E94BF04F2
:10038000882399F185E50E94180580E10E941805EF
:100390008BED0E94180589E00E94180585EA0E94ED
:1003A000180581E00E94180588E00E94180580E089
:1003B0000E94180581EC0E9418058EEB0E9418051A
:1003C000109291060CC00E94EB04E12FF0E0EE5673
:1003D000F94F8083809191068F5F809391061091F1
:1003E0009106193080F381E001C080E01F910895EB
:1003F00080E00E94060685E491E00E943E0680ECC3
:100400000E94060688E591E00E943E060E94940143
:100410001092910607C00E94C400809191068F5FE0
:1004200080939106809191068930A8F38091AF0660
:100430006091AB064091AA062091A7060E94E000B9
:1004400084E90E94060687E691E00E943E060E942B
:1004500030011092910607C00E94C400809191065D
:100460008F5F80939106809191068930A8F38091E7
:10047000AF066091AB064091AA062091A7060E94A4
:10048000E00084ED0E94060686E791E00E943E06A9
:100490000895E091AD06F091AE0680818E7F808355
:1004A00080E00E9406068BE891E00E943E0688E00C
:1004B0000E94060680EA91E00E947A078EED91E0A4
:1004C0000E947A078BE192E00E947A0781E592E030
:1004D0000E947A071FBC1EBC1BBC1ABC0E942506CA
:1004E0008AE692E00E947A07949A86E992E00E9456
:1004F0007A0788E893E120E931E0F9013197F1F7D3
:100500000197D9F70895E091AD06F091AE0680818C
:100510008160808384EB92E00E947A0781ED92E013
:100520000E947A0794980E94250680E00E940606A1
:100530008DEF92E00E943E0680EC0E94060682E16A
:1005400093E00E943E068CE00E94060687E293E05C
:100550000E947A078FE393E00E947A0781E88FBDBB
:1005600081E18EBD1BBC81E08ABD8FE993E00E94D2
:100570007A0784ED93E00E947A0780E194E00E947C
:100580007A0780E197E220E931E0F9013197F1F74C
:100590000197D9F708950E94C508882309F44FC030
:1005A0008F3F41F580919C06803811F48FE701C0A0
:1005B000815080939C0694988CE00E94060684EDFE
:1005C0000E94060680919C0684361CF08DE494E01F
:1005D00007C08A301CF086E594E002C080E694E013
:1005E0000E943E0680919C06992787FD90950E9467
:1005F000D3060895813019F580919C068F5F809312
:100600009C0694988CE00E94060684ED0E940606E3
:1006100080919C0684361CF08DE494E007C08A30FB
:100620001CF086E594E002C080E694E00E943E065D
:1006300080919C06992787FD90950E94D306089586
:10064000E0919006F0E0E058FB4F6081862F0E9419
:100650000B0784ED0E940606809190068A3018F000
:100660008DE494E002C086E594E00E943E0680910D
:10067000900690E00E94D3068BE694E00E947A07F1
:100680008091900690E00E94C00786E790E00E946B
:100690007A0708950E94C5088823E1F08F3F69F426
:1006A00080919006882319F41092900603C081501F
:1006B000809390060E9420030895813059F4809120
:1006C0009006833110F083E101C08F5F8093900624
:1006D0000E9420030895CF93DF9385EB96E09093DB
:1006E000AE068093AD068091B5068C7F8093B506EB
:1006F000C0E9D1E0B1990AC0E091AD06F091AE0633
:10070000808180FD03C00E948302F4CFB1990AC0AA
:10071000E091AD06F091AE06808180FF03C00E949B
:100720004902E8CFB29911C0E091AD06F091AE0652
:10073000808180FF0AC00E94250688E893E1FE01BF
:100740003197F1F70197D9F7D5CF83990FC0E09191
:10075000AD06F091AE06808180FF08C088E893E185
:10076000FE013197F1F70197D9F7C4CFB2990FC0C5
:10077000E091AD06F091AE06808180FD08C088E86A
:1007800093E1FE013197F1F70197D9F7B3CF839940
:1007900011C0E091AD06F091AE06808180FD0AC0E7
:1007A0000E94F80188E893E1FE013197F1F7019783
:1007B000D9F7A0CFE091AD06F091AE06808180FF21
:1007C00003C00E944A0396CF0E94CB0293CF0E949F
:1007D000B90080E48BBF8ABF7894949A0E946B031F
:1007E000FDCF0E9471099091B106913029F480915A
:1007F000AC06853199F406C0943021F58091AC06A1
:100800008D3099F4E091AD06F091AE06808180FDC7
:1008100003C00E94830216C0913029F48091AC0677
:10082000853181F406C0943069F48091AC068D3036
:1008300049F4E091AD06F091AE06808180FF02C0E0
:100840000E94490280ED97E020E931E0F9013197FB
:10085000F1F70197D9F708951F920F920FB60F92F3
:1008600011242F933F934F935F936F937F938F93B5
:100870009F93AF93BF93EF93FF931BBE80E48ABF18
:1008800082990BC08AE0982F9A95F1F7982F9A9544
:10089000F1F78A95F1F70E94F10380E48BBF8ABFDC
:1008A000FF91EF91BF91AF919F918F917F916F9148
:1008B0005F914F913F912F910F900FBE0F901F901E
:1008C00018950E946F0580EA0E94780580E00E94DA
:1008D000780580E00E9478050E946F0581EA0E94F9
:1008E000780580E00E947F0580E00E947F0580E01F
:1008F0000E947F0580E00E947F0580E00E947F05C6
:1009000081E00E947F050E94750508950E946F0591
:1009100080EA0E94780580E00E94780580E00E94CD
:10092000780580E30E94780581E30E94780582E3E0
:100930000E94780583E30E94780584E30E9478058D
:100940000E9475050895CF93DF930E946F0580EA9A
:100950000E94780580E00E94780580E00E9478057A
:10096000C0E0D0E080E00E94780521968FE1CF3F83
:10097000D807C1F70E947505DF91CF910895B89A05
:10098000C09880E897E00197F1F7B89880E491E08B
:100990000197F1F7B09B02C080E0089588E097E0EE
:1009A0000197F1F781E00895B89AC09885E08A959B
:1009B000F1F7B89880E48A95F1F786B381700895CD
:1009C000B89AC0988111C09A88EB91E00197F1F72D
:1009D000B898C0980895CF92DF92EF92FF921F933C
:1009E000CF93DF9310E0C0E0D0E091E0C92ED12C8E
:1009F00080EEE82E81E0F82E0E94D404882341F096
:100A0000C6010C2E02C0880F991F0A94E2F7182B1A
:100A1000C7010197F1F72196C830D10569F7812FF9
:100A2000DF91CF911F91FF90EF90DF90CF900895CD
:100A30000F931F93CF93DF93C0E0D0E0082F10E017
:100A4000C8010C2E02C0959587950A94E2F780FFA5
:100A500002C081E001C080E00E94E0042196C8301D
:100A6000D10571F780EE91E00197F1F7DF91CF9119
:100A70001F910F9108950E94D4048823E1F30895F3
:100A8000CF93DF930E94BF048823E9F08CEC0E948F
:100A9000180584E40E9418050E943B050E94BF04CB
:100AA000882389F08CEC0E9418058EEB0E941805B3
:100AB000CDE9D6E00E94EB04899386E0C63AD807D8
:100AC000C9F781E001C080E0DF91CF91089582E114
:100AD00080B981E081B984E086BF13B8089584EAC3
:100AE00086BF06B607FEFDCF089584E986BF089548
:100AF00083B984E886BF06B607FEFDCF0895882334
:100B000011F484EC01C084E886BF06B607FEFDCF71
:100B100083B1089590E0D99887FF02C0D89A01C0A8
:100B2000D898D99A9F5F983011F0880FF4CFDD984C
:100B3000DC98DB9ADA9888EA92E0FC013197F1F7C9
:100B4000DA9A0197F1F7DB9880E991E00197F1F7E4
:100B50000895CF93DF9340E050E0A8EAB2E0C0E907
:100B6000D1E022C0FC01E40FF51FE08120E0D9981C
:100B7000E7FF02C0D89A01C0D898D99A2F5F2830D1
:100B800011F0EE0FF4CFDD9ADC98DB9ADA98FD01D4
:100B90003197F1F7DA9AFD013197F1F7DB98FE0111
:100BA0003197F1F74F5F5F4F46175707DCF2DF9140
:100BB000CF91089590E0D99887FF02C0D89A01C0DC
:100BC000D898D99A9F5F983011F0880FF4CFDD9AAA
:100BD000DC98DB9ADA9888EA92E0FC013197F1F729
:100BE000DA9A0197F1F7DB9880E991E00197F1F744
:100BF0000895DB98DC98DD9A85ED982F9A95F1F7AA
:100C0000DB9ADC98DD9A8A95F1F7089590E0D998FF
:100C100087FF02C0D89A01C0D898D99A9F5F9830B0
:100C200011F0880FF4CFDD98DC98DB9ADA9888EA27
:100C300092E0FC013197F1F7DA9A0197F1F7DB982E
:100C400080E991E00197F1F7089581E00E9406069E
:100C500080EC92E10197F1F7089588E30E9406067F
:100C600086E00E94060682E00E94060681E00E945D
:100C7000060680EC92E10197F1F70895FC0128EA5D
:100C800032E040E951E01DC090E0D99887FF02C0F2
:100C9000D89A01C0D898D99A9F5F983011F0880FE0
:100CA000F4CF3196DD9ADC98DB9ADA98C901019786
:100CB000F1F7DA9AC9010197F1F7DB98CA010197B8
:100CC000F1F78081882301F70895CF93DF93109285
:100CD000B8061092B70625C00896880F880F880FAF
:100CE0000E948A05C0E0D0E0E091B706F091B80616
:100CF00083E0EE0FFF1F8A95E1F7EC0FFD1FEC5626
:100D0000FB4F80810E94DA052196C830D10561F73A
:100D10008091B7069091B80601969093B80680939B
:100D2000B7068091B7069091B80687309105A4F276
:100D3000DF91CF910895DF93CF93CDB7DEB72A9798
:100D40000FB6F894DEBF0FBECDBFAE014F5F5F4F51
:100D50002AE030E00E94D90A0E943E062A960FB689
:100D6000F894DEBF0FBECDBFCF91DF910895DF9322
:100D7000CF93CDB7DEB72A970FB6F894DEBF0FBE7C
:100D8000CDBFAE014F5F5F4F2AE030E00E94A50A61
:100D90000E943E062A960FB6F894DEBF0FBECDBF66
:100DA000CF91DF910895DF93CF93CDB7DEB72A9728
:100DB0000FB6F894DEBF0FBECDBFBE016F5F7F4F91
:100DC0004AE050E00E94840A0E943E062A960FB62E
:100DD000F894DEBF0FBECDBFCF91DF910895DF93B2
:100DE000CF93CDB7DEB72A970FB6F894DEBF0FBE0C
:100DF000CDBFBE016F5F7F4F4AE050E00E94FE0A08
:100E00000E943E062A960FB6F894DEBF0FBECDBFF5
:100E1000CF91DF9108950F931F93182F062FC3983A
:100E20000E942E08C39ADE98812F602F0E942E0800
:100E3000DE9ADF98812F602F0E942E08DF9A1F9183
:100E40000F9108950E941D08C39880E060E00E9401
:100E50002E08C39ADE9880E060E00E942E08DE9A99
:100E6000DF9880E060E00E942E08DF9A08950E94DB
:100E70001D08C39880E060E00E942E08C39ADE98A7
:100E800080E060E00E942E08DE9ADF9880E060E05B
:100E90000E942E08DF9A089510BC86E880BD88E97C
:100EA0008AB91CB80895AC0120E030E009C05D9B10
:100EB000FECFFA01E20FF31F80818CB92F5F3F4F05
:100EC00026173707A4F308955D9BFECF8CB90895CC
:100ED000982F5D9BFECF892F82958F70805D8CB996
:100EE0005D9BFECF9F70905D9CB908955D9BFECF8A
:100EF0008CB90895FC0104C05D9BFECF31968CB97E
:100F000080818823C9F708955F9BFECF8CB1089537
:100F1000DF93CF93CDB7DEB72A970FB6F894DEBF35
:100F20000FBECDBFAE014F5F5F4F2AE030E00E94A1
:100F3000A50A0E947A072A960FB6F894DEBF0FBE64
:100F4000CDBFCF91DF910895DF93CF93CDB7DEB7BB
:100F50002A970FB6F894DEBF0FBECDBFAE014F5F2C
:100F60005F4F2AE030E00E94D90A0E947A072A9651
:100F70000FB6F894DEBF0FBECDBFCF91DF910895BD
:100F8000DF93CF93CDB7DEB72A970FB6F894DEBFC5
:100F90000FBECDBFBE016F5F7F4F4AE050E00E94A1
:100FA000840A0E947A072A960FB6F894DEBF0FBE15
:100FB000CDBFCF91DF910895DF93CF93CDB7DEB74B
:100FC0002A970FB6F894DEBF0FBECDBFBE016F5F8C
:100FD0007F4F4AE050E00E94FE0A0E947A072A965C
:100FE0000FB6F894DEBF0FBECDBFCF91DF9108954D
:100FF00087E689B910BC8CE00E94060684ED0E9449
:1010000006068CEC94E00E943E0660E074E284EFF9
:1010100090E00E949B0683ED94E00E943E0686E8E5
:1010200080BD88E08AB91CB888ED94E00E947A07F8
:101030008BED94E00E947A0708951EB883E58DB980
:101040001FB81DB8089583E58DB908951DB808959A
:1010500093E59DB98FB9779BFECF089593E59DB930
:101060008FB9779BFECF6FB9779BFECF0895FC01B8
:1010700093E506C031969DB980818FB9779BFECFED
:1010800080818823B9F708951FB8779BFECF80E051
:101090000895482F6AE00E94510A282F30E084E02A
:1010A000220F331F8A95E1F7842F0E94510A892F5E
:1010B000820F0895282F22952F709AE0299F900182
:1010C00011248F70820F0895A09A94E480E090FF1D
:1010D00002C0A89A01C0A8988F5F883011F0969539
:1010E000F6CF0895A09A94E480E097FF02C0A89AF2
:1010F00001C0A8988F5F883011F0990FF6CF08953E
:10110000A09880E093B38F5F8830E1F70895A098AE
:1011100080E093B38F5F8830E1F7089540E050E0BE
:101120000BC020E030E0000000002F5F3F4F24366E
:101130003105C9F74F5F5F4F4817590794F308957A
:101140000F931F930CE515E0C8010E947A0780EA0F
:1011500095E00E947A078DED95E00E947A0786E17E
:1011600096E00E947A078AE190E00E94C0078AE335
:1011700096E00E947A07C8010E947A078DE396E004
:101180000E947A071F910F9108959D990EC09C9916
:101190000CC088EC90E00197F1F79D9B14C083B3DD
:1011A00082958F708095817008959D9B0CC09C994D
:1011B0000AC088EC90E00197F1F79D9904C09C99D2
:1011C00002C08FEF089580E008959D990EC09C9B0A
:1011D0000CC088EC90E00197F1F79D9914C083B39F
:1011E00082958F708095817008959D9B0CC09C990D
:1011F0000AC088EC90E00197F1F79D9904C09C9992
:1012000002C08FEF089580E0089588EC90E0FC0123
:101210003197F1F7FC013197F1F70197F1F780E091
:1012200008950895089590E0AE9880FF02C0AF9AA7
:1012300001C0AF98AE9A9F5F983011F08695F4CFB9
:10124000AB9888EA92E0FC013197F1F7AB9A0197ED
:10125000F1F7089580E20E941309089581E60E9443
:10126000130908958AE00E94130908958AE90E94EB
:10127000130908958CE00E94130908958CE90E94D7
:101280001309089580E00E941309089580E00E94E8
:101290001309089590E0969880FF02C0C49A01C097
:1012A000C498969A9F5F983011F08695F4CF9798DE
:1012B00088EA92E0FC013197F1F7979A0197F1F7EC
:1012C000089580E80E944A0908958CEF0E944A0917
:1012D000089580E00E944A09089580E00E944A092A
:1012E00008951092AC061092B1068299FECF20E0CC
:1012F00040E253E004C02F5FCA010197F1F7829BDF
:10130000FACF2B50233070F540E030E060E273E01C
:1013100036958299FECF20E004C02F5FCB01019764
:10132000F1F7829BFACF263008F030644F5F4730E8
:1013300079F73093AC0640E030E060E273E0369538
:101340008299FECF20E004C02F5FCB010197F1F717
:10135000829BFACF263008F030614F5F453079F735
:101360003093B10608951092AC061092B10682999E
:10137000FECF20E040E253E004C02F5FCA01019796
:10138000F1F7829BFACF2B50233070F540E030E02C
:1013900060E273E036958299FECF20E004C02F5FB3
:1013A000CB010197F1F7829BFACF263008F0306429
:1013B0004F5F473079F73093AC0640E030E060E2B1
:1013C00073E036958299FECF20E004C02F5FCB01F9
:1013D0000197F1F7829BFACF263008F030614F5F1A
:1013E000483079F73093B10608951092AC06109208
:1013F000B1061092B3068299FECF20E040E253E09E
:1014000004C02F5FCA010197F1F7829BFACF2B50DE
:10141000233008F045C040E030E060E273E03695EC
:101420008299FECF20E004C02F5FCB010197F1F736
:10143000829BFACF263008F030644F5F473079F74F
:101440003093AC0640E030E060E273E0369582997C
:10145000FECF20E004C02F5FCB010197F1F7829B04
:10146000FACF263008F030614F5F453079F730937E
:10147000B10640E030E060E273E036958299FECF3D
:1014800020E004C02F5FCB010197F1F7829BFACFD8
:10149000263008F030614F5F483079F73093B3065B
:1014A0000895991B79E004C0991F961708F0961BC0
:1014B000881F7A95C9F78095089597FB092E07260E
:1014C0000AD077FD04D00CD006D000201AF4709515
:1014D00061957F4F0895F6F7909581959F4F0895F8
:1014E000AA1BBB1B51E107C0AA1FBB1FA617B7074A
:1014F00010F0A61BB70B881F991F5A95A9F7809566
:101500009095BC01CD010895FB019F01E894423004
:10151000C4F04532B4F44A3029F497FB1EF4909598
:1015200081959F4F642F77270E94700A805D8A33D0
:101530000CF0895D8193CB010097A1F716F45DE271
:1015400051931082C9010C94140BFA01CF93FF93AD
:10155000EF93223044F1253234F5C22FE894CA309B
:1015600049F497FB3EF490958095709561957F4F77
:101570008F4F9F4F2C2F332744275527FF93EF93EF
:101580000E94240BEF91FF91605D6A330CF0695D5E
:101590006193B901CA01605070408040904051F79A
:1015A00016F4CDE2C19310828F919F91CF910C944C
:1015B000140BFA01CF93FF93EF932230CCF0253236
:1015C000BCF4C22F2C2F332744275527FF93EF93CA
:1015D0000E94240BEF91FF91605D6A330CF0695D0E
:1015E0006193B901CA01605070408040904051F74A
:1015F00010828F919F91CF910C94140BFB019F014E
:10160000423074F0453264F4642F77270E94700AE8
:10161000805D8A330CF0895D8193CB010097A1F73F
:101620001082C9010C94140BDC01FC01672F71912D
:101630007723E1F7329704C07C916D9370836291B8
:10164000AE17BF07C8F30895A1E21A2EAA1BBB1B51
:10165000FD010DC0AA1FBB1FEE1FFF1FA217B3077E
:10166000E407F50720F0A21BB30BE40BF50B661F94
:10167000771F881F991F1A9469F760957095809558
:1016800090959B01AC01BD01CF010895F894FFCF67
:101690005B5541525420494E464F5D206279746536
:1016A0002000203A20000D0A005B55415254204989
:1016B0004E464F5D2054656D70657261747572653C
:1016C0003A20002E3020430D0A002E302043002BFC
:1016D000002D005B55415254204552524F525D201F
:1016E0004552524F522054454D5045524154555247
:1016F000450D0A005B5541525420494E464F5D202E
:1017000054454D50455241545552452053454E5332
:101710004F522052494748543A2031302036442015
:1017200046342038462030322030382030302042B5
:1017300031200D0A005B5541525420494E464F5D01
:101740002054454D50455241545552452053454E25
:10175000534F52204C4546543A20313020444220C9
:10176000303920413520303120303820303020438E
:1017700031200D0A0020202020544550455241546C
:1017800055524520202020004C45465420205345EA
:101790004E534F523A200052494748542053454E29
:1017A000534F523A200020202020202020202020AB
:1017B000202020445331387832300020202020412E
:1017C0006D706C69666572204F666620202020006F
:1017D0005B5541525420494E464F5D20547279204A
:1017E000746F20737769746368206F666620726512
:1017F0006C617973206F757420666F7220616C6CF8
:101800002036206368616E6E656C730D0A005B554F
:1018100041525420494E464F5D2054727920746FD6
:1018200020737769746368206F66662072656C61E7
:10183000797320696E20666F7220616C6C2036208F
:101840006368616E6E656C730D0A005B554152549E
:1018500020494E464F5D2054727920746F20737773
:1018600069746368206F66662072656C61797320A5
:10187000666F7220706F77657220323230560D0AB3
:10188000005B5541525420494E464F5D2046616EE3
:10189000206973206F66660D0A005B554152542023
:1018A000494E464F5D20446973706C6179206F66C4
:1018B0006620616E6420737461747573206C656456
:1018C000206F6E0D0A005B5541525420494E464F21
:1018D0005D20416D706C69666572206973206F666A
:1018E000660D0A005B5541525420494E464F5D201B
:1018F000416D706C69666572206973206F6E0D0AA8
:10190000005B5541525420494E464F5D2044697357
:10191000706C6179206F6E20616E642073746174E5
:101920007573206C6564206F66660D0A00202020A8
:1019300020416D706C69666572204F6E20202020FA
:101940002000502E5550494E4F562020502E5354B3
:101950004F59414E4F56005B5541525420494E4617
:101960004F5D2046616E206973206F6E0D0A005B2B
:101970005541525420494E464F5D2046616E2069C4
:101980007320616C77617973206F6E2C20697420ED
:1019900069736E27742073656E7369746976652048
:1019A000746F2074656D70657261747572652C203A
:1019B000626563617573652044533138533230205A
:1019C00069732064697361626C696E670D0A005BFC
:1019D0005541525420494E464F5D2054727920742F
:1019E0006F20737769746368206F6E2072656C6115
:1019F000797320666F7220706F7765722032323093
:101A0000560D0A005B5541525420494E464F5D2009
:101A100054727920746F20737769746368206F6ED5
:101A20002072656C61797320696E20666F72206127
:101A30006C6C2036206368616E6E656C730D0A00F5
:101A40005B5541525420494E464F5D2054727920D7
:101A5000746F20737769746368206F6E2072656C91
:101A6000617973206F757420666F7220616C6C20D1
:101A700036206368616E6E656C730D0A00566F6C7C
:101A8000756D653A2000566F6C756D653A203000B3
:101A9000566F6C756D653A203030005B554152547D
:101AA00020494E464F5D20566F6C756D653A20009B
:101AB0000028323C46505A646E78828C96A0AAB4B4
:101AC000BEC8D2D70E1B11111111111F0E1B1111FF
:101AD00011111F1F0E1B1111111F1F1F0E1B1111A2
:101AE0001F1F1F1F0E1B111F1F1F1F1F0E1B1F1F3E
:101AF0001F1F1F1F0E1F1F1F1F1F1F1F46726571F5
:101B00003A2000204D487A000D0A005B554152549E
:101B10002053657269616C20506F72742053657434
:101B200074696E67735D20426175642072617465CB
:101B30003A20393630302C20446174612062697457
:101B4000733A203820626974732C2053746F7020AC
:101B5000626974733A2031206269742C205061727A
:101B60006974793A204E6F6E652C20466C6F772031
:101B7000636F6E74726F6C3A204E6F6E65206F7279
:101B800020584F4E2F584F46460D0A005B55415284
:101B90005420494E464F5D203D3D3D3D3D3D3D3D40
:101BA0003D3D3D3D3D3D3D3D3D3D3D3D3D3D3D3D65
:101BB0003D3D3D3D3D3D3D3D3D3D3D3D3D3D3D3D55
:101BC0003D3D3D3D3D3D3D3D3D3D3D3D3D0D0A00E5
:101BD0005B5541525420494E464F5D200941757472
:101BE000686F727320616E642063726561746F72D6
:101BF000733A20502E5570696E6F7620616E6420A6
:101C0000502E53746F79616E6F760D0A005B5541EB
:101C1000525420494E464F5D2009446576696365FC
:101C2000206E616D653A204469676974616C204378
:101C30006F6E74726F6C20417564696F2053797395
:101C400074656D0D0A005B5541525420494E464F54
:101C50005D20094669726D776172652076657273E1
:101C6000696F6E206265746120000D0A005B55414A
:101C7000525420494E464F5D20446120646F62619A
:101C800076712075707261766C656E6965206E6123
:101C90003A0D0A2D2046414E0D0A2D20445331386D
:101CA0005332300D0A2D2049520D0A2D2052544333
:101CB0000D0A2D204D656D6F72790D0A0D0A000019
:00000001FF
