:100000000C942A000C9445040C9491000C949B00D1
:100010000C94A5000C94AF000C9447000C9447007E
:100020000C9447000C9447000C9447000C94470034
:100030000C9447000C9447000C9447000C94470024
:100040000C9447000C9447000C9447000C94470014
:100050000C94470011241FBECFE5D8E0DEBFCDBF12
:1000600016E0A0E6B0E0EAE6F6E102C005900D92E7
:10007000A23FB107D9F717E0A2EFB6E001C01D9289
:10008000AC31B107E1F70E9400040C94330B0C94DF
:1000900000008FEF8ABB1BBA88EB87BB87E088BB69
:1000A0008CEC84BB15BA80EF81BB8CE082BB0895D9
:1000B00082E085BF089580E48BBF8ABF08951BBE90
:1000C00080E48ABF08950895089519BE1DBC1CBC24
:1000D000089582E080BF81E885BD13BC089581E862
:1000E0008FBD81E18EBD1BBC81E08ABD08951FBC20
:1000F0001EBC1BBC1ABC089581E88FBD81E18EBD7A
:100100001BBC81E08ABD08951FBC1EBC1BBC1ABC71
:10011000089581E885BD81E083BD089515BC13BCB9
:1001200008951F920F920FB60F9211240F900FBED9
:100130000F901F9018951F920F920FB60F921124D7
:100140000F900FBE0F901F9018951F920F920FB631
:100150000F9211240F900FBE0F901F9018951F92B1
:100160000F920FB60F9211240F900FBE0F901F9099
:1001700018950F931F9300E610E0C8010E948C07AA
:1001800084EA90E00E948C0781EE90E00E948C0748
:100190008AE191E00E948C078BE190E00E94D207F7
:1001A0008EE391E00E948C07C8010E948C0781E4D5
:1001B00091E00E948C071F910F9108950E944900C1
:1001C0000E9446060E940A080E94B9000E943B074E
:1001D00008951F931091F3068091F406882361F52A
:1001E000112379F481EF91E00E948C0780E090E088
:1001F0000E94D2078BE092E00E948C0780E090E0A2
:1002000013C087E192E00E948C0781EF91E00E9489
:100210008C071695812F90E00E94D2078BE092E028
:100220000E948C07812F90E00E94EC0682E192E010
:100230000E94570680E01BC08F3FA1F4112391F06C
:1002400089E192E00E948C0781EF91E00E948C0787
:10025000812F90E08F5F904062E070E00E944A0A38
:10026000162FD8CF8BE192E00E948C0781E01F917E
:100270000895CF93DF938CE392E00E948C070E9455
:10028000D804882309F44DC085E50E94310580E13A
:100290000E9431058DE60E94310584EF0E943105F0
:1002A0008FE80E94310582E00E94310588E00E94BB
:1002B000310580E00E94310581EB0E94310584E424
:1002C0000E9431050E9454050E94D804882349F1F8
:1002D00085E50E94310580E10E9431058DE60E948E
:1002E000310584EF0E9431058FE80E94310582E0DC
:1002F0000E94310588E00E94310580E00E943105AE
:1003000081EB0E9431058EEB0E943105C3EFD6E0F0
:100310000E940405899386E0CC3FD807C9F781E0A5
:1003200001C080E0DF91CF910895CF93DF938DE7F7
:1003300092E00E948C070E94D804882309F44DC0E3
:1003400085E50E94310580E10E9431058BED0E9418
:10035000310589E00E94310585EA0E94310581E07E
:100360000E94310588E00E94310580E00E9431053D
:1003700081EC0E94310584E40E9431050E945405FD
:100380000E94D804882349F185E50E94310580E167
:100390000E9431058BED0E94310589E00E943105F4
:1003A00085EA0E94310581E00E94310588E00E94C3
:1003B000310580E00E94310581EC0E9431058EEB11
:1003C0000E943105C3EFD6E00E940405899386E0C0
:1003D000CC3FD807C9F781E001C080E0DF91CF9121
:1003E0000895CF93DF9380E00E941F068DEB92E08B
:1003F0000E94570680EC0E941F0680ED92E00E944A
:1004000057060E949501C0E0D0E08FED92E00E9477
:100410008C07CE010E94D20781EF92E00E948C07E8
:10042000FE01ED50F94F808190E00E94D2078EE3EB
:1004300091E00E948C072196C930D10531F7809157
:10044000100760910C0740910B07209108070E944C
:10045000E90084E90E941F0685EF92E00E9457069A
:100460000E943901C0E0D0E08FED92E00E948C073D
:10047000CE010E94D20781EF92E00E948C07FE011C
:10048000ED50F94F808190E00E94D2078EE391E019
:100490000E948C072196C930D10531F78091100751
:1004A00060910C0740910B07209108070E94E9001A
:1004B00084ED0E941F0684E093E00E945706DF91BE
:1004C000CF910895E0910E07F0910F0780818E7F04
:1004D000808380E00E941F0689E193E00E94570616
:1004E00088E00E941F068EE293E00E948C078CE653
:1004F00093E00E948C0789EA93E00E948C078FEDBD
:1005000093E00E948C071FBC1EBC1BBC1ABC0E943F
:100510003E0688EF93E00E948C07949A84E294E070
:100520000E948C0788E893E120E931E0F9013197D6
:10053000F1F70197D9F70895E0910E07F0910F07B1
:1005400080818160808382E494E00E948C078FE543
:1005500094E00E948C0794980E943E0680E00E94DE
:100560001F068BE894E00E94570680EC0E941F064D
:1005700080EA94E00E9457068CE00E941F0685EBFB
:1005800094E00E948C078DEC94E00E948C0781E837
:100590008FBD81E18EBD1BBC81E08ABD8DE295E0FF
:1005A0000E948C0782E695E00E948C078EE995E018
:1005B0000E948C0780E197E220E931E0F901319750
:1005C000F1F70197D9F708950E94B208882309F43A
:1005D0004FC08F3F41F58091FD06803811F48FE7C1
:1005E00001C081508093FD0694988CE00E941F0604
:1005F00084ED0E941F068091FD0684361CF08BED71
:1006000095E007C08A301CF084EE95E002C08EEEC3
:1006100095E00E9457068091FD06992787FD9095E9
:100620000E94EC060895813019F58091FD068F5FD8
:100630008093FD0694988CE00E941F0684ED0E9432
:100640001F068091FD0684361CF08BED95E007C0F7
:100650008A301CF084EE95E002C08EEE95E00E9498
:1006600057068091FD06992787FD90950E94EC061C
:100670000895E091F206F0E0E25FF94F6081862F85
:100680000E94240784ED0E941F068091F2068A30A2
:1006900018F08BED95E002C084EE95E00E945706BD
:1006A0008091F20690E00E94EC0689EF95E00E94AE
:1006B0008C078091F20690E00E94D2078EE391E0D1
:1006C0000E948C0708950E94B2088823E1F08F3FB2
:1006D00069F48091F206882319F41092F20603C09F
:1006E00081508093F2060E9439030895813059F4B5
:1006F0008091F206833110F083E101C08F5F809317
:10070000F2060E9439030895CF93DF9386E197E0C4
:1007100090930F0780930E07809116078C7F80932C
:100720001607C0E9D1E0B1990AC0E0910E07F09137
:100730000F07808180FD03C00E949C02F4CFB19915
:100740000AC0E0910E07F0910F07808180FF03C07F
:100750000E946202E8CFB29911C0E0910E07F091B9
:100760000F07808180FF0AC00E943E0688E893E15F
:10077000FE013197F1F70197D9F7D5CF83990FC0D3
:10078000E0910E07F0910F07808180FF08C088E894
:1007900093E1FE013197F1F70197D9F7C4CFB299F0
:1007A0000FC0E0910E07F0910F07808180FD08C017
:1007B00088E893E1FE013197F1F70197D9F7B3CFBC
:1007C000839911C0E0910E07F0910F07808180FDA1
:1007D0000AC00E94F10188E893E1FE013197F1F728
:1007E0000197D9F7A0CFE0910E07F0910F07808114
:1007F00080FF03C00E94630396CF0E94E40293CF60
:100800000E94DE0080E48BBF8ABF7894949A0E9495
:100810008403FDCF0E945E0990911207913029F464
:1008200080910D07853199F406C0943021F58091AF
:100830000D078D3099F4E0910E07F0910F0780813C
:1008400080FD03C00E949C0216C0913029F4809163
:100850000D07853181F406C0943069F480910D074D
:100860008D3049F4E0910E07F0910F07808180FFF1
:1008700002C00E94620280ED97E020E931E0F901B8
:100880003197F1F70197D9F708951F920F920FB69C
:100890000F9211242F933F934F935F936F937F9306
:1008A0008F939F93AF93BF93EF93FF931BBE80E40F
:1008B0008ABF82990BC08AE0982F9A95F1F7982FFA
:1008C0009A95F1F78A95F1F70E940A0480E48BBFAC
:1008D0008ABFFF91EF91BF91AF919F918F917F91CF
:1008E0006F915F914F913F912F910F900FBE0F909D
:1008F0001F9018950E94880580EA0E94910580E06B
:100900000E94910580E00E9491050E94880581EA7D
:100910000E94910580E00E94980580E00E94980561
:1009200080E00E94980580E00E94980580E00E9487
:10093000980581E00E9498050E948E0508950E9406
:10094000880580EA0E94910580E00E94910580E080
:100950000E94910580E30E94910581E30E94910528
:1009600082E30E94910583E30E94910584E30E9443
:1009700091050E948E050895CF93DF930E9488050C
:1009800080EA0E94910580E00E94910580E00E942B
:100990009105C0E0D0E080E00E94910521968FE1B2
:1009A000CF3FD807C1F70E948E05DF91CF91089500
:1009B000B89AC09880E897E00197F1F7B89880E47A
:1009C00091E00197F1F7B09B02C080E0089588E0C4
:1009D00097E00197F1F781E00895B89AC09885E013
:1009E0008A95F1F7B89880E48A95F1F786B381701B
:1009F0000895B89AC0988111C09A88EB91E0019748
:100A0000F1F7B898C0980895CF92DF92EF92FF92D5
:100A10001F93CF93DF9310E0C0E0D0E091E0C92EA8
:100A2000D12C80EEE82E81E0F82E0E94ED04882380
:100A300041F0C6010C2E02C0880F991F0A94E2F7FC
:100A4000182BC7010197F1F72196C830D10569F736
:100A5000812FDF91CF911F91FF90EF90DF90CF908A
:100A600008950F931F93CF93DF93C0E0D0E0082F3A
:100A700010E0C8010C2E02C0959587950A94E2F704
:100A800080FF02C081E001C080E00E94F90421964D
:100A9000C830D10571F780EE91E00197F1F7DF9151
:100AA000CF911F910F9108950E94ED048823E1F3E7
:100AB0000895CF93DF930E94D8048823E9F08CEC4B
:100AC0000E94310584E40E9431050E9454050E9471
:100AD000D804882389F08CEC0E9431058EEB0E94AB
:100AE0003105CEEFD6E00E940405899387E0C73038
:100AF000D807C9F781E001C080E0DF91CF91089568
:100B000082E180B981E081B984E086BF13B808959D
:100B100084EA86BF06B607FEFDCF089584E986BF46
:100B2000089583B984E886BF06B607FEFDCF089511
:100B3000882311F484EC01C084E886BF06B607FE62
:100B4000FDCF83B1089590E0D99887FF02C0D89A6D
:100B500001C0D898D99A9F5F983011F0880FF4CFD0
:100B6000DD98DC98DB9ADA9888EA92E0FC0131970C
:100B7000F1F7DA9A0197F1F7DB9880E991E00197B4
:100B8000F1F70895CF93DF9340E050E0A8EAB2E098
:100B9000C0E9D1E022C0FC01E40FF51FE08120E0B4
:100BA000D998E7FF02C0D89A01C0D898D99A2F5F88
:100BB000283011F0EE0FF4CFDD9ADC98DB9ADA984A
:100BC000FD013197F1F7DA9AFD013197F1F7DB98E2
:100BD000FE013197F1F74F5F5F4F46175707DCF281
:100BE000DF91CF91089590E0D99887FF02C0D89AFD
:100BF00001C0D898D99A9F5F983011F0880FF4CF30
:100C0000DD9ADC98DB9ADA9888EA92E0FC01319769
:100C1000F1F7DA9A0197F1F7DB9880E991E0019713
:100C2000F1F70895DB98DC98DD9A85ED982F9A9579
:100C3000F1F7DB9ADC98DD9A8A95F1F7089590E058
:100C4000D99887FF02C0D89A01C0D898D99A9F5FD7
:100C5000983011F0880FF4CFDD98DC98DB9ADA98A1
:100C600088EA92E0FC013197F1F7DA9A0197F1F7FF
:100C7000DB9880E991E00197F1F7089581E00E9407
:100C80001F0680EC92E10197F1F7089588E30E9436
:100C90001F0686E00E941F0682E00E941F0681E078
:100CA0000E941F0680EC92E10197F1F70895FC0184
:100CB00028EA32E040E951E01DC090E0D99887FF72
:100CC00002C0D89A01C0D898D99A9F5F983011F085
:100CD000880FF4CF3196DD9ADC98DB9ADA98C90157
:100CE0000197F1F7DA9AC9010197F1F7DB98CA0188
:100CF0000197F1F78081882301F70895CF93DF935F
:100D0000109219071092180725C00896880F880FAF
:100D1000880F0E94A305C0E0D0E0E0911807F09191
:100D2000190783E0EE0FFF1F8A95E1F7EC0FFD1F17
:100D3000EE5DF94F80810E94F3052196C830D10500
:100D400061F7809118079091190701969093190700
:100D500080931807809118079091190787309105A3
:100D6000A4F2DF91CF910895DF93CF93CDB7DEB793
:100D70002A970FB6F894DEBF0FBECDBFAE014F5F0E
:100D80005F4F2AE030E00E94C60A0E9457062A966A
:100D90000FB6F894DEBF0FBECDBFCF91DF9108959F
:100DA000DF93CF93CDB7DEB72A970FB6F894DEBFA7
:100DB0000FBECDBFAE014F5F5F4F2AE030E00E9413
:100DC000920A0E9457062A960FB6F894DEBF0FBE0D
:100DD000CDBFCF91DF910895DF93CF93CDB7DEB72D
:100DE0002A970FB6F894DEBF0FBECDBFBE016F5F6E
:100DF0007F4F4AE050E00E94710A0E9457062A96EF
:100E00000FB6F894DEBF0FBECDBFCF91DF9108952E
:100E1000DF93CF93CDB7DEB72A970FB6F894DEBF36
:100E20000FBECDBFBE016F5F7F4F4AE050E00E9412
:100E3000EB0A0E9457062A960FB6F894DEBF0FBE43
:100E4000CDBFCF91DF9108950F931F93182F062FD9
:100E5000C3980E944008C39ADE98812F602F0E9499
:100E60004008DE9ADF98812F602F0E944008DF9AA9
:100E70001F910F9108950E942F08C39880E060E0B1
:100E80000E944008C39ADE9880E060E00E9440081B
:100E9000DE9ADF9880E060E00E944008DF9A0895C3
:100EA0000E942F08C39880E060E00E944008C39A27
:100EB000DE9880E060E00E944008DE9ADF9880E0E3
:100EC00060E00E944008DF9A0895AC0120E030E025
:100ED00009C05D9BFECFFA01E20FF31F80818CB940
:100EE0002F5F3F4F26173707A4F308955D9BFECF72
:100EF0008CB90895982F5D9BFECF892F82958F70B6
:100F0000805D8CB95D9BFECF9F70905D9CB908950C
:100F10005D9BFECF8CB90895FC0104C05D9BFECFA4
:100F200031968CB980818823C9F708955F9BFECFE5
:100F30008CB10895DF93CF93CDB7DEB72A970FB664
:100F4000F894DEBF0FBECDBFAE014F5F5F4F2AE00A
:100F500030E00E94920A0E948C072A960FB6F894FD
:100F6000DEBF0FBECDBFCF91DF910895DF93CF934A
:100F7000CDB7DEB72A970FB6F894DEBF0FBECDBF50
:100F8000AE014F5F5F4F2AE030E00E94C60A0E9428
:100F90008C072A960FB6F894DEBF0FBECDBFCF9157
:100FA000DF910895DF93CF93CDB7DEB72A970FB6C1
:100FB000F894DEBF0FBECDBFBE016F5F7F4F4AE02A
:100FC00050E00E94710A0E948C072A960FB6F8948E
:100FD000DEBF0FBECDBFCF91DF910895DF93CF93DA
:100FE000CDB7DEB72A970FB6F894DEBF0FBECDBFE0
:100FF000BE016F5F7F4F4AE050E00E94EB0A0E9403
:101000008C072A960FB6F894DEBF0FBECDBFCF91E6
:10101000DF91089587E689B910BC8CE00E941F0615
:1010200084ED0E941F068AE596E00E94570660E064
:1010300074E284EF90E00E94B40681E696E00E949C
:10104000570686E880BD88E08AB91CB886E696E037
:101050000E948C0789E696E00E948C0708951EB8CE
:1010600083E58DB91FB81DB8089583E58DB908953E
:101070001DB8089593E59DB98FB9779BFECF08956C
:1010800093E59DB98FB9779BFECF6FB9779BFECF64
:101090000895FC0193E506C031969DB980818FB912
:1010A000779BFECF80818823B9F708951FB8779B7F
:1010B000FECF80E00895482F6AE00E943E0A282F64
:1010C00030E084E0220F331F8A95E1F7842F0E94DD
:1010D0003E0A892F820F0895282F22952F709AE0BB
:1010E000299F900111248F70820F0895A09A94E493
:1010F00080E090FF02C0A89A01C0A8988F5F883056
:1011000011F09695F6CF0895A09A94E480E097FFA9
:1011100002C0A89A01C0A8988F5F883011F0990F7B
:10112000F6CF0895A09880E093B38F5F8830E1F701
:101130000895A09880E093B38F5F8830E1F7089519
:1011400040E050E00BC020E030E0000000002F5FE6
:101150003F4F24363105C9F74F5F5F4F4817590796
:1011600094F308959D990EC09C990CC088EC90E072
:101170000197F1F79D9B14C083B382958F70809582
:10118000817008959D9B0CC09C990AC088EC90E0EA
:101190000197F1F79D9904C09C9902C08FEF0895C3
:1011A00080E008959D990EC09C9B0CC088EC90E057
:1011B0000197F1F79D9914C083B382958F70809544
:1011C000817008959D9B0CC09C990AC088EC90E0AA
:1011D0000197F1F79D9904C09C9902C08FEF089583
:1011E00080E0089588EC90E0FC013197F1F7FC0174
:1011F0003197F1F70197F1F780E008950895089588
:1012000090E0AE9880FF02C0AF9A01C0AF98AE9A4E
:101210009F5F983011F08695F4CFAB9888EA92E002
:10122000FC013197F1F7AB9A0197F1F7089580E24D
:101230000E940009089581E60E94000908958AE04D
:101240000E94000908958AE90E94000908958CE02F
:101250000E94000908958CE90E940009089580E029
:101260000E940009089580E00E940009089590E01E
:10127000969880FF02C0C49A01C0C498969A9F5F56
:10128000983011F08695F4CF979888EA92E0FC01A7
:101290003197F1F7979A0197F1F7089580E80E9446
:1012A000370908958CEF0E943709089580E00E9465
:1012B0003709089580E00E943709089510920D07BC
:1012C000109212078299FECF20E040E253E004C062
:1012D0002F5FCA010197F1F7829BFACF2B50233081
:1012E00070F540E030E060E273E036958299FECF21
:1012F00020E004C02F5FCB010197F1F7829BFACF6A
:10130000263008F030644F5F473079F730930D078F
:1013100040E030E060E273E036958299FECF20E055
:1013200004C02F5FCB010197F1F7829BFACF2630E3
:1013300008F030614F5F453079F730931207089518
:1013400010920D07109212078299FECF20E040E222
:1013500053E004C02F5FCA010197F1F7829BFACFD7
:101360002B50233070F540E030E060E273E03695BA
:101370008299FECF20E004C02F5FCB010197F1F7E7
:10138000829BFACF263008F030644F5F473079F700
:1013900030930D0740E030E060E273E036958299CB
:1013A000FECF20E004C02F5FCB010197F1F7829BB5
:1013B000FACF263008F030614F5F483079F730932C
:1013C0001207089510920D07109212071092140739
:1013D0008299FECF20E040E253E004C02F5FCA01B3
:1013E0000197F1F7829BFACF2B50233008F045C0CC
:1013F00040E030E060E273E036958299FECF20E075
:1014000004C02F5FCB010197F1F7829BFACF263002
:1014100008F030644F5F473079F730930D0740E0B4
:1014200030E060E273E036958299FECF20E004C0A0
:101430002F5FCB010197F1F7829BFACF263008F09E
:1014400030614F5F453079F73093120740E030E06C
:1014500060E273E036958299FECF20E004C02F5FF2
:10146000CB010197F1F7829BFACF263008F030616B
:101470004F5F483079F7309314070895991B79E04E
:1014800004C0991F961708F0961B881F7A95C9F714
:101490008095089597FB092E07260AD077FD04D082
:1014A0000CD006D000201AF4709561957F4F0895F6
:1014B000F6F7909581959F4F0895AA1BBB1B51E1AC
:1014C00007C0AA1FBB1FA617B70710F0A61BB70BB4
:1014D000881F991F5A95A9F780959095BC01CD0159
:1014E0000895FB019F01E8944230C4F04532B4F402
:1014F0004A3029F497FB1EF4909581959F4F642FF5
:1015000077270E945D0A805D8A330CF0895D8193A4
:10151000CB010097A1F716F45DE251931082C90147
:101520000C94010BFA01CF93FF93EF93223044F117
:10153000253234F5C22FE894CA3049F497FB3EF4C3
:1015400090958095709561957F4F8F4F9F4F2C2F71
:10155000332744275527FF93EF930E94110BEF91F8
:10156000FF91605D6A330CF0695D6193B901CA0156
:10157000605070408040904051F716F4CDE2C19326
:1015800010828F919F91CF910C94010BFA01CF9310
:10159000FF93EF932230CCF02532BCF4C22F2C2FD6
:1015A000332744275527FF93EF930E94110BEF91A8
:1015B000FF91605D6A330CF0695D6193B901CA0106
:1015C000605070408040904051F710828F919F9101
:1015D000CF910C94010BFB019F01423074F0453216
:1015E00064F4642F77270E945D0A805D8A330CF0D3
:1015F000895D8193CB010097A1F71082C9010C94FA
:10160000010BDC01FC01672F71917723E1F7329721
:1016100004C07C916D9370836291AE17BF07C8F3CD
:101620000895A1E21A2EAA1BBB1BFD010DC0AA1F23
:10163000BB1FEE1FFF1FA217B307E407F50720F03B
:10164000A21BB30BE40BF50B661F771F881F991FB6
:101650001A9469F760957095809590959B01AC01FF
:0A166000BD01CF010895F894FFCFFB
:10166A005B5541525420494E464F5D203D3D3D3D1C
:10167A003D3D3D3D3D3D3D3D3D3D3D3D3D3D3D3D90
:10168A003D3D3D3D3D3D3D3D3D3D3D3D3D3D3D3D80
:10169A003D3D3D3D3D3D3D3D3D3D3D3D3D3D3D3D70
:1016AA003D0D0A005B5541525420494E464F5D207C
:1016BA0009417574686F727320616E642063726584
:1016CA0061746F72733A20502E5570696E6F76206E
:1016DA00616E6420502E53746F79616E6F760D0AB5
:1016EA00005B5541525420494E464F5D20094465DE
:1016FA0076696365206E616D653A2044696769742D
:10170A00616C20436F6E74726F6C20417564696FEF
:10171A002053797374656D0D0A005B55415254204C
:10172A00494E464F5D20094669726D7761726520A0
:10173A0076657273696F6E206265746120000D0AA6
:10174A00005B5541525420494E464F5D204461206A
:10175A00646F626176712075707261766C656E690C
:10176A0065206E613A09090909090D0A5B5541525A
:10177A005420494E464F5D202D2046414E20736D20
:10178A0061727420636F6E74726F6C6C696E670934
:10179A00090909090909090D0A5B554152542049E9
:1017AA004E464F5D202D20445331385332300909BB
:1017BA000909090909090909090D0A5B5541525420
:1017CA0020494E464F5D202D2052544309090909EC
:1017DA0009090909090909090D0A5B5541525420E9
:1017EA00494E464F5D202D204D656D6F72790D0A69
:1017FA00005B5541525420494E464F5D2054656D59
:10180A0070657261747572653A20002E3020430D3E
:10181A000A002E302043002B002D005B5541525404
:10182A00204552524F525D204552524F5220544544
:10183A004D50455241545552450D0A005B5541528F
:10184A005420494E464F5D2054454D50455241540F
:10185A005552452053454E534F52205249474854FA
:10186A003A2031302036442046342038462030325F
:10187A00203038203030204231200D0A005B55419B
:10188A00525420494E464F5D2054454D50455241D1
:10189A00545552452053454E534F52204C454654B9
:1018AA003A2031302044422030392041352030312D
:1018BA00203038203030204331200D0A00202020EB
:1018CA00205445504552415455524520202020006D
:1018DA004C454654202053454E534F523A20005B04
:1018EA005541525420494E464F5D20627974652015
:1018FA0000203A200052494748542053454E534F3E
:10190A00523A2000202020202020202020202020A1
:10191A0020445331387832300020202020416D7025
:10192A006C69666572204F666620202020005B5530
:10193A0041525420494E464F5D2054727920746FAB
:10194A0020737769746368206F66662072656C61BC
:10195A007973206F757420666F7220616C6C203603
:10196A00206368616E6E656C730D0A005B554152A7
:10197A005420494E464F5D2054727920746F20736B
:10198A007769746368206F66662072656C61797323
:10199A0020696E20666F7220616C6C203620636845
:1019AA00616E6E656C730D0A005B55415254204995
:1019BA004E464F5D2054727920746F207377697494
:1019CA006368206F66662072656C61797320666F42
:1019DA007220706F77657220323230560D0A005BC2
:1019EA005541525420494E464F5D2046616E20694A
:1019FA0073206F66660D0A005B5541525420494EAA
:101A0A00464F5D20446973706C6179206F66662069
:101A1A00616E6420737461747573206C6564206FE1
:101A2A006E0D0A005B5541525420494E464F5D20C7
:101A3A00416D706C69666572206973206F66660D08
:101A4A000A005B5541525420494E464F5D20416D74
:101A5A00706C69666572206973206F6E0D0A005B8F
:101A6A005541525420494E464F5D20446973706C6B
:101A7A006179206F6E20616E64207374617475736E
:101A8A00206C6564206F66660D0A002020202041C4
:101A9A006D706C69666572204F6E202020202000D0
:101AAA00502E5550494E4F562020502E53544F59C0
:101ABA00414E4F56005B5541525420494E464F5DA8
:101ACA002046616E206973206F6E0D0A005B5541D6
:101ADA00525420494E464F5D2046616E206973205C
:101AEA00616C77617973206F6E2C20697420697339
:101AFA006E27742073656E73697469766520746FD6
:101B0A002074656D70657261747572652C206265EA
:101B1A0063617573652044533138533230206973D9
:101B2A002064697361626C696E670D0A005B5541D6
:101B3A00525420494E464F5D2054727920746F20CA
:101B4A00737769746368206F6E2072656C6179734C
:101B5A0020666F7220706F77657220323230560DB0
:101B6A000A005B5541525420494E464F5D2054723B
:101B7A007920746F20737769746368206F6E20729E
:101B8A00656C61797320696E20666F7220616C6C76
:101B9A002036206368616E6E656C730D0A005B55B2
:101BAA0041525420494E464F5D2054727920746F39
:101BBA0020737769746368206F6E2072656C61792F
:101BCA0073206F757420666F7220616C6C203620EA
:101BDA006368616E6E656C730D0A00566F6C756D85
:101BEA00653A2000566F6C756D653A203000566F65
:101BFA006C756D653A203030005B5541525420496E
:101C0A004E464F5D20566F6C756D653A2000002870
:101C1A00323C46505A646E78828C96A0AAB4BEC8EA
:101C2A00D2D70E1B11111111111F0E1B11111111F7
:101C3A001F1F0E1B1111111F1F1F0E1B11111F1F1A
:101C4A001F1F0E1B111F1F1F1F1F0E1B1F1F1F1FD2
:101C5A001F1F0E1F1F1F1F1F1F1F467265713A206D
:101C6A0000204D487A000D0A005B55415254204924
:101C7A004E464F5D2053657269616C20506F7274D5
:101C8A002053657474696E6773202D2042617564F0
:101C9A0020726174653A20393630302C20446174E0
:101CAA006120626974733A203820626974732C2047
:101CBA0053746F7020626974733A203120626974B8
:101CCA002C205061726974793A204E6F6E652C200F
:101CDA00466C6F7720636F6E74726F6C3A204E6F2A
:101CEA006E65206F7220584F4E2F584F46460D0A88
:021CFA000000E8
:00000001FF
