:100000000C942A000C9466000C9470000C947A00F6
:100010000C9484000C948E000C9447000C944700C0
:100020000C9447000C9447000C9447000C94470034
:100030000C9447000C9447000C9447000C94470024
:100040000C9447000C9447000C9447000C94470014
:100050000C94470011241FBECFE5D8E0DEBFCDBF12
:1000600014E0A0E6B0E0EEE8F0E102C005900D92E9
:10007000A63DB107D9F714E0A6EDB4E001C01D928A
:10008000AC3EB107E1F70E944C020C9445080C9479
:1000900000008FEF8ABB1BBA88EB87BB87E088BB69
:1000A0008CEC84BB15BA80EF81BB8CE082BB0895D9
:1000B00082E080BF81E885BD13BC089581E885BDDD
:1000C00081E083BD089515BC13BC08951F920F9263
:1000D0000FB60F9211240F900FBE0F901F9018951E
:1000E0001F920F920FB60F9211240F900FBE0F9018
:1000F0001F9018951F920F920FB60F9211240F9018
:100100000FBE0F901F9018951F920F920FB60F926F
:1001100011240F900FBE0F901F9018951F920F92F1
:100120000FB60F9211240F900FBE0F901F901895CD
:100130000E9449000E941F040E94EA050E94920644
:100140000E9414050E9438070E945F0708950E94CC
:10015000B706882309F44FC08F3F41F58091D7043B
:10016000803811F48FE701C081508093D7049498B0
:100170008CE00E94F80384ED0E94F8038091D7047C
:1001800084361CF080E690E007C08A301CF089E6D7
:1001900090E002C083E790E00E9430048091D70491
:1001A000992787FD90950E94C5040895813019F51F
:1001B0008091D7048F5F8093D70494988CE00E943D
:1001C000F80384ED0E94F8038091D70484361CF074
:1001D00080E690E007C08A301CF089E690E002C01B
:1001E00083E790E00E9430048091D704992787FD2F
:1001F00090950E94C5040895E091D604F0E0E9537B
:10020000FD4F6081862F0E94FD0484ED0E94F8035B
:100210008091D6048A3018F080E690E002C089E62A
:1002200090E00E9430048091D60490E00E94C504C2
:100230008EE790E00E946C058091D60490E00E94C9
:10024000B20583E990E00E946C0508950E94B7060C
:100250008823E1F08F3F69F48091D604882319F454
:100260001092D60403C081508093D6040E94FC00F3
:100270000895813059F48091D604833110F083E1E0
:1002800001C08F5F8093D6040E94FC00089580E037
:100290000E94F80386E990E00E94300488E00E9402
:1002A000F8038BEA90E00E946C050E945B0788E5EA
:1002B0009BE120E931E0F9013197F1F70197D9F796
:1002C00089EE90E00E946C050E94340788E59BE16E
:1002D00020E931E0F9013197F1F70197D9F786E28A
:1002E00091E00E946C05AA980E9417048CE591E0A9
:1002F0000E946C05949A88E891E00E946C0508952C
:1003000086EA91E00E946C0583EC91E00E946C0506
:1003100094980E94170480E00E94F8038FEE91E009
:100320000E94300480EC0E94F80384E092E00E9476
:1003300030048CE00E94F80389E192E00E946C0591
:10034000AA9A80E49CE920E931E0F9013197F1F7BC
:100350000197D9F78EE492E00E946C050E94200775
:1003600088E59BE120E931E0F9013197F1F7019748
:10037000D9F78AE892E00E946C050E945707089519
:10038000CF93DF9387EE94E09093E4048093E304AB
:100390008091E7048C7F8093E704C0E9D1E0B199B4
:1003A00013C0E091E304F091E404808180FD0CC06F
:1003B000816080830E94800180E197E2FE01319795
:1003C000F1F70197D9F7EBCFB19913C0E091E304AE
:1003D000F091E404808180FF0CC08E7F80830E94B6
:1003E000470188E893E1FE013197F1F70197D9F7CA
:1003F000D6CFB29911C0E091E304F091E40480817A
:1004000080FF0AC00E94170488E893E1FE0131973B
:10041000F1F70197D9F7C3CF83990FC0E091E304B7
:10042000F091E404808180FF08C088E893E1FE0138
:100430003197F1F70197D9F7B2CFB2990FC0E09198
:10044000E304F091E404808180FD08C088E893E132
:10045000FE013197F1F70197D9F7A1CF83990FC02A
:10046000E091E304F091E404808180FD08C088E815
:1004700093E1FE013197F1F70197D9F790CFE09121
:10048000E304F091E404808180FF03C00E94260110
:1004900086CF0E94A70083CF0E9498007894949AF8
:1004A0000E94C001FDCF0E94610380EA0E946A039E
:1004B00080E00E946A0380E00E946A030E94610358
:1004C00081EA0E946A0380E00E94710380E00E943A
:1004D000710380E00E94710380E00E94710380E05C
:1004E0000E94710381E00E9471030E9467030895D6
:1004F0000E94610380EA0E946A0380E00E946A030E
:1005000080E00E946A0380E30E946A0381E30E9404
:100510006A0382E30E946A0383E30E946A0384E31E
:100520000E946A030E9467030895CF93DF930E949D
:10053000610380EA0E946A0380E00E946A0380E00F
:100540000E946A03C0E0D0E080E00E946A03219626
:100550008FE1CF3FD807C1F70E946703DF91CF91AA
:100560000895B89AC09880E897E00197F1F7B89895
:1005700080E491E00197F1F7B09B02C080E008951C
:1005800088E097E00197F1F781E00895B89AC09864
:1005900085E08A95F1F7B89880E48A95F1F786B3FB
:1005A00081700895B89AC0988111C09A88EB91E043
:1005B0000197F1F7B898C0980895CF92DF92EF9223
:1005C000FF921F93CF93DF9310E0C0E0D0E091E063
:1005D000C92ED12C80EEE82E81E0F82E0E94C602B2
:1005E000882341F0C6010C2E02C0880F991F0A947F
:1005F000E2F7182BC7010197F1F72196C830D10512
:1006000069F7812FDF91CF911F91FF90EF90DF90DD
:10061000CF9008950F931F93CF93DF93C0E0D0E066
:10062000082F10E0C8010C2E02C0959587950A94FA
:10063000E2F780FF02C081E001C080E00E94D202A8
:100640002196C830D10571F780EE91E00197F1F75E
:10065000DF91CF911F910F9108950E94C6028823C8
:10066000E1F30895CF93DF930E94B1028823E9F06C
:100670008CEC0E940A0384E40E940A030E942D036A
:100680000E94B102882389F08CEC0E940A038EEB51
:100690000E940A03C8EDD4E00E94DD02899384E041
:1006A000C13ED807C9F781E001C080E0DF91CF915A
:1006B000089582E180B981E081B984E086BF13B8F2
:1006C000089584EA86BF06B607FEFDCF089584E943
:1006D00086BF089583B984E886BF06B607FEFDCFBE
:1006E0000895882311F484EC01C084E886BF06B61F
:1006F00007FEFDCF83B1089590E0D99887FF02C02F
:10070000D89A01C0D898D99A9F5F983011F0880F75
:10071000F4CFDD98DC98DB9ADA9888EA92E0FC0165
:100720003197F1F7DA9A0197F1F7DB9880E991E0D8
:100730000197F1F70895CF93DF9340E050E0A8EAE6
:10074000B2E0C0E9D1E022C0FC01E40FF51FE08176
:1007500020E0D998E7FF02C0D89A01C0D898D99A6A
:100760002F5F283011F0EE0FF4CFDD9ADC98DB9A82
:10077000DA98FD013197F1F7DA9AFD013197F1F737
:10078000DB98FE013197F1F74F5F5F4F4617570730
:10079000DCF2DF91CF91089590E0D99887FF02C0F5
:1007A000D89A01C0D898D99A9F5F983011F0880FD5
:1007B000F4CFDD9ADC98DB9ADA9888EA92E0FC01C3
:1007C0003197F1F7DA9A0197F1F7DB9880E991E038
:1007D0000197F1F70895DB98DC98DD9A85ED982F65
:1007E0009A95F1F7DB9ADC98DD9A8A95F1F70895EE
:1007F00090E0D99887FF02C0D89A01C0D898D99ABA
:100800009F5F983011F0880FF4CFDD98DC98DB9A69
:10081000DA9888EA92E0FC013197F1F7DA9A0197C9
:10082000F1F7DB9880E991E00197F1F7089581E015
:100830000E94F80380EC92E10197F1F7089588E3B4
:100840000E94F80386E00E94F80382E00E94F80309
:1008500081E00E94F80380EC92E10197F1F708959E
:10086000FC0128EA32E040E951E01DC090E0D9984F
:1008700087FF02C0D89A01C0D898D99A9F5F983054
:1008800011F0880FF4CF3196DD9ADC98DB9ADA9874
:10089000C9010197F1F7DA9AC9010197F1F7DB98DD
:1008A000CA010197F1F78081882301F70895CF935A
:1008B000DF931092E9041092E80425C00896880F8F
:1008C000880F880F0E947C03C0E0D0E0E091E8042C
:1008D000F091E90483E0EE0FFF1F8A95E1F7EC0F3A
:1008E000FD1FE552FD4F80810E94CC032196C83048
:1008F000D10561F78091E8049091E9040196909305
:10090000E9048093E8048091E8049091E904873039
:100910009105A4F2DF91CF910895DF93CF93CDB7E6
:10092000DEB72A970FB6F894DEBF0FBECDBFAE017B
:100930004F5F5F4F2AE030E00E94C4070E943004FE
:100940002A960FB6F894DEBF0FBECDBFCF91DF91D0
:100950000895DF93CF93CDB7DEB72A970FB6F894FB
:10096000DEBF0FBECDBFAE014F5F5F4F2AE030E06C
:100970000E9490070E9430042A960FB6F894DEBFBA
:100980000FBECDBFCF91DF910895DF93CF93CDB749
:10099000DEB72A970FB6F894DEBF0FBECDBFBE01FB
:1009A0006F5F7F4F4AE050E00E946F070E94300463
:1009B0002A960FB6F894DEBF0FBECDBFCF91DF9160
:1009C0000895DF93CF93CDB7DEB72A970FB6F8948B
:1009D000DEBF0FBECDBFBE016F5F7F4F4AE050E06C
:1009E0000E94E9070E9430042A960FB6F894DEBFF1
:1009F0000FBECDBFCF91DF9108950F931F93182F96
:100A0000062FC3980E942006C39ADE98812F602F7C
:100A10000E942006DE9ADF98812F602F0E94200618
:100A2000DF9A1F910F9108950E940F06C39880E0EE
:100A300060E00E942006C39ADE9880E060E00E9499
:100A40002006DE9ADF9880E060E00E942006DF9AB0
:100A500008950E940F06C39880E060E00E9420067F
:100A6000C39ADE9880E060E00E942006DE9ADF985C
:100A700080E060E00E942006DF9A089510BC86E8BE
:100A800080BD88E98AB91CB80895AC0120E030E047
:100A900009C05D9BFECFFA01E20FF31F80818CB984
:100AA0002F5F3F4F26173707A4F308955D9BFECFB6
:100AB0008CB90895982F5D9BFECF892F82958F70FA
:100AC000805D8CB95D9BFECF9F70905D9CB9089551
:100AD0005D9BFECF8CB90895FC0104C05D9BFECFE9
:100AE00031968CB980818823C9F708955F9BFECF2A
:100AF0008CB10895DF93CF93CDB7DEB72A970FB6A9
:100B0000F894DEBF0FBECDBFAE014F5F5F4F2AE04E
:100B100030E00E9490070E946C052A960FB6F89468
:100B2000DEBF0FBECDBFCF91DF910895DF93CF938E
:100B3000CDB7DEB72A970FB6F894DEBF0FBECDBF94
:100B4000AE014F5F5F4F2AE030E00E94C4070E9471
:100B50006C052A960FB6F894DEBF0FBECDBFCF91BD
:100B6000DF910895DF93CF93CDB7DEB72A970FB605
:100B7000F894DEBF0FBECDBFBE016F5F7F4F4AE06E
:100B800050E00E946F070E946C052A960FB6F894F9
:100B9000DEBF0FBECDBFCF91DF910895DF93CF931E
:100BA000CDB7DEB72A970FB6F894DEBF0FBECDBF24
:100BB000BE016F5F7F4F4AE050E00E94E9070E944C
:100BC0006C052A960FB6F894DEBF0FBECDBFCF914D
:100BD000DF91089587E689B910BC8CE00E94F80384
:100BE00084ED0E94F80383E193E00E94300460E00A
:100BF00074E284EF90E00E948D048AE193E00E9409
:100C0000300486E880BD88E08AB91CB88FE193E0A3
:100C10000E946C0582E293E00E946C0508951EB864
:100C200083E58DB91FB81DB8089583E58DB9089582
:100C30001DB8089593E59DB98FB9779BFECF0895B0
:100C400093E59DB98FB9779BFECF6FB9779BFECFA8
:100C50000895FC0193E506C031969DB980818FB956
:100C6000779BFECF80818823B9F708951FB8779BC3
:100C7000FECF80E00895482F6AE00E946307282F86
:100C800030E084E0220F331F8A95E1F7842F0E9421
:100C90006307892F820F0895282F22952F709AE0DD
:100CA000299F900111248F70820F0895A09A94E4D7
:100CB00080E090FF02C0A89A01C0A8988F5F88309A
:100CC00011F09695F6CF0895A09A94E480E097FFEE
:100CD00002C0A89A01C0A8988F5F883011F0990FC0
:100CE000F6CF0895A09880E093B38F5F8830E1F746
:100CF0000895A09880E093B38F5F8830E1F708955E
:100D000040E050E00BC020E030E0000000002F5F2A
:100D10003F4F24363105C9F74F5F5F4F48175907DA
:100D200094F308950F931F9303EA13E0C8010E9400
:100D30006C0587EE93E00E946C0584E294E00E94CB
:100D40006C058DE594E00E946C0588E190E00E94BE
:100D5000B20581E894E00E946C05C8010E946C0510
:100D600084E894E00E946C051F910F9108959D996D
:100D70000EC09C990CC088EC90E00197F1F79D9B08
:100D800014C083B382958F708095817008959D9B68
:100D90000CC09C990AC088EC90E00197F1F79D99EE
:100DA00004C09C9902C08FEF089580E008959D993A
:100DB0000EC09C9B0CC088EC90E00197F1F79D99C8
:100DC00014C083B382958F708095817008959D9B28
:100DD0000CC09C990AC088EC90E00197F1F79D99AE
:100DE00004C09C9902C08FEF089580E0089588ECBC
:100DF00090E0FC013197F1F7FC013197F1F7019791
:100E0000F1F780E008950895089590E0AE9880FF8E
:100E100002C0AF9A01C0AF98AE9A9F5F983011F0B0
:100E20008695F4CFAB9888EA92E0FC013197F1F710
:100E3000AB9A0197F1F7089580E20E9405070895A3
:100E400081E60E94050708958AE00E94050708953B
:100E50008AE90E94050708958CE00E94050708951D
:100E60008CE90E940507089580E00E940507089517
:100E700080E00E940507089590E0969880FF02C0E8
:100E8000C49A01C0C498969A9F5F983011F08695D5
:100E9000F4CF979888EA92E0FC013197F1F7979A9E
:100EA0000197F1F7089580E80E943C0708958CEFC0
:100EB0000E943C07089580E00E943C07089580E06E
:100EC0000E943C070895991B79E004C0991F96176A
:100ED00008F0961B881F7A95C9F780950895FB0145
:100EE0009F01E8944230C4F04532B4F44A3029F40A
:100EF00097FB1EF4909581959F4F642F77270E9452
:100F00000F08805D8A330CF0895D8193CB010097D7
:100F1000A1F716F45DE251931082C9010C94FF070A
:100F2000FA01CF93FF93EF93223044F1253234F549
:100F3000C22FE894CA3049F497FB3EF4909580950F
:100F4000709561957F4F8F4F9F4F2C2F33274427EC
:100F50005527FF93EF930E942308EF91FF91605D67
:100F60006A330CF0695D6193B901CA016050704049
:100F70008040904051F716F4CDE2C19310828F91DA
:100F80009F91CF910C94FF07FA01CF93FF93EF93BA
:100F90002230CCF02532BCF4C22F2C2F332744272B
:100FA0005527FF93EF930E942308EF91FF91605D17
:100FB0006A330CF0695D6193B901CA0160507040F9
:100FC0008040904051F710828F919F91CF910C9467
:100FD000FF07FB019F01423074F0453264F4642F37
:100FE00077270E940F08805D8A330CF0895D81931A
:100FF000CB010097A1F71082C9010C94FF07DC0117
:10100000FC01672F71917723E1F7329704C07C913F
:101010006D9370836291AE17BF07C8F30895AA1B42
:10102000BB1B51E107C0AA1FBB1FA617B70710F0D3
:10103000A61BB70B881F991F5A95A9F78095909505
:10104000BC01CD010895A1E21A2EAA1BBB1BFD0114
:101050000DC0AA1FBB1FEE1FFF1FA217B307E40797
:10106000F50720F0A21BB30BE40BF50B661F771FEF
:10107000881F991F1A9469F76095709580959095CF
:0E1080009B01AC01BD01CF010895F894FFCF94
:10108E00566F6C756D653A2000566F6C756D653ACE
:10109E00203000566F6C756D653A203030005B5510
:1010AE0041525420494E464F5D20566F6C756D650A
:1010BE003A20000D0A0020202020416D706C6966D8
:1010CE006572204F666620202020005B55415254E9
:1010DE0020494E464F5D2054727920746F207377ED
:1010EE0069746368206F66662072656C617973201F
:1010FE006F757420666F7220616C6C203620636889
:10110E00616E6E656C730D0A005B55415254204939
:10111E004E464F5D2054727920746F207377697438
:10112E006368206F66662072656C61797320696EE4
:10113E0020666F7220616C6C2036206368616E6E63
:10114E00656C730D0A005B5541525420494E464F53
:10115E005D2054727920746F2073776974636820F0
:10116E006F66662072656C61797320666F7220708F
:10117E006F77657220323230560D0A005B55415240
:10118E005420494E464F5D20446973706C6179203E
:10119E006F666620616E6420737461747573206C63
:1011AE006564206F6E0D0A005B5541525420494E06
:1011BE00464F5D20416D706C6966657220697320C3
:1011CE006F66660D0A005B5541525420494E464FDC
:1011DE005D20416D706C69666572206973206F6E5B
:1011EE000D0A005B5541525420494E464F5D204436
:1011FE006973706C6179206F6E20616E64207374F8
:10120E0061747573206C6564206F66660D0A00202C
:10121E00202020416D706C69666572204F6E202013
:10122E0020202000502E5550494E4F562020502E33
:10123E0053544F59414E4F56005B5541525420491D
:10124E004E464F5D2054727920746F207377697407
:10125E006368206F6E2072656C61797320666F72A1
:10126E0020706F77657220323230560D0A005B5552
:10127E0041525420494E464F5D2054727920746F6E
:10128E0020737769746368206F6E2072656C617964
:10129E007320696E20666F7220616C6C203620633D
:1012AE0068616E6E656C730D0A005B554152542079
:1012BE00494E464F5D2054727920746F20737769C2
:1012CE00746368206F6E2072656C617973206F7520
:1012DE007420666F7220616C6C2036206368616EBC
:1012EE006E656C730D0A000028323C46505A646ECF
:1012FE0078828C96A0AAB4BEC8D2D70E1B1111113B
:10130E0011111F0E1B111111111F1F0E1B11111187
:10131E001F1F1F0E1B11111F1F1F1F0E1B111F1F23
:10132E001F1F1F0E1B1F1F1F1F1F1F0E1F1F1F1FE5
:10133E001F1F1F467265713A2000204D487A000D1E
:10134E000A005B554152542053657269616C2050FE
:10135E006F72742053657474696E67735D20426199
:10136E00756420726174653A20393630302C204411
:10137E0061746120626974733A20382062697473F3
:10138E002C2053746F7020626974733A203120627E
:10139E0069742C205061726974793A204E6F6E65B3
:1013AE002C20466C6F7720636F6E74726F6C3A20D0
:1013BE004E6F6E65206F7220584F4E2F584F464617
:1013CE000D0A005B5541525420494E464F5D203D5B
:1013DE003D3D3D3D3D3D3D3D3D3D3D3D3D3D3D3D2F
:1013EE003D3D3D3D3D3D3D3D3D3D3D3D3D3D3D3D1F
:1013FE003D3D3D3D3D3D3D3D3D3D3D3D3D3D3D3D0F
:10140E003D3D3D3D0D0A005B5541525420494E462F
:10141E004F5D2009417574686F727320616E642090
:10142E0063726561746F72733A20502E5570696ED7
:10143E006F7620616E6420502E53746F79616E6FDB
:10144E00760D0A005B5541525420494E464F5D20A1
:10145E0009446576696365206E616D653A2044695D
:10146E00676974616C20436F6E74726F6C20417586
:10147E0064696F2053797374656D0D0A005B554175
:10148E00525420494E464F5D20094669726D776170
:10149E0072652076657273696F6E20626574612065
:1014AE00000D0A005B5541525420494E464F5D20B7
:1014BE00446120646F626176712075707261766C22
:1014CE00656E6965206E613A0D0A2D2046414E0DFE
:1014DE000A2D20445331385332300D0A2D204952F3
:1014EE000D0A2D205254430D0A2D204D656D6F723D
:0614FE00790D0A0D0A0041
:00000001FF
