:100000000C942A000C9469050C9497000C94A100A0
:100010000C94AB000C94B5000C9447000C94470072
:100020000C9447000C9447000C9447000C94470034
:100030000C9447000C9447000C9447000C94470024
:100040000C9447000C9447000C9447000C94470014
:100050000C94470011241FBECFE5D8E0DEBFCDBF12
:1000600017E0A0E6B0E0E2E8F8E102C005900D92EA
:10007000A438B107D9F717E0A4E8B7E001C01D9292
:10008000AF3AB107E1F70E9494040C943F0C0C9432
:1000900000008FEF8ABB1BBA88EB87BB87E088BB69
:1000A0008CEC84BB15BA80EF81BB8CE082BB0895D9
:1000B00082E085BF089580E48BBF8ABF08951BBE90
:1000C00080E48ABF08950895089519BE1DBC1CBC24
:1000D000089582E080BF81E885BD13BC089581EA60
:1000E0008FBD81E08EBD1BBC80913F07E0E4F7E04F
:1000F000E80FF11D80818ABD08951FBC1EBC1BBC8A
:100100001ABC089581EA8FBD81E08EBD1BBC809131
:100110003F07E0E4F7E0E80FF11D80818ABD089514
:100120001FBC1EBC1BBC1ABC0895089508951F92E5
:100130000F920FB60F9211240F900FBE0F901F90C9
:1001400018951F920F920FB60F9211240F900FBEA9
:100150000F901F9018951F920F920FB60F921124B7
:100160000F900FBE0F901F9018951F920F920FB611
:100170000F9211240F900FBE0F901F9018950F93A0
:100180001F9300E610E0C8010E94B00884EA90E0E6
:100190000E94B00881EE90E00E94B0088AE191E0F0
:1001A0000E94B0088EE190E00E9403098EE391E086
:1001B0000E94B008C8010E94B00881E491E00E944A
:1001C000B0081F910F9108950E94490019BE1DBCEF
:1001D0001CBC0E946A070E94BA080E94BF000E94CD
:1001E0005F080E943F0A0E94660A08951F931091BB
:1001F000860780918707882361F5112379F485EFBD
:1002000091E00E94B00880E090E00E9403098FE036
:1002100092E00E94B00880E090E013C08BE192E091
:100220000E94B00885EF91E00E94B0081695812FDA
:1002300090E00E9403098FE092E00E94B008812FB5
:1002400090E00E94100886E192E00E947B0780E027
:100250001BC08F3FA1F4112391F08DE192E00E9429
:10026000B00885EF91E00E94B008812F90E08F5F89
:10027000904062E070E00E94560B162FD8CF8FE1BD
:1002800092E00E94B00881E01F910895CF93DF9320
:1002900080E492E00E94B0080E94FC05882309F4E3
:1002A0004DC085E50E94550680E10E9455068DE609
:1002B0000E94550684EF0E9455068FE80E9455065D
:1002C00082E00E94550688E00E94550680E00E9468
:1002D000550681EB0E94550684E40E9455060E9453
:1002E00078060E94FC05882349F185E50E945506A1
:1002F00080E10E9455068DE60E94550684EF0E941B
:1003000055068FE80E94550682E00E94550688E057
:100310000E94550680E00E94550681EB0E9455061A
:100320008EEB0E945506C6E8D7E00E942806899306
:1003300087E0CF38D807C9F781E001C080E0DF91BE
:10034000CF910895CF93DF9381E892E00E94B008A7
:100350000E94FC05882309F44DC085E50E945506DE
:1003600080E10E9455068BED0E94550689E00E94AF
:10037000550685EA0E94550681E00E94550688E0F0
:100380000E94550680E00E94550681EC0E945506A9
:1003900084E40E9455060E9478060E94FC0588238A
:1003A00049F185E50E94550680E10E9455068BEDD6
:1003B0000E94550689E00E94550685EA0E9455066E
:1003C00081E00E94550688E00E94550680E00E9468
:1003D000550681EC0E9455068EEB0E945506C6E834
:1003E000D7E00E942806899387E0CF38D807C9F75D
:1003F00081E001C080E0DF91CF910895CF93DF933A
:100400000E94620780E00E94430781EC92E00E9414
:100410007B0780EC0E94430786ED92E00E947B07F9
:100420000E94A201C0E0D0E085EE92E00E94B008F8
:10043000CE010E94030987EF92E00E94B008FE01FE
:10044000EA57F84F808190E00E9403098EE391E023
:100450000E94B0082196C930D10531F78091A307D9
:1004600060919F0740919E0720919B070E94F60094
:1004700084E90E9443078BEF92E00E947B070E9471
:100480004601C0E0D0E085EE92E00E94B008CE01C7
:100490000E94030987EF92E00E94B008FE01EA572C
:1004A000F84F808190E00E9403098EE391E00E9462
:1004B000B0082196C930D10531F78091A30760912A
:1004C0009F0740919E0720919B070E94F60084EDB4
:1004D0000E9443078AE093E00E947B07DF91CF915F
:1004E00008950E94BE09882309F44FC08F3F41F54B
:1004F00080919007803811F48FE701C0815080937C
:10050000900794988CE00E94430784ED0E94430773
:100510008091900784361CF08FE193E007C08A3009
:100520001CF088E293E002C082E393E00E947B0724
:1005300080919007992787FD90950E941008089553
:10054000813019F5809190078F5F80939007949880
:100550008CE00E94430784ED0E944307809190073E
:1005600084361CF08FE193E007C08A301CF088E2EB
:1005700093E002C082E393E00E947B0780919007A2
:10058000992787FD90950E9410080895E0918507AE
:10059000F0E0E55DF84F6081862F0E94480884ED09
:1005A0000E944307809185078A3018F08FE193E01D
:1005B00002C088E293E00E947B078091850790E06B
:1005C0000E9410088DE393E00E94B0088091850797
:1005D00090E00E9403098EE391E00E94B008089524
:1005E000E091A107F091A207808181FD0CC080916C
:1005F00085078093840710928507808182608083BD
:1006000082E593E00BC08091840780938507109268
:10061000840780818D7F808382E793E00E94B00809
:100620000E94C60208958F3F69F480918507882350
:1006300019F41092850703C08150809385070E94AA
:10064000C6020895813059F480918507833110F0F6
:1006500083E101C08F5F809385070E94C6020895E1
:100660000E94BE098823E1F08F3F69F480918507DD
:10067000882319F41092850703C081508093850761
:100680000E94C6020895813059F480918507833114
:1006900010F083E101C08F5F809385070E94C6023E
:1006A0000895E091A107F091A20780818E7F808359
:1006B00080E00E94430783E993E00E947B0788E083
:1006C0000E94430788EA93E00E94B0080E94620AF1
:1006D00088E59BE120E931E0F9013197F1F70197D5
:1006E000D9F786EE93E00E94B0080E943B0A88E5A5
:1006F0009BE120E931E0F9013197F1F70197D9F752
:1007000083E294E00E94B008AA9889E594E00E94F0
:10071000B0081FBC1EBC1BBC1ABC0E94620782E74B
:1007200094E00E94B008949A8EE994E00E94B00888
:1007300088E893E120E931E0F9013197F1F7019779
:10074000D9F70895E091A107F091A2078081816017
:1007500080838CEB94E00E94B00889ED94E00E94C5
:10076000B00894980E94620780E00E94430785E0E9
:1007700095E00E947B0780EC0E9443078AE195E0A8
:100780000E947B078CE00E9443078FE295E00E9465
:10079000B00887E495E00E94B00881E795E00E94E8
:1007A000B00887E080933F0781EA8FBD81E08EBD6E
:1007B0001BBC809147078ABD81ED95E00E94B0087F
:1007C000AA9A80E49CE920E931E0F9013197F1F738
:1007D0000197D9F786E096E00E94B0080E94270AA8
:1007E00088E59BE120E931E0F9013197F1F70197C4
:1007F000D9F782E496E00E94B0080E945E0A80E188
:1008000097E220E931E0F9013197F1F70197D9F743
:100810008FE796E00E94B00889EA96E00E94B0084F
:1008200081E080933F0791EA9FBD8EBD1BBC809104
:1008300041078ABD0895CF93DF9389EA97E09093AB
:10084000A2078093A1078091A9078C7F8093A907B5
:10085000C0E9D1E0B1990AC0E091A107F091A207E7
:10086000808180FD03C00E94A203F4CFB1990AC029
:10087000E091A107F091A207808180FF03C00E9450
:100880005103E8CFB29911C0E091A107F091A207FE
:10089000808180FF0AC00E94620788E893E1FE0120
:1008A0003197F1F70197D9F7D5CF83990FC0E09130
:1008B000A107F091A207808180FF08C088E893E13A
:1008C000FE013197F1F70197D9F7C4CFB2990FC064
:1008D000E091A107F091A207808180FD08C088E81F
:1008E00093E1FE013197F1F70197D9F7B3CF8399DF
:1008F00011C0E091A107F091A207808180FD0AC09C
:100900000E94FE0188E893E1FE013197F1F701971B
:10091000D9F7A0CFE091A107F091A207808180FFD5
:1009200099CF0E94300396CF0E94E40080E48BBFF1
:100930008ABF7894949A0E941B04FDCF0E946A0A91
:100940009091A507913029F48091A007853199F401
:1009500006C0943029F58091A0078D3099F4E0917C
:10096000A107F091A207808180FD03C00E94A2032D
:10097000A6C0913029F48091A0078531B1F406C05A
:10098000943071F48091A0078D3079F4E091A10743
:10099000F091A207808180FF03C00E9451038FC0A5
:1009A000913019F0943009F08AC02091A0072231CB
:1009B00049F4E091A107F091A207808180FF02C075
:1009C00081E00FC0913019F0943009F078C02331E4
:1009D00059F4E091A107F091A207808180FF04C043
:1009E0008FEF0E9413036BC0913019F0943009F01F
:1009F00066C0243151F4E091A107F091A2078081F3
:100A000080FF03C00E94F0025AC0943009F057C022
:100A1000223381F4E091A107F091A207808180FF49
:100A20004EC080913F07882319F410923F0714C0ED
:100A3000815010C02333B1F5E091A107F091A207D6
:100A4000808180FF3CC080913F07873010F087E0B5
:100A500001C08F5F80933F0784ED0E9443078BE1C5
:100A600097E00E947B0780913F0790E00E9410086A
:100A700086E297E00E947B07E0913F07F0E0E05CB0
:100A8000F84F808190E00E94100881EA8FBD81E0DC
:100A90008EBD1BBCE0913F07F0E0E05CF84F808129
:100AA0008ABD0DC0233259F40E94FE0180ED97E00B
:100AB00020E931E0F9013197F1F70197D9F780ED9D
:100AC00097E020E931E0F9013197F1F70197D9F783
:100AD00008951F920F920FB60F9211242F933F93F8
:100AE0004F935F936F937F938F939F93AF93BF9336
:100AF000EF93FF931BBE80E48ABF82990BC08AE00C
:100B0000982F9A95F1F7982F9A95F1F78A95F1F722
:100B10000E949E0480E48BBF8ABFFF91EF91BF913A
:100B2000AF919F918F917F916F915F914F913F9185
:100B30002F910F900FBE0F901F9018950E94AC063A
:100B400080EA0E94B50680E00E94B50680E00E941F
:100B5000B5060E94AC0681EA0E94B50680E00E94BC
:100B6000BC0680E00E94BC0680E00E94BC0680E0DB
:100B70000E94BC0680E00E94BC0681E00E94BC0688
:100B80000E94B20608950E94AC0680EA0E94B50653
:100B900080E00E94B50680E00E94B50680E30E94D6
:100BA000B50681E30E94B50682E30E94B50683E3A1
:100BB0000E94B50684E30E94B5060E94B20608951D
:100BC000CF93DF930E94AC0680EA0E94B50680E0D6
:100BD0000E94B50680E00E94B506C0E0D0E080E04B
:100BE0000E94B50621968FE1CF3FD807C1F70E943A
:100BF000B206DF91CF910895B89AC09880E897E047
:100C00000197F1F7B89880E491E00197F1F7B09B74
:100C100002C080E0089588E097E00197F1F781E055
:100C20000895B89AC09885E08A95F1F7B89880E45D
:100C30008A95F1F786B381700895B89AC0988111AA
:100C4000C09A88EB91E00197F1F7B898C0980895A1
:100C5000CF92DF92EF92FF921F93CF93DF9310E03A
:100C6000C0E0D0E091E0C92ED12C80EEE82E81E0EA
:100C7000F82E0E941106882341F0C6010C2E02C0F6
:100C8000880F991F0A94E2F7182BC7010197F1F713
:100C90002196C830D10569F7812FDF91CF911F913F
:100CA000FF90EF90DF90CF9008950F931F93CF9315
:100CB000DF93C0E0D0E0082F10E0C8010C2E02C086
:100CC000959587950A94E2F780FF02C081E001C004
:100CD00080E00E941D062196C830D10571F780EE94
:100CE00091E00197F1F7DF91CF911F910F91089556
:100CF0000E9411068823E1F30895CF93DF930E94A9
:100D0000FC058823E9F08CEC0E94550684E40E94DF
:100D100055060E9478060E94FC05882389F08CEC19
:100D20000E9455068EEB0E945506C1E9D7E00E944D
:100D30002806899387E0CA39D807C9F781E001C03E
:100D400080E0DF91CF91089582E180B981E081B99F
:100D500084E086BF13B8089584EA86BF06B607FE0E
:100D6000FDCF089584E986BF089583B984E886BFDE
:100D700006B607FEFDCF0895882311F484EC01C068
:100D800084E886BF06B607FEFDCF83B1089590E0E4
:100D9000D99887FF02C0D89A01C0D898D99A9F5F86
:100DA000983011F0880FF4CFDD98DC98DB9ADA9850
:100DB00088EA92E0FC013197F1F7DA9A0197F1F7AE
:100DC000DB9880E991E00197F1F70895CF93DF93E5
:100DD00040E050E0A8EAB2E0C0E9D1E022C0FC0166
:100DE000E40FF51FE08120E0D998E7FF02C0D89A10
:100DF00001C0D898D99A2F5F283011F0EE0FF4CFA8
:100E0000DD9ADC98DB9ADA98FD013197F1F7DA9AEE
:100E1000FD013197F1F7DB98FE013197F1F74F5F54
:100E20005F4F46175707DCF2DF91CF91089590E0AE
:100E3000D99887FF02C0D89A01C0D898D99A9F5FE5
:100E4000983011F0880FF4CFDD9ADC98DB9ADA98AD
:100E500088EA92E0FC013197F1F7DA9A0197F1F70D
:100E6000DB9880E991E00197F1F70895DB98DC9831
:100E7000DD9A85ED982F9A95F1F7DB9ADC98DD9A4B
:100E80008A95F1F7089590E0D99887FF02C0D89A23
:100E900001C0D898D99A9F5F983011F0880FF4CF8D
:100EA000DD98DC98DB9ADA9888EA92E0FC013197C9
:100EB000F1F7DA9A0197F1F7DB9880E991E0019771
:100EC000F1F7089581E00E94430780EC92E10197D9
:100ED000F1F7089588E30E94430786E00E944307E4
:100EE00082E00E94430781E00E94430780EC92E188
:100EF0000197F1F70895FC0128EA32E040E951E05A
:100F00001DC090E0D99887FF02C0D89A01C0D89838
:100F1000D99A9F5F983011F0880FF4CF3196DD9AFF
:100F2000DC98DB9ADA98C9010197F1F7DA9AC901DE
:100F30000197F1F7DB98CA010197F1F780818823C7
:100F400001F70895CF93DF931092AC071092AB078F
:100F500025C00896880F880F880F0E94C706C0E03A
:100F6000D0E0E091AB07F091AC0783E0EE0FFF1FFC
:100F70008A95E1F7EC0FFD1FE85BF84F80810E9436
:100F800017072196C830D10561F78091AB07909182
:100F9000AC0701969093AC078093AB078091AB07A9
:100FA0009091AC0787309105A4F2DF91CF9108951D
:100FB000DF93CF93CDB7DEB72A970FB6F894DEBF95
:100FC0000FBECDBFAE014F5F5F4F2AE030E00E9401
:100FD000D20B0E947B072A960FB6F894DEBF0FBE95
:100FE000CDBFCF91DF910895DF93CF93CDB7DEB71B
:100FF0002A970FB6F894DEBF0FBECDBFAE014F5F8C
:101000005F4F2AE030E00E949E0B0E947B072A96E9
:101010000FB6F894DEBF0FBECDBFCF91DF9108951C
:10102000DF93CF93CDB7DEB72A970FB6F894DEBF24
:101030000FBECDBFBE016F5F7F4F4AE050E00E9400
:101040007D0B0E947B072A960FB6F894DEBF0FBE79
:10105000CDBFCF91DF910895DF93CF93CDB7DEB7AA
:101060002A970FB6F894DEBF0FBECDBFBE016F5FEB
:101070007F4F4AE050E00E94F70B0E947B072A96C0
:101080000FB6F894DEBF0FBECDBFCF91DF910895AC
:101090000F931F93182F062FC3980E944C09C39AD1
:1010A000DE98812F602F0E944C09DE9ADF98812FF5
:1010B000602F0E944C09DF9A1F910F9108950E94A2
:1010C0003B09C39880E060E00E944C09C39ADE9817
:1010D00080E060E00E944C09DE9ADF9880E060E0EA
:1010E0000E944C09DF9A08950E943B09C39880E052
:1010F00060E00E944C09C39ADE9880E060E00E94A4
:101100004C09DE9ADF9880E060E00E944C09DF9A8B
:101110000895AC0120E030E009C05D9BFECFFA01EC
:10112000E20FF31F80818CB92F5F3F4F26173707DF
:10113000A4F308955D9BFECF8CB90895982F5D9B15
:10114000FECF892F82958F70805D8CB95D9BFECF1D
:101150009F70905D9CB908955D9BFECF8CB90895FA
:10116000FC0104C05D9BFECF31968CB98081882341
:10117000C9F7089587E689B910BC86E880BD88E084
:101180008AB91CB880E897E00E94B00808955F9B78
:10119000FECF8CB10895DF93CF93CDB7DEB72A97FA
:1011A0000FB6F894DEBF0FBECDBFAE014F5F5F4FED
:1011B0002AE030E00E949E0B0E94B0082A960FB6EB
:1011C000F894DEBF0FBECDBFCF91DF910895DF93BE
:1011D000CF93CDB7DEB72A970FB6F894DEBF0FBE18
:1011E000CDBFAE014F5F5F4F2AE030E00E94D20BCF
:1011F0000E94B0082A960FB6F894DEBF0FBECDBF8E
:10120000CF91DF910895DF93CF93CDB7DEB72A97C3
:101210000FB6F894DEBF0FBECDBFBE016F5F7F4F2C
:101220004AE050E00E947D0B0E94B0082A960FB65B
:10123000F894DEBF0FBECDBFCF91DF910895DF934D
:10124000CF93CDB7DEB72A970FB6F894DEBF0FBEA7
:10125000CDBFBE016F5F7F4F4AE050E00E94F70BA9
:101260000E94B0082A960FB6F894DEBF0FBECDBF1D
:10127000CF91DF9108951EB883E58DB91FB81DB8D1
:10128000089583E58DB908951DB8089593E59DB936
:101290008FB9779BFECF089593E59DB98FB9779B62
:1012A000FECF6FB9779BFECF0895FC0193E506C092
:1012B00031969DB980818FB9779BFECF808188233D
:1012C000B9F708951FB8779BFECF80E00895482FA7
:1012D0006AE00E944A0B282F30E084E0220F331F7F
:1012E0008A95E1F7842F0E944A0B892F820F089577
:1012F000282F22952F709AE0299F900111248F703A
:10130000820F0895A09A94E480E090FF02C0A89A0A
:1013100001C0A8988F5F883011F09695F6CF089598
:10132000A09A94E480E097FF02C0A89A01C0A89810
:101330008F5F883011F0990FF6CF0895A09880E064
:1013400093B38F5F8830E1F70895A09880E093B35E
:101350008F5F8830E1F7089540E050E00BC020E057
:1013600030E0000000002F5F3F4F24363105C9F701
:101370004F5F5F4F4817590794F308959D990EC02A
:101380009C990CC088EC90E00197F1F79D9B14C0EC
:1013900083B382958F708095817008959D9B0CC05A
:1013A0009C990AC088EC90E00197F1F79D9904C0E0
:1013B0009C9902C08FEF089580E008959D990EC01A
:1013C0009C9B0CC088EC90E00197F1F79D9914C0AC
:1013D00083B382958F708095817008959D9B0CC01A
:1013E0009C990AC088EC90E00197F1F79D9904C0A0
:1013F0009C9902C08FEF089580E0089588EC90E0FA
:10140000FC013197F1F7FC013197F1F70197F1F702
:1014100080E008950895089590E0AE9880FF02C09E
:10142000AF9A01C0AF98AE9A9F5F983011F0869541
:10143000F4CFAB9888EA92E0FC013197F1F7AB9AD0
:101440000197F1F7089580E20E940C0A089581E661
:101450000E940C0A08958AE00E940C0A08958AE905
:101460000E940C0A08958CE00E940C0A08958CE9F1
:101470000E940C0A089580E00E940C0A089580E002
:101480000E940C0A089590E0969880FF02C0C49ACA
:1014900001C0C498969A9F5F983011F08695F4CF5A
:1014A000979888EA92E0FC013197F1F7979A0197B3
:1014B000F1F7089580E80E94430A08958CEF0E9496
:1014C000430A089580E00E94430A089580E00E9444
:1014D000430A08951092A0071092A5078299FECFA3
:1014E00020E040E253E004C02F5FCA010197F1F70A
:1014F000829BFACF2B50233070F540E030E060E261
:1015000073E036958299FECF20E004C02F5FCB01B7
:101510000197F1F7829BFACF263008F030644F5FD5
:10152000473079F73093A00740E030E060E273E0A5
:1015300036958299FECF20E004C02F5FCB01019742
:10154000F1F7829BFACF263008F030614F5F4530CB
:1015500079F73093A50708951092A0071092A50778
:101560008299FECF20E040E253E004C02F5FCA0121
:101570000197F1F7829BFACF2B50233070F540E0B2
:1015800030E060E273E036958299FECF20E004C03F
:101590002F5FCB010197F1F7829BFACF263008F03D
:1015A00030644F5F473079F73093A00740E030E078
:1015B00060E273E036958299FECF20E004C02F5F91
:1015C000CB010197F1F7829BFACF263008F030610A
:1015D0004F5F483079F73093A50708951092A00720
:1015E0001092A5071092A7078299FECF20E040E253
:1015F00053E004C02F5FCA010197F1F7829BFACF35
:101600002B50233008F045C040E030E060E273E04A
:1016100036958299FECF20E004C02F5FCB01019761
:10162000F1F7829BFACF263008F030644F5F4730E5
:1016300079F73093A00740E030E060E273E0369540
:101640008299FECF20E004C02F5FCB010197F1F714
:10165000829BFACF263008F030614F5F453079F732
:101660003093A50740E030E060E273E03695829960
:10167000FECF20E004C02F5FCB010197F1F7829BE2
:10168000FACF263008F030614F5F483079F7309359
:10169000A7070895991B79E004C0991F961708F0D1
:1016A000961B881F7A95C9F78095089597FB092E98
:1016B00007260AD077FD04D00CD006D000201AF4FB
:1016C000709561957F4F0895F6F7909581959F4F9E
:1016D0000895AA1BBB1B51E107C0AA1FBB1FA61779
:1016E000B70710F0A61BB70B881F991F5A95A9F7CB
:1016F00080959095BC01CD010895FB019F01E89470
:101700004230C4F04532B4F44A3029F497FB1EF459
:10171000909581959F4F642F77270E94690B805D7C
:101720008A330CF0895D8193CB010097A1F716F401
:101730005DE251931082C9010C940D0CFA01CF9314
:10174000FF93EF93223044F1253234F5C22FE89411
:10175000CA3049F497FB3EF4909580957095619559
:101760007F4F8F4F9F4F2C2F332744275527FF93B1
:10177000EF930E941D0CEF91FF91605D6A330CF0B6
:10178000695D6193B901CA0160507040804090402A
:1017900051F716F4CDE2C19310828F919F91CF91B2
:1017A0000C940D0CFA01CF93FF93EF932230CCF001
:1017B0002532BCF4C22F2C2F332744275527FF9303
:1017C000EF930E941D0CEF91FF91605D6A330CF066
:1017D000695D6193B901CA016050704080409040DA
:1017E00051F710828F919F91CF910C940D0CFB01BA
:1017F0009F01423074F0453264F4642F77270E94D1
:10180000690B805D8A330CF0895D8193CB01009771
:10181000A1F71082C9010C940D0CDC01FC01672FAB
:1018200071917723E1F7329704C07C916D937083B7
:101830006291AE17BF07C8F30895A1E21A2EAA1B42
:10184000BB1BFD010DC0AA1FBB1FEE1FFF1FA21770
:10185000B307E407F50720F0A21BB30BE40BF50B6D
:10186000661F771F881F991F1A9469F760957095F6
:10187000809590959B01AC01BD01CF010895F8942E
:02188000FFCF98
:101882005B5541525420494E464F5D203D3D3D3D02
:101892003D3D3D3D3D3D3D3D3D3D3D3D3D3D3D3D76
:1018A2003D3D3D3D3D3D3D3D3D3D3D3D3D3D3D3D66
:1018B2003D3D3D3D3D3D3D3D3D3D3D3D3D3D3D3D56
:1018C2003D0D0A005B5541525420494E464F5D2062
:1018D20009417574686F727320616E64206372656A
:1018E20061746F72733A20502E5570696E6F762054
:1018F200616E6420502E53746F79616E6F760D0A9B
:10190200005B5541525420494E464F5D20094465C3
:1019120076696365206E616D653A20446967697412
:10192200616C20436F6E74726F6C20417564696FD5
:101932002053797374656D0D0A005B554152542032
:10194200494E464F5D20094669726D776172652086
:1019520076657273696F6E206265746120000D0A8C
:10196200005B5541525420494E464F5D2044612050
:10197200646F626176712075707261766C656E69F2
:1019820065206E613A0909090909090D0A5B554189
:10199200525420494E464F5D202D2046414E207321
:1019A2006D61727420636F6E74726F6C6C696E67B6
:1019B2000909090909090909090D0A5B5541525426
:1019C20020494E464F5D202D20445331385332304A
:1019D2000909090909090909090909090D0A5B55D2
:1019E20041525420494E464F5D202D205254430906
:1019F2000909090909090909090909090D0A5B55B2
:101A020041525420494E464F5D202D204D656D6F49
:101A120072790D0A005B5541525420494E464F5D82
:101A22002054656D70657261747572653A20002E7E
:101A32003020430D0A002E302043002B002D005B86
:101A420055415254204552524F525D204552524FF9
:101A5200522054454D50455241545552450D0A00AD
:101A62005B5541525420494E464F5D2054454D50DE
:101A7200455241545552452053454E534F522052E0
:101A8200494748543A2031302036442046342038E1
:101A920046203032203038203030204231200D0AAA
:101AA200005B5541525420494E464F5D2054454DEE
:101AB20050455241545552452053454E534F5220A2
:101AC2004C4546543A20313020444220303920419E
:101AD20035203031203038203030204331200D0A7B
:101AE20000202020202054454D4552415455524556
:101AF2002020202020004C454654202053454E53A0
:101B02004F523A20005B5541525420494E464F5D98
:101B120020627974652000203A20005249474854D7
:101B22002053454E534F523A20002020202020209F
:101B32002020202020202044533138783230005693
:101B42006F6C756D653A2000566F6C756D653A2045
:101B52003000566F6C756D653A203030005B554130
:101B6200525420494E464F5D20566F6C756D653A52
:101B720020005B5541525420494E464F5D20566F1E
:101B82006C756D65206D757465206973206F6E0DBF
:101B92000A005B5541525420494E464F5D20566F14
:101BA2006C756D65206D757465206973206F66664E
:101BB2000D0A0020202020416D706C69666572203C
:101BC2004F666620202020005B5541525420494E2A
:101BD200464F5D2054727920746F20737769746365
:101BE20068206F66662072656C617973206F757408
:101BF20020666F7220616C6C2036206368616E6EA5
:101C0200656C730D0A005B5541525420494E464F94
:101C12005D2054727920746F207377697463682031
:101C22006F66662072656C61797320696E20666FDB
:101C32007220616C6C2036206368616E6E656C7315
:101C42000D0A005B5541525420494E464F5D2054C7
:101C5200727920746F20737769746368206F666687
:101C62002072656C61797320666F7220706F776580
:101C72007220323230560D0A005B554152542049CF
:101C82004E464F5D2046616E206973206F66660D79
:101C92000A005B5541525420494E464F5D2044692B
:101CA20073706C6179206F666620616E6420737454
:101CB20061747573206C6564206F6E0D0A005B554C
:101CC20041525420494E464F5D20416D706C696609
:101CD2006572206973206F66660D0A005B5541527A
:101CE2005420494E464F5D20416D706C69666572A5
:101CF200206973206F6E0D0A005B554152542049D2
:101D02004E464F5D20446973706C6179206F6E207E
:101D1200616E6420737461747573206C6564206FE6
:101D220066660D0A0020202020416D706C69666590
:101D320072204F6E202020202000502E5550494EF8
:101D42004F562020502E53544F59414E4F56005B50
:101D52005541525420494E464F5D2046616E2069DE
:101D620073206F6E0D0A005B5541525420494E4656
:101D72004F5D2046616E20726F746174696F6E20D0
:101D820077697468206D61782073706565640D0AE7
:101D9200005B5541525420494E464F5D2046616ECC
:101DA20020697320616C77617973206F6E2C2069D2
:101DB200742069736E27742073656E736974697613
:101DC2006520746F2074656D7065726174757265DB
:101DD2002C20626563617573652044533138533238
:101DE200302069732064697361626C696E670D0AE1
:101DF200005B5541525420494E464F5D2054727942
:101E020020746F20737769746368206F6E20726527
:101E12006C61797320666F7220706F776572203201
:101E22003230560D0A005B5541525420494E464FFE
:101E32005D2054727920746F20737769746368200F
:101E42006F6E2072656C61797320696E20666F72A5
:101E520020616C6C2036206368616E6E656C730D58
:101E62000A005B5541525420494E464F5D20547240
:101E72007920746F20737769746368206F6E2072A3
:101E8200656C617973206F757420666F7220616C66
:101E92006C2036206368616E6E656C730D0A005BA0
:101EA2005541525420494E464F5D2046616E207284
:101EB2006F746174696F6E2077697468206D696EE2
:101EC2002073706565640D0A005B554152542049C8
:101ED2004E464F5D2046616E206D616E75616C20CD
:101EE200636F6E74726F6C6C696E67207769746869
:101EF2002072656D6F7465206D656E75207570203A
:101F0200746F2073706565642073746570207570DA
:101F120020616E64206D656E7520646F776E20623D
:101F22007574746F6E20746F2073706565642073AE
:101F320074657020646F776E0D0A0046616E2053DF
:101F42007465703A2000206F7220000028323C46EF
:101F5200505A646E78828C96A0AAB4BEC8D2D701B9
:101F620000647D96AFC8E1FA0E1B11111111111F09
:101F72000E1B111111111F1F0E1B1111111F1F1FFB
:101F82000E1B11111F1F1F1F0E1B111F1F1F1F1FB3
:101F92000E1B1F1F1F1F1F1F0E1F1F1F1F1F1F1F75
:041FA2000D0A000024
:00000001FF
