:100000000C942A000C9435050C9497000C94A100D4
:100010000C94AB000C94B5000C9447000C94470072
:100020000C9447000C9447000C9447000C94470034
:100030000C9447000C9447000C9447000C94470024
:100040000C9447000C9447000C9447000C94470014
:100050000C94470011241FBECFE5D8E0DEBFCDBF12
:1000600017E0A0E6B0E0EAE1F8E102C005900D92E9
:10007000A439B107D9F717E0A4E9B7E001C01D9290
:10008000AF3BB107E1F70E9460040C940B0C0C9499
:1000900000008FEF8ABB1BBA88EB87BB87E088BB69
:1000A0008CEC84BB15BA80EF81BB8CE082BB0895D9
:1000B00082E085BF089580E48BBF8ABF08951BBE90
:1000C00080E48ABF08950895089519BE1DBC1CBC24
:1000D000089582E080BF81E885BD13BC089581EA60
:1000E0008FBD81E08EBD1BBC80914F07E0E5F7E03E
:1000F000E80FF11D80818ABD08951FBC1EBC1BBC8A
:100100001ABC089581EA8FBD81E08EBD1BBC809131
:100110004F07E0E5F7E0E80FF11D80818ABD089503
:100120001FBC1EBC1BBC1ABC0895089508951F92E5
:100130000F920FB60F9211240F900FBE0F901F90C9
:1001400018951F920F920FB60F9211240F900FBEA9
:100150000F901F9018951F920F920FB60F921124B7
:100160000F900FBE0F901F9018951F920F920FB611
:100170000F9211240F900FBE0F901F9018950F93A0
:100180001F9300E610E0C8010E947C0884EA90E01A
:100190000E947C0881EE90E00E947C088AE191E058
:1001A0000E947C088FE190E00E94CF088EE391E0EE
:1001B0000E947C08C8010E947C0881E491E00E94B2
:1001C0007C081F910F9108950E94490019BE1DBC23
:1001D0001CBC0E9436070E9486080E94BF000E9435
:1001E0002B080E940B0A0E94320A08951F93109157
:1001F000960780919707882361F5112379F485EF9D
:1002000091E00E947C0880E090E00E94CF088FE09F
:1002100092E00E947C0880E090E013C08BE192E0C5
:100220000E947C0885EF91E00E947C081695812F42
:1002300090E00E94CF088FE092E00E947C08812F1E
:1002400090E00E94DC0786E192E00E94470780E090
:100250001BC08F3FA1F4112391F08DE192E00E9429
:100260007C0885EF91E00E947C08812F90E08F5FF1
:10027000904062E070E00E94220B162FD8CF8FE1F1
:1002800092E00E947C0881E01F9108950F931F93D4
:10029000CF93DF9380E492E00E947C080E94C8051F
:1002A000882381F185E50E94210607E417E0E80133
:1002B00089910E94210687E0CF34D807C9F784E4EA
:1002C0000E9421060E9444060E94C8058823D1F09E
:1002D00085E50E942106F80181918F010E94210687
:1002E000F7E00F341F07B9F78EEB0E942106C6E92D
:1002F000D7E00E94F405899387E0CF39D807C9F782
:1003000081E001C080E0DF91CF911F910F910895AE
:100310000F931F93CF93DF9381E892E00E947C08B4
:100320000E94C805882381F185E50E9421060FE31C
:1003300017E0E80189910E94210687E0C734D807B9
:10034000C9F784E40E9421060E9444060E94C80561
:100350008823D1F085E50E942106F80181918F0163
:100360000E942106F7E007341F07B9F78EEB0E94C1
:100370002106C6E9D7E00E94F405899387E0CF39CA
:10038000D807C9F781E001C080E0DF91CF911F91CC
:100390000F910895CF93DF930E942E0780E00E9473
:1003A0000F0781EC92E00E94470780EC0E940F0744
:1003B00086ED92E00E9447070E948801C0E0D0E0ED
:1003C00085EE92E00E947C08CE010E94CF0887EF64
:1003D00092E00E947C08FE01EA56F84F808190E08E
:1003E0000E94CF088EE391E00E947C082196C930DC
:1003F000D10531F78091B3076091AF074091AE0707
:100400002091AB070E94F60084E90E940F078BEF52
:1004100092E00E9447070E944601C0E0D0E085EECE
:1004200092E00E947C08CE010E94CF0887EF92E004
:100430000E947C08FE01EA56F84F808190E00E94FD
:10044000CF088EE391E00E947C082196C930D10547
:1004500031F78091B3076091AF074091AE072091CB
:10046000AB070E94F60084ED0E940F078AE093E03C
:100470000E944707DF91CF9108950E948A0988233F
:1004800009F44FC08F3F41F58091A007803811F4E7
:100490008FE701C081508093A00794988CE00E9460
:1004A0000F0784ED0E940F078091A00784361CF08F
:1004B0008FE193E007C08A301CF088E293E002C02D
:1004C00082E393E00E9447078091A007992787FD68
:1004D00090950E94DC070895813019F58091A0075E
:1004E0008F5F8093A00794988CE00E940F0784EDA3
:1004F0000E940F078091A00784361CF08FE193E0E3
:1005000007C08A301CF088E293E002C082E393E0E7
:100510000E9447078091A007992787FD90950E9428
:10052000DC070895E0919507F0E0E55DF84F608104
:10053000862F0E94140884ED0E940F078091950772
:100540008A3018F08FE193E002C088E293E00E94C5
:1005500047078091950790E00E94DC078DE393E0C8
:100560000E947C088091950790E00E94CF088EE35E
:1005700091E00E947C080895E091B107F091B207E4
:10058000808181FD0CC08091950780939407109223
:10059000950780818260808382E593E00BC0809123
:1005A0009407809395071092940780818D7F8083B4
:1005B00082E793E00E947C080E94920208958F3F98
:1005C00069F480919507882319F41092950703C068
:1005D0008150809395070E9492020895813059F4CA
:1005E00080919507833110F083E101C08F5F809384
:1005F00095070E94920208950E948A098823E1F0DB
:100600008F3F69F480919507882319F4109295071C
:1006100003C08150809395070E9492020895813013
:1006200059F480919507833110F083E101C08F5F09
:10063000809395070E9492020895E091B107F0918E
:10064000B20780818E7F808380E00E940F0783E95C
:1006500093E00E94470788E00E940F0788EA93E032
:100660000E947C080E942E0A88E59BE120E931E087
:10067000F9013197F1F70197D9F786EE93E00E94DF
:100680007C080E94070A88E59BE120E931E0F90136
:100690003197F1F70197D9F783E294E00E947C0843
:1006A000AA9889E594E00E947C081FBC1EBC1BBC74
:1006B0001ABC0E942E0782E794E00E947C08949A5C
:1006C0008EE994E00E947C0888E893E120E931E01B
:1006D000F9013197F1F70197D9F70895E091B10742
:1006E000F091B2078081816080838CEB94E00E945E
:1006F0007C0889ED94E00E947C0894980E942E0763
:1007000080E00E940F0785E095E00E94470780EC9B
:100710000E940F078AE195E00E9447078CE00E9443
:100720000F078FE295E00E947C0887E495E00E9425
:100730007C0881E795E00E947C0887E080934F0762
:1007400081EA8FBD81E08EBD1BBC809157078ABDB9
:1007500081ED95E00E947C08AA9A80E49CE920E95A
:1007600031E0F9013197F1F70197D9F786E096E08A
:100770000E947C080E94F30988E59BE120E931E0B2
:10078000F9013197F1F70197D9F782E496E00E94D9
:100790007C080E942A0A80E197E220E931E0F90111
:1007A0003197F1F70197D9F78FE796E00E947C081F
:1007B00089EA96E00E947C0881E080934F0791EAE5
:1007C0009FBD8EBD1BBC809151078ABD0895CF93FC
:1007D000DF9389EB97E09093B2078093B107809104
:1007E000B9078C7F8093B907C0E9D1E0B1990AC0FD
:1007F000E091B107F091B207808180FD03C00E94B3
:100800006E03F4CFB1990AC0E091B107F091B2073D
:10081000808180FF03C00E941D03E8CFB29911C000
:10082000E091B107F091B207808180FF0AC00E9479
:100830002E0788E893E1FE013197F1F70197D9F788
:10084000D5CF83990FC0E091B107F091B2078081B5
:1008500080FF08C088E893E1FE013197F1F7019726
:10086000D9F7C4CFB2990FC0E091B107F091B207A8
:10087000808180FD08C088E893E1FE013197F1F79F
:100880000197D9F7B3CF839911C0E091B107F091E7
:10089000B207808180FD0AC00E94CA0188E893E106
:1008A000FE013197F1F70197D9F7A0CFE091B10799
:1008B000F091B207808180FF99CF0E94FC0296CF11
:1008C0000E94E40080E48BBF8ABF7894949A0E94CF
:1008D000E703FDCF0E94360A9091B507913029F4C5
:1008E0008091B007853199F406C0943029F5809144
:1008F000B0078D3099F4E091B107F091B207808193
:1009000080FD03C00E946E03A6C0913029F480913F
:10091000B0078531B1F406C0943071F48091B0070E
:100920008D3079F4E091B107F091B207808180FFBA
:1009300003C00E941D038FC0913019F0943009F05C
:100940008AC02091B007223149F4E091B107F091BB
:10095000B207808180FF02C081E00FC0913019F0A2
:10096000943009F078C0233159F4E091B107F09147
:10097000B207808180FF04C08FEF0E94DF026BC04E
:10098000913019F0943009F066C0243151F4E091AF
:10099000B107F091B207808180FF03C00E94BC02C2
:1009A0005AC0943009F057C0223381F4E091B10766
:1009B000F091B207808180FF4EC080914F0788235D
:1009C00019F410924F0714C0815010C02333B1F5B1
:1009D000E091B107F091B207808180FF3CC0809127
:1009E0004F07873010F087E001C08F5F80934F077B
:1009F00084ED0E940F078BE197E00E9447078091EA
:100A00004F0790E00E94DC0786E297E00E944707CC
:100A1000E0914F07F0E0E05BF84F808190E00E94AA
:100A2000DC0781EA8FBD81E08EBD1BBCE0914F07E2
:100A3000F0E0E05BF84F80818ABD0DC0233259F4AD
:100A40000E94CA0180ED97E020E931E0F901319779
:100A5000F1F70197D9F780ED97E020E931E0F9014E
:100A60003197F1F70197D9F708951F920F920FB6BA
:100A70000F9211242F933F934F935F936F937F9324
:100A80008F939F93AF93BF93EF93FF931BBE80E42D
:100A90008ABF82990BC08AE0982F9A95F1F7982F18
:100AA0009A95F1F78A95F1F70E946A0480E48BBF6A
:100AB0008ABFFF91EF91BF91AF919F918F917F91ED
:100AC0006F915F914F913F912F910F900FBE0F90BB
:100AD0001F9018950E94780680EA0E94810680E0A7
:100AE0000E94810680E00E9481060E94780681EAC9
:100AF0000E94810680E00E94880680E00E948806AD
:100B000080E00E94880680E00E94880680E00E94C3
:100B1000880681E00E9488060E947E0608950E9451
:100B2000780680EA0E94810680E00E94810680E0CB
:100B30000E94810680E30E94810681E30E94810673
:100B400082E30E94810683E30E94810684E30E947F
:100B500081060E947E060895CF93DF930E94780657
:100B600080EA0E94810680E00E94810680E00E9467
:100B70008106C0E0D0E080E00E94810621968FE1EE
:100B8000CF3FD807C1F70E947E06DF91CF9108952D
:100B9000B89AC09880E897E00197F1F7B89880E498
:100BA00091E00197F1F7B09B02C080E0089588E0E2
:100BB00097E00197F1F781E00895B89AC09885E031
:100BC0008A95F1F7B89880E48A95F1F786B3817039
:100BD0000895B89AC0988111C09A88EB91E0019766
:100BE000F1F7B898C0980895CF92DF92EF92FF92F4
:100BF0001F93CF93DF9310E0C0E0D0E091E0C92EC7
:100C0000D12C80EEE82E81E0F82E0E94DD058823AD
:100C100041F0C6010C2E02C0880F991F0A94E2F71A
:100C2000182BC7010197F1F72196C830D10569F754
:100C3000812FDF91CF911F91FF90EF90DF90CF90A8
:100C400008950F931F93CF93DF93C0E0D0E0082F58
:100C500010E0C8010C2E02C0959587950A94E2F722
:100C600080FF02C081E001C080E00E94E90521967A
:100C7000C830D10571F780EE91E00197F1F7DF916F
:100C8000CF911F910F9108950E94DD058823E1F314
:100C90000895CF93DF930E94C8058823E9F08CEC78
:100CA0000E94210684E40E9421060E9444060E94BC
:100CB000C805882389F08CEC0E9421068EEB0E94E7
:100CC0002106C1EAD7E00E94F405899387E0CA3A79
:100CD000D807C9F781E001C080E0DF91CF91089586
:100CE00082E180B981E081B984E086BF13B80895BC
:100CF00084EA86BF06B607FEFDCF089584E986BF65
:100D0000089583B984E886BF06B607FEFDCF08952F
:100D1000882311F484EC01C084E886BF06B607FE80
:100D2000FDCF83B1089590E0D99887FF02C0D89A8B
:100D300001C0D898D99A9F5F983011F0880FF4CFEE
:100D4000DD98DC98DB9ADA9888EA92E0FC0131972A
:100D5000F1F7DA9A0197F1F7DB9880E991E00197D2
:100D6000F1F70895CF93DF9340E050E0A8EAB2E0B6
:100D7000C0E9D1E022C0FC01E40FF51FE08120E0D2
:100D8000D998E7FF02C0D89A01C0D898D99A2F5FA6
:100D9000283011F0EE0FF4CFDD9ADC98DB9ADA9868
:100DA000FD013197F1F7DA9AFD013197F1F7DB9800
:100DB000FE013197F1F74F5F5F4F46175707DCF29F
:100DC000DF91CF91089590E0D99887FF02C0D89A1B
:100DD00001C0D898D99A9F5F983011F0880FF4CF4E
:100DE000DD9ADC98DB9ADA9888EA92E0FC01319788
:100DF000F1F7DA9A0197F1F7DB9880E991E0019732
:100E0000F1F70895DB98DC98DD9A85ED982F9A9597
:100E1000F1F7DB9ADC98DD9A8A95F1F7089590E076
:100E2000D99887FF02C0D89A01C0D898D99A9F5FF5
:100E3000983011F0880FF4CFDD98DC98DB9ADA98BF
:100E400088EA92E0FC013197F1F7DA9A0197F1F71D
:100E5000DB9880E991E00197F1F7089581E00E9425
:100E60000F0780EC92E10197F1F7089588E30E9463
:100E70000F0786E00E940F0782E00E940F0781E0C3
:100E80000E940F0780EC92E10197F1F70895FC01B1
:100E900028EA32E040E951E01DC090E0D99887FF90
:100EA00002C0D89A01C0D898D99A9F5F983011F0A3
:100EB000880FF4CF3196DD9ADC98DB9ADA98C90175
:100EC0000197F1F7DA9AC9010197F1F7DB98CA01A6
:100ED0000197F1F78081882301F70895CF93DF937D
:100EE0001092BC071092BB0725C00896880F880F88
:100EF000880F0E949306C0E0D0E0E091BB07F0911C
:100F0000BC0783E0EE0FFF1F8A95E1F7EC0FFD1F92
:100F1000E85AF84F80810E94E3062196C830D10537
:100F200061F78091BB079091BC0701969093BC0735
:100F30008093BB078091BB079091BC0787309105D8
:100F4000A4F2DF91CF910895DF93CF93CDB7DEB7B1
:100F50002A970FB6F894DEBF0FBECDBFAE014F5F2C
:100F60005F4F2AE030E00E949E0B0E9447072A96BE
:100F70000FB6F894DEBF0FBECDBFCF91DF910895BD
:100F8000DF93CF93CDB7DEB72A970FB6F894DEBFC5
:100F90000FBECDBFAE014F5F5F4F2AE030E00E9431
:100FA0006A0B0E9447072A960FB6F894DEBF0FBE61
:100FB000CDBFCF91DF910895DF93CF93CDB7DEB74B
:100FC0002A970FB6F894DEBF0FBECDBFBE016F5F8C
:100FD0007F4F4AE050E00E94490B0E9447072A9643
:100FE0000FB6F894DEBF0FBECDBFCF91DF9108954D
:100FF000DF93CF93CDB7DEB72A970FB6F894DEBF55
:101000000FBECDBFBE016F5F7F4F4AE050E00E9430
:10101000C30B0E9447072A960FB6F894DEBF0FBE97
:10102000CDBFCF91DF9108950F931F93182F062FF7
:10103000C3980E941809C39ADE98812F602F0E94DE
:101040001809DE9ADF98812F602F0E941809DF9A15
:101050001F910F9108950E940709C39880E060E0F6
:101060000E941809C39ADE9880E060E00E94180987
:10107000DE9ADF9880E060E00E941809DF9A089508
:101080000E940709C39880E060E00E941809C39A93
:10109000DE9880E060E00E941809DE9ADF9880E028
:1010A00060E00E941809DF9A0895AC0120E030E06A
:1010B00009C05D9BFECFFA01E20FF31F80818CB95E
:1010C0002F5F3F4F26173707A4F308955D9BFECF90
:1010D0008CB90895982F5D9BFECF892F82958F70D4
:1010E000805D8CB95D9BFECF9F70905D9CB908952B
:1010F0005D9BFECF8CB90895FC0104C05D9BFECFC3
:1011000031968CB980818823C9F7089587E689B91B
:1011100010BC86E880BD88E08AB91CB880E997E0F9
:101120000E947C0808955F9BFECF8CB10895DF93E9
:10113000CF93CDB7DEB72A970FB6F894DEBF0FBEB8
:10114000CDBFAE014F5F5F4F2AE030E00E946A0BD7
:101150000E947C082A960FB6F894DEBF0FBECDBF62
:10116000CF91DF910895DF93CF93CDB7DEB72A9764
:101170000FB6F894DEBF0FBECDBFAE014F5F5F4F1D
:101180002AE030E00E949E0B0E947C082A960FB64F
:10119000F894DEBF0FBECDBFCF91DF910895DF93EE
:1011A000CF93CDB7DEB72A970FB6F894DEBF0FBE48
:1011B000CDBFBE016F5F7F4F4AE050E00E94490BF8
:1011C0000E947C082A960FB6F894DEBF0FBECDBFF2
:1011D000CF91DF910895DF93CF93CDB7DEB72A97F4
:1011E0000FB6F894DEBF0FBECDBFBE016F5F7F4F5D
:1011F0004AE050E00E94C30B0E947C082A960FB67A
:10120000F894DEBF0FBECDBFCF91DF9108951EB819
:1012100083E58DB91FB81DB8089583E58DB908958C
:101220001DB8089593E59DB98FB9779BFECF0895BA
:1012300093E59DB98FB9779BFECF6FB9779BFECFB2
:101240000895FC0193E506C031969DB980818FB960
:10125000779BFECF80818823B9F708951FB8779BCD
:10126000FECF80E00895482F6AE00E94160B282FD9
:1012700030E084E0220F331F8A95E1F7842F0E942B
:10128000160B892F820F0895282F22952F709AE030
:10129000299F900111248F70820F0895A09A94E4E1
:1012A00080E090FF02C0A89A01C0A8988F5F8830A4
:1012B00011F09695F6CF0895A09A94E480E097FFF8
:1012C00002C0A89A01C0A8988F5F883011F0990FCA
:1012D000F6CF0895A09880E093B38F5F8830E1F750
:1012E0000895A09880E093B38F5F8830E1F7089568
:1012F00040E050E00BC020E030E0000000002F5F35
:101300003F4F24363105C9F74F5F5F4F48175907E4
:1013100094F308959D990EC09C990CC088EC90E0C0
:101320000197F1F79D9B14C083B382958F708095D0
:10133000817008959D9B0CC09C990AC088EC90E038
:101340000197F1F79D9904C09C9902C08FEF089511
:1013500080E008959D990EC09C9B0CC088EC90E0A5
:101360000197F1F79D9914C083B382958F70809592
:10137000817008959D9B0CC09C990AC088EC90E0F8
:101380000197F1F79D9904C09C9902C08FEF0895D1
:1013900080E0089588EC90E0FC013197F1F7FC01C2
:1013A0003197F1F70197F1F780E0089508950895D6
:1013B00090E0AE9880FF02C0AF9A01C0AF98AE9A9D
:1013C0009F5F983011F08695F4CFAB9888EA92E051
:1013D000FC013197F1F7AB9A0197F1F7089580E29C
:1013E0000E94D809089581E60E94D80908958AE0EC
:1013F0000E94D80908958AE90E94D80908958CE0CE
:101400000E94D80908958CE90E94D809089580E0C7
:101410000E94D809089580E00E94D809089590E0BC
:10142000969880FF02C0C49A01C0C498969A9F5FA4
:10143000983011F08695F4CF979888EA92E0FC01F5
:101440003197F1F7979A0197F1F7089580E80E9494
:101450000F0A08958CEF0E940F0A089580E00E9401
:101460000F0A089580E00E940F0A08951092B007B5
:101470001092B5078299FECF20E040E253E004C00D
:101480002F5FCA010197F1F7829BFACF2B502330CF
:1014900070F540E030E060E273E036958299FECF6F
:1014A00020E004C02F5FCB010197F1F7829BFACFB8
:1014B000263008F030644F5F473079F73093B0073B
:1014C00040E030E060E273E036958299FECF20E0A4
:1014D00004C02F5FCB010197F1F7829BFACF263032
:1014E00008F030614F5F453079F73093B5070895C4
:1014F0001092B0071092B5078299FECF20E040E22B
:1015000053E004C02F5FCA010197F1F7829BFACF25
:101510002B50233070F540E030E060E273E0369508
:101520008299FECF20E004C02F5FCB010197F1F735
:10153000829BFACF263008F030644F5F473079F74E
:101540003093B00740E030E060E273E03695829976
:10155000FECF20E004C02F5FCB010197F1F7829B03
:10156000FACF263008F030614F5F483079F730937A
:10157000B50708951092B0071092B5071092B707FB
:101580008299FECF20E040E253E004C02F5FCA0101
:101590000197F1F7829BFACF2B50233008F045C01A
:1015A00040E030E060E273E036958299FECF20E0C3
:1015B00004C02F5FCB010197F1F7829BFACF263051
:1015C00008F030644F5F473079F73093B00740E060
:1015D00030E060E273E036958299FECF20E004C0EF
:1015E0002F5FCB010197F1F7829BFACF263008F0ED
:1015F00030614F5F453079F73093B50740E030E018
:1016000060E273E036958299FECF20E004C02F5F40
:10161000CB010197F1F7829BFACF263008F03061B9
:101620004F5F483079F73093B7070895991B79E0F9
:1016300004C0991F961708F0961B881F7A95C9F762
:101640008095089597FB092E07260AD077FD04D0D0
:101650000CD006D000201AF4709561957F4F089544
:10166000F6F7909581959F4F0895AA1BBB1B51E1FA
:1016700007C0AA1FBB1FA617B70710F0A61BB70B02
:10168000881F991F5A95A9F780959095BC01CD01A7
:101690000895FB019F01E8944230C4F04532B4F450
:1016A0004A3029F497FB1EF4909581959F4F642F43
:1016B00077270E94350B805D8A330CF0895D81931A
:1016C000CB010097A1F716F45DE251931082C90196
:1016D0000C94D90BFA01CF93FF93EF93223044F18E
:1016E000253234F5C22FE894CA3049F497FB3EF412
:1016F00090958095709561957F4F8F4F9F4F2C2FC0
:10170000332744275527FF93EF930E94E90BEF916E
:10171000FF91605D6A330CF0695D6193B901CA01A4
:10172000605070408040904051F716F4CDE2C19374
:1017300010828F919F91CF910C94D90BFA01CF9386
:10174000FF93EF932230CCF02532BCF4C22F2C2F24
:10175000332744275527FF93EF930E94E90BEF911E
:10176000FF91605D6A330CF0695D6193B901CA0154
:10177000605070408040904051F710828F919F914F
:10178000CF910C94D90BFB019F01423074F045328C
:1017900064F4642F77270E94350B805D8A330CF048
:1017A000895D8193CB010097A1F71082C9010C9448
:1017B000D90BDC01FC01672F71917723E1F7329798
:1017C00004C07C916D9370836291AE17BF07C8F31C
:1017D0000895A1E21A2EAA1BBB1BFD010DC0AA1F72
:1017E000BB1FEE1FFF1FA217B307E407F50720F08A
:1017F000A21BB30BE40BF50B661F771F881F991F05
:101800001A9469F760957095809590959B01AC014D
:0A181000BD01CF010895F894FFCF49
:10181A005B5541525420494E464F5D203D3D3D3D6A
:10182A003D3D3D3D3D3D3D3D3D3D3D3D3D3D3D3DDE
:10183A003D3D3D3D3D3D3D3D3D3D3D3D3D3D3D3DCE
:10184A003D3D3D3D3D3D3D3D3D3D3D3D3D3D3D3DBE
:10185A003D0D0A005B5541525420494E464F5D20CA
:10186A0009417574686F727320616E6420637265D2
:10187A0061746F72733A20502E5570696E6F7620BC
:10188A00616E6420502E53746F79616E6F760D0A03
:10189A00005B5541525420494E464F5D200944652C
:1018AA0076696365206E616D653A2044696769747B
:1018BA00616C20436F6E74726F6C20417564696F3E
:1018CA002053797374656D0D0A005B55415254209B
:1018DA00494E464F5D20094669726D7761726520EF
:1018EA0076657273696F6E206265746120000D0AF5
:1018FA00005B5541525420494E464F5D20446120B9
:10190A00646F626176712075707261766C656E695A
:10191A0065206E613A0909090909090D0A5B5541F1
:10192A00525420494E464F5D202D2046414E207389
:10193A006D61727420636F6E74726F6C6C696E671E
:10194A000909090909090909090D0A5B554152548E
:10195A0020494E464F5D202D2044533138533230B2
:10196A000909090909090909090909090D0A5B553A
:10197A0041525420494E464F5D202D20525443096E
:10198A000909090909090909090909090D0A5B551A
:10199A0041525420494E464F5D202D204D656D6FB2
:1019AA0072790D0A005B5541525420494E464F5DEB
:1019BA002054656D70657261747572653A20002EE7
:1019CA003020430D0A002E302043002B002D005BEF
:1019DA0055415254204552524F525D204552524F62
:1019EA00522054454D50455241545552450D0A0016
:1019FA005B5541525420494E464F5D2054454D5047
:101A0A00455241545552452053454E534F52205248
:101A1A00494748543A203130203644204634203849
:101A2A0046203032203038203030204231200D0A12
:101A3A00005B5541525420494E464F5D2054454D56
:101A4A0050455241545552452053454E534F52200A
:101A5A004C4546543A203130204442203039204106
:101A6A0035203031203038203030204331200D0AE3
:101A7A0000202020202054454D45524154555245BE
:101A8A002020202020004C454654202053454E5308
:101A9A004F523A20005B5541525420494E464F5D01
:101AAA0020627974652000203A2000524947485440
:101ABA002053454E534F523A200020202020202008
:101ACA0020202020202020445331387832300056FC
:101ADA006F6C756D653A2000566F6C756D653A20AE
:101AEA003000566F6C756D653A203030005B554199
:101AFA00525420494E464F5D20566F6C756D653ABB
:101B0A0020005B5541525420494E464F5D20566F86
:101B1A006C756D65206D757465206973206F6E0D27
:101B2A000A005B5541525420494E464F5D20566F7C
:101B3A006C756D65206D757465206973206F6666B6
:101B4A000D0A0020202020416D706C6966657220A4
:101B5A004F666620202020005B5541525420494E92
:101B6A00464F5D2054727920746F207377697463CD
:101B7A0068206F66662072656C617973206F757470
:101B8A0020666F7220616C6C2036206368616E6E0D
:101B9A00656C730D0A005B5541525420494E464FFD
:101BAA005D2054727920746F20737769746368209A
:101BBA006F66662072656C61797320696E20666F44
:101BCA007220616C6C2036206368616E6E656C737E
:101BDA000D0A005B5541525420494E464F5D205430
:101BEA00727920746F20737769746368206F6666F0
:101BFA002072656C61797320666F7220706F7765E9
:101C0A007220323230560D0A005B55415254204937
:101C1A004E464F5D2046616E206973206F66660DE1
:101C2A000A005B5541525420494E464F5D20446993
:101C3A0073706C6179206F666620616E64207374BC
:101C4A0061747573206C6564206F6E0D0A005B55B4
:101C5A0041525420494E464F5D20416D706C696671
:101C6A006572206973206F66660D0A005B554152E2
:101C7A005420494E464F5D20416D706C696665720D
:101C8A00206973206F6E0D0A005B5541525420493A
:101C9A004E464F5D20446973706C6179206F6E20E7
:101CAA00616E6420737461747573206C6564206F4F
:101CBA0066660D0A0020202020416D706C696665F9
:101CCA0072204F6E202020202000502E5550494E61
:101CDA004F562020502E53544F59414E4F56005BB9
:101CEA005541525420494E464F5D2046616E206947
:101CFA0073206F6E0D0A005B5541525420494E46BF
:101D0A004F5D2046616E20726F746174696F6E2038
:101D1A0077697468206D61782073706565640D0A4F
:101D2A00005B5541525420494E464F5D2046616E34
:101D3A0020697320616C77617973206F6E2C20693A
:101D4A00742069736E27742073656E73697469767B
:101D5A006520746F2074656D706572617475726543
:101D6A002C206265636175736520445331385332A0
:101D7A00302069732064697361626C696E670D0A49
:101D8A00005B5541525420494E464F5D20547279AA
:101D9A0020746F20737769746368206F6E20726590
:101DAA006C61797320666F7220706F77657220326A
:101DBA003230560D0A005B5541525420494E464F67
:101DCA005D2054727920746F207377697463682078
:101DDA006F6E2072656C61797320696E20666F720E
:101DEA0020616C6C2036206368616E6E656C730DC1
:101DFA000A005B5541525420494E464F5D205472A9
:101E0A007920746F20737769746368206F6E20720B
:101E1A00656C617973206F757420666F7220616CCE
:101E2A006C2036206368616E6E656C730D0A005B08
:101E3A005541525420494E464F5D2046616E2072EC
:101E4A006F746174696F6E2077697468206D696E4A
:101E5A002073706565640D0A005B55415254204930
:101E6A004E464F5D2046616E206D616E75616C2035
:101E7A00636F6E74726F6C6C696E672077697468D1
:101E8A002072656D6F7465206D656E7520757020A2
:101E9A00746F207370656564207374657020757043
:101EAA0020616E64206D656E7520646F776E2062A6
:101EBA007574746F6E20746F207370656564207317
:101ECA0074657020646F776E0D0A0046616E205348
:101EDA007465703A2000206F7220000028323C4658
:101EEA00505A646E78828C96A0AAB4BEC8D2D71013
:101EFA00DB09A5010800C1106DF48F020800B101C9
:101F0A0000647D96AFC8E1FA0E1B11111111111F61
:101F1A000E1B111111111F1F0E1B1111111F1F1F53
:101F2A000E1B11111F1F1F1F0E1B111F1F1F1F1F0B
:101F3A000E1B1F1F1F1F1F1F0E1F1F1F1F1F1F1FCD
:041F4A000D0A00007C
:00000001FF
