:100000000C942A000C945B000C9465000C946F0017
:100010000C9479000C9483000C943C000C943C00EC
:100020000C943C000C943C000C943C000C943C0060
:100030000C943C000C943C000C943C000C943C0050
:100040000C943C000C943C000C943C000C943C0040
:100050000C943C0011241FBECFE5D8E0DEBFCDBF1D
:1000600010E0A0E6B0E001C01D92A137B107E1F7B2
:100070000E94CD000C9458040C9400008FEF8ABBB2
:100080001BBA88EB87BB87E088BB8CEC84BB15BAB6
:1000900080EF81BB8CE082BB089582E080BF81E865
:1000A00085BD13BC089581E885BD81E083BD0895B9
:1000B00015BC13BC08951F920F920FB60F92112416
:1000C0000F900FBE0F901F9018951F920F920FB6B2
:1000D0000F9211240F900FBE0F901F9018951F9232
:1000E0000F920FB60F9211240F900FBE0F901F901A
:1000F00018951F920F920FB60F9211240F900FBEFA
:100100000F901F9018951F920F920FB60F92112407
:100110000F900FBE0F901F901895CF93DF93C0E9FB
:10012000D1E0B1990BC0E0916F00F0917000808137
:1001300080FD02C0816001C08E7F8083E0916F00EE
:10014000F0917000808180FD0FC0949A80E00E9441
:10015000DD0181E40E94430280ED97E0FE013197CA
:10016000F1F70197D9F7DDCF949880EC0E94DD017B
:1001700082E40E94430280ED97E0FE013197F1F79F
:100180000197D9F7CECF0E943E0082E080BF81E880
:1001900085BD13BC0E94FF0108950E94C30078949E
:1001A0000E948D00FDCF0E94C20180EA0E94CB0117
:1001B00080E00E94CB0180E00E94CB010E94C2013E
:1001C00081EA0E94CB0180E00E94D20180E00E947F
:1001D000D20180E00E94D20180E00E94D20181E041
:1001E0000E94D2010E94C80108950E94C20180EAC3
:1001F0000E94CB0180E00E94CB0180E00E94CB01F5
:1002000080E30E94CB0181E30E94CB0182E30E9444
:10021000CB0183E30E94CB0184E30E94CB010E94C7
:10022000C8010895B89AC09880E897E00197F1F75F
:10023000B89880E491E00197F1F7B09B02C080E0AC
:10024000089588E097E00197F1F781E00895B89A62
:10025000C09885E08A95F1F7B89880E48A95F1F71F
:1002600086B381700895B89AC0988111C09A88EBBE
:1002700091E00197F1F7B898C0980895CF92DF9276
:10028000EF92FF921F93CF93DF9310E0C0E0D0E096
:1002900091E0C92ED12C80EEE82E81E0F82E0E944C
:1002A0002701882341F0C6010C2E02C0880F991F38
:1002B0000A94E2F7182BC7010197F1F72196C8308D
:1002C000D10569F7812FDF91CF911F91FF90EF90BA
:1002D000DF90CF9008950F931F93CF93DF93C0E0EB
:1002E000D0E0082F10E0C8010C2E02C0959587952C
:1002F0000A94E2F780FF02C081E001C080E00E9422
:1003000033012196C830D10571F780EE91E0019755
:10031000F1F7DF91CF911F910F9108950E9427016E
:100320008823E1F30895CF93DF930E94120188237D
:10033000E9F08CEC0E946B0184E40E946B010E9446
:100340008E010E941201882389F08CEC0E946B01BF
:100350008EEB0E946B01C2E6D0E00E943E018993C1
:1003600080E0CB36D807C9F781E001C080E0DF919B
:10037000CF91089582E180B981E081B984E086BFA0
:1003800013B8089584EA86BF06B607FEFDCF089528
:1003900084E986BF089583B984E886BF06B607FE60
:1003A000FDCF0895882311F484EC01C084E886BF52
:1003B00006B607FEFDCF83B1089590E0D99887FF78
:1003C00002C0D89A01C0D898D99A9F5F983011F08E
:1003D000880FF4CFDA9888EA92E0FC013197F1F7C0
:1003E000DA9A0197F1F7DD98DC98DB9A80E991E0E1
:1003F000FC013197F1F7DB980197F1F7089581E05F
:100400000E94DD0188E30E94DD018FE00E94DD0192
:1004100086E00E94DD0182E00E94DD010895CF9315
:10042000DF9340E050E0C8EAD2E0A0E9B1E025C0A7
:10043000FC01E40FF51FE08120E0D998E7FF02C03E
:10044000D89A01C0D898D99A2F5F283011F0EE0FB2
:10045000F4CFDA98FE013197F1F7DA9AFE0131977D
:10046000F1F7DD9ADC98DB9AFD013197F1F7DB9823
:10047000FD013197F1F74F5F5F4F46175707C4F201
:10048000DF91CF91089590E0D99887FF02C0D89A64
:1004900001C0D898D99A9F5F983011F0880FF4CF97
:1004A000DA9888EA92E0FC013197F1F7DA9A01973D
:1004B000F1F7DD9ADC98DB9A80E991E0FC01319755
:1004C000F1F7DB980197F1F70895DB98DC98DD9A56
:1004D00080E991E0FC013197F1F7DB9ADC98DD9A35
:1004E0000197F1F70895FC0148EA52E020E931E074
:1004F00020C090E0D99887FF02C0D89A01C0D89850
:10050000D99A9F5F983011F0880FF4CF3196DA981E
:10051000CA010197F1F7DA9ACA010197F1F7DD9A5A
:10052000DC98DB9AC9010197F1F7DB98C9010197C3
:10053000F1F780818823E9F60895DF93CF93CDB753
:10054000DEB72A970FB6F894DEBF0FBECDBFBE014F
:100550006F5F7F4F4AE050E00E9482030E94730267
:100560002A960FB6F894DEBF0FBECDBFCF91DF91B4
:100570000895C3988FB9779BFECF6FB9779BFECF55
:10058000C39A0895DE988FB9779BFECF6FB9779B9A
:10059000FECFDE9A0895DF988FB9779BFECF6FB9B3
:1005A000779BFECFDF9A089587E689B910BC86E86D
:1005B00080BD88E98AB91CB80895AC0120E030E01C
:1005C00009C05D9BFECFFA01E20FF31F80818CB959
:1005D0002F5F3F4F26173707A4F308955D9BFECF8B
:1005E0008CB90895982F5D9BFECF892F82958F70CF
:1005F000805D8CB95D9BFECF9F70905D9CB9089526
:100600005D9BFECF8CB90895FC0104C05D9BFECFBD
:1006100031968CB980818823C9F708955F9BFECFFE
:100620008CB10895DF93CF93CDB7DEB72A970FB67D
:10063000F894DEBF0FBECDBFAE014F5F5F4F2AE023
:1006400030E00E94A3030E9404032A960FB6F89498
:10065000DEBF0FBECDBFCF91DF910895DF93CF9363
:10066000CDB7DEB72A970FB6F894DEBF0FBECDBF69
:10067000AE014F5F5F4F2AE030E00E94D7030E9437
:1006800004032A960FB6F894DEBF0FBECDBFCF91FC
:10069000DF910895DF93CF93CDB7DEB72A970FB6DA
:1006A000F894DEBF0FBECDBFBE016F5F7F4F4AE043
:1006B00050E00E9482030E9404032A960FB6F89429
:1006C000DEBF0FBECDBFCF91DF910895DF93CF93F3
:1006D000CDB7DEB72A970FB6F894DEBF0FBECDBFF9
:1006E000BE016F5F7F4F4AE050E00E94FC030E9412
:1006F00004032A960FB6F894DEBF0FBECDBFCF918C
:10070000DF910895FB019F01E8944230C4F0453227
:10071000B4F44A3029F497FB1EF4909581959F4FCD
:10072000642F77270E942204805D8A330CF0895D54
:100730008193CB010097A1F716F45DE251931082EB
:10074000C9010C941204FA01CF93FF93EF93223066
:1007500044F1253234F5C22FE894CA3049F497FBAE
:100760003EF490958095709561957F4F8F4F9F4F88
:100770002C2F332744275527FF93EF930E943604ED
:10078000EF91FF91605D6A330CF0695D6193B9018F
:10079000CA01605070408040904051F716F4CDE29D
:1007A000C19310828F919F91CF910C941204FA0102
:1007B000CF93FF93EF932230CCF02532BCF4C22FBD
:1007C0002C2F332744275527FF93EF930E9436049D
:1007D000EF91FF91605D6A330CF0695D6193B9013F
:1007E000CA01605070408040904051F710828F9154
:1007F0009F91CF910C941204FB019F01423074F041
:10080000453264F4642F77270E942204805D8A3386
:100810000CF0895D8193CB010097A1F71082C9018B
:100820000C941204DC01FC01672F71917723E1F72E
:10083000329704C07C916D9370836291AE17BF07AD
:10084000C8F30895AA1BBB1B51E107C0AA1FBB1F19
:10085000A617B70710F0A61BB70B881F991F5A954C
:10086000A9F780959095BC01CD010895A1E21A2EBB
:10087000AA1BBB1BFD010DC0AA1FBB1FEE1FFF1F44
:10088000A217B307E407F50720F0A21BB30BE40B94
:10089000F50B661F771F881F991F1A9469F76095DB
:1008A0007095809590959B01AC01BD01CF01089595
:0408B000F894FFCFEA
:00000001FF
