:100000000C942A000C9466000C9470000C947A00F6
:100010000C9484000C948E000C9447000C944700C0
:100020000C9447000C9447000C9447000C94470034
:100030000C9447000C9447000C9447000C94470024
:100040000C9447000C9447000C9447000C94470014
:100050000C94470011241FBECFE5D8E0DEBFCDBF12
:1000600010E0A0E6B0E0E2E3FEE002C005900D92F1
:10007000A43FB107D9F711E0A4EFB0E001C01D9291
:10008000A830B107E1F70E94B3010C9417070C9454
:1000900000008FEF8ABB1BBA88EB87BB87E088BB69
:1000A0008CEC84BB15BA80EF81BB8CE082BB0895D9
:1000B00082E080BF81E885BD13BC089581E885BDDD
:1000C00081E083BD089515BC13BC08951F920F9263
:1000D0000FB60F9211240F900FBE0F901F9018951E
:1000E0001F920F920FB60F9211240F900FBE0F9018
:1000F0001F9018951F920F920FB60F9211240F9018
:100100000FBE0F901F9018951F920F920FB60F926F
:1001100011240F900FBE0F901F9018951F920F92F1
:100120000FB60F9211240F900FBE0F901F901895CD
:100130000E9449000E9486030E9427040E940A062A
:100140000E94310608950E948905882309F442C05F
:10015000813001F58091F400882319F41092F400A5
:1001600003C081508093F400E091F400F0E0E85582
:10017000FF4F6081862F0E94100484ED0E945F0370
:1001800080E690E00E9497038091F40090E00E9446
:10019000F40308958230F1F48091F400833110F07B
:1001A00083E101C08E5F8093F400E091F400F0E001
:1001B000E855FF4F6081862F0E94100484ED0E9455
:1001C0005F0380E690E00E9497038091F40090E046
:1001D0000E94F40308950E947E0380E00E945F0362
:1001E00089E690E00E94970388E00E945F030E94E6
:1001F0002D0688E59BE120E931E0F9013197F1F71F
:100200000197D9F70E94060688E59BE120E931E0D5
:10021000F9013197F1F70197D9F7AA98949A0895BF
:1002200094980E947E0380E00E945F038EE790E036
:100230000E94970380EC0E945F0383E990E00E9494
:1002400097038CE00E945F03AA9A80E49CE920E96E
:1002500031E0F9013197F1F70197D9F70E94F205E2
:1002600088E59BE120E931E0F9013197F1F7019749
:10027000D9F70E9429060895CF93DF93C0E9D1E012
:10028000B19913C0E0910001F0910101808180FDDE
:100290000CC0816080830E94100180E197E2FE0122
:1002A0003197F1F70197D9F7EBCFB19913C0E091EE
:1002B0000001F0910101808180FF0CC08E7F80835E
:1002C0000E94EB0088E893E1FE013197F1F7019776
:1002D000D9F7D6CFB2990FC0E0910001F09101019A
:1002E000808180FF08C088E893E1FE013197F1F733
:1002F0000197D9F7C5CF83990FC0E0910001F09124
:100300000101808180FF08C088E893E1FE013197F8
:10031000F1F70197D9F7B4CFB29911C0E09100017C
:10032000F0910101808180FD0AC00E947E0388E86F
:1003300093E1FE013197F1F70197D9F7A1CF8399A6
:100340000FC0E0910001F0910101808180FD08C0A3
:1003500088E893E1FE013197F1F70197D9F790CF43
:100360000E94A3008DCF0E9498007894949A0E94D6
:100370003C01FDCF0E94C80280EA0E94D10280E0C9
:100380000E94D10280E00E94D1020E94C80281EA4C
:100390000E94D10280E00E94D80280E00E94D80230
:1003A00080E00E94D80280E00E94D80280E00E9493
:1003B000D80281E00E94D8020E94CE0208950E94D5
:1003C000C80280EA0E94D10280E00E94D10280E04F
:1003D0000E94D10280E30E94D10281E30E94D102F7
:1003E00082E30E94D10283E30E94D10284E30E944F
:1003F000D1020E94CE020895CF93DF930E94C802DB
:1004000080EA0E94D10280E00E94D10280E00E9436
:10041000D102C0E0D0E080E00E94D10221968FE1BD
:10042000CF3FD807C1F70E94CE02DF91CF91089548
:10043000B89AC09880E897E00197F1F7B89880E4FF
:1004400091E00197F1F7B09B02C080E0089588E049
:1004500097E00197F1F781E00895B89AC09885E098
:100460008A95F1F7B89880E48A95F1F786B38170A0
:100470000895B89AC0988111C09A88EB91E00197CD
:10048000F1F7B898C0980895CF92DF92EF92FF925B
:100490001F93CF93DF9310E0C0E0D0E091E0C92E2E
:1004A000D12C80EEE82E81E0F82E0E942D028823C8
:1004B00041F0C6010C2E02C0880F991F0A94E2F782
:1004C000182BC7010197F1F72196C830D10569F7BC
:1004D000812FDF91CF911F91FF90EF90DF90CF9010
:1004E00008950F931F93CF93DF93C0E0D0E0082FC0
:1004F00010E0C8010C2E02C0959587950A94E2F78A
:1005000080FF02C081E001C080E00E943902219694
:10051000C830D10571F780EE91E00197F1F7DF91D6
:10052000CF911F910F9108950E942D028823E1F32E
:100530000895CF93DF930E9418028823E9F08CEC92
:100540000E94710284E40E9471020E9494020E943F
:100550001802882389F08CEC0E9471028EEB0E94B5
:100560007102C5EFD0E00E944402899380E0CE3F43
:10057000D807C9F781E001C080E0DF91CF910895ED
:1005800082E180B981E081B984E086BF13B8089523
:1005900084EA86BF06B607FEFDCF089584E986BFCC
:1005A000089583B984E886BF06B607FEFDCF089597
:1005B000882311F484EC01C084E886BF06B607FEE8
:1005C000FDCF83B1089590E0D99887FF02C0D89AF3
:1005D00001C0D898D99A9F5F983011F0880FF4CF56
:1005E000DD98DC98DB9ADA9888EA92E0FC01319792
:1005F000F1F7DA9A0197F1F7DB9880E991E001973A
:10060000F1F70895CF93DF9340E050E0A8EAB2E01D
:10061000C0E9D1E022C0FC01E40FF51FE08120E039
:10062000D998E7FF02C0D89A01C0D898D99A2F5F0D
:10063000283011F0EE0FF4CFDD9ADC98DB9ADA98CF
:10064000FD013197F1F7DA9AFD013197F1F7DB9867
:10065000FE013197F1F74F5F5F4F46175707DCF206
:10066000DF91CF91089590E0D99887FF02C0D89A82
:1006700001C0D898D99A9F5F983011F0880FF4CFB5
:10068000DD9ADC98DB9ADA9888EA92E0FC013197EF
:10069000F1F7DA9A0197F1F7DB9880E991E0019799
:1006A000F1F70895DB98DC98DD9A85ED982F9A95FF
:1006B000F1F7DB9ADC98DD9A8A95F1F7089590E0DE
:1006C000D99887FF02C0D89A01C0D898D99A9F5F5D
:1006D000983011F0880FF4CFDD98DC98DB9ADA9827
:1006E00088EA92E0FC013197F1F7DA9A0197F1F785
:1006F000DB9880E991E00197F1F7089581E00E948D
:100700005F0380EC92E10197F1F7089588E30E947E
:100710005F0386E00E945F0382E00E945F0381E046
:100720000E945F0380EC92E10197F1F70895FC01CC
:1007300028EA32E040E951E01DC090E0D99887FFF7
:1007400002C0D89A01C0D898D99A9F5F983011F00A
:10075000880FF4CF3196DD9ADC98DB9ADA98C901DC
:100760000197F1F7DA9AC9010197F1F7DB98CA010D
:100770000197F1F78081882301F70895CF93DF93E4
:10078000109205011092040125C00896880F880F69
:10079000880F0E94E302C0E0D0E0E0910401F091F4
:1007A000050183E0EE0FFF1F8A95E1F7EC0FFD1FB7
:1007B000E454FF4F80810E9433032196C830D10555
:1007C00061F78091040190910501019690930501D4
:1007D0008093040180910401909105018730910577
:1007E000A4F2DF91CF910895DF93CF93CDB7DEB719
:1007F0002A970FB6F894DEBF0FBECDBFBE016F5F64
:100800007F4F4AE050E00E9441060E9497032A96DB
:100810000FB6F894DEBF0FBECDBFCF91DF91089524
:100820000F931F93182F062FC3980E941705C39A82
:10083000DE98812F602F0E941705DE9ADF98812FA6
:10084000602F0E941705DF9A1F910F9108950E9453
:100850000605C39880E060E00E941705C39ADE9801
:1008600080E060E00E941705DE9ADF9880E060E09B
:100870000E941705DF9A08950E940605C39880E03C
:1008800060E00E941705C39ADE9880E060E00E9455
:100890001705DE9ADF9880E060E00E941705DF9A76
:1008A000089587E689B910BC86E880BD88E98AB9D1
:1008B0001CB8089510BC86E880BD88E98AB91CB8C8
:1008C0000895AC0120E030E009C05D9BFECFFA0145
:1008D000E20FF31F80818CB92F5F3F4F2617370738
:1008E000A4F308955D9BFECF8CB90895982F5D9B6E
:1008F000FECF892F82958F70805D8CB95D9BFECF76
:100900009F70905D9CB908955D9BFECF8CB9089552
:10091000FC0104C05D9BFECF31968CB98081882399
:10092000C9F708955F9BFECF8CB10895DF93CF93F5
:10093000CDB7DEB72A970FB6F894DEBF0FBECDBF96
:10094000AE014F5F5F4F2AE030E00E9462060E94D6
:1009500088042A960FB6F894DEBF0FBECDBFCF91A4
:10096000DF910895DF93CF93CDB7DEB72A970FB607
:10097000F894DEBF0FBECDBFAE014F5F5F4F2AE0E0
:1009800030E00E9496060E9488042A960FB6F894DA
:10099000DEBF0FBECDBFCF91DF910895DF93CF9320
:1009A000CDB7DEB72A970FB6F894DEBF0FBECDBF26
:1009B000BE016F5F7F4F4AE050E00E9441060E94F7
:1009C00088042A960FB6F894DEBF0FBECDBFCF9134
:1009D000DF910895DF93CF93CDB7DEB72A970FB697
:1009E000F894DEBF0FBECDBFBE016F5F7F4F4AE000
:1009F00050E00E94BB060E9488042A960FB6F89425
:100A0000DEBF0FBECDBFCF91DF9108951EB883E545
:100A10008DB91FB81DB8089583E58DB908951DB827
:100A2000089593E59DB98FB9779BFECF089593E51F
:100A30009DB98FB9779BFECF6FB9779BFECF089595
:100A4000FC0193E506C031969DB980818FB9779BF3
:100A5000FECF80818823B9F708951FB8779BFECF1A
:100A600080E00895482F6AE00E943506282F30E084
:100A700084E0220F331F8A95E1F7842F0E94350608
:100A8000892F820F0895282F22952F709AE0299F91
:100A9000900111248F70820F0895A09A94E480E051
:100AA00090FF02C0A89A01C0A8988F5F883011F00B
:100AB0009695F6CF0895A09A90E084E487FF02C04F
:100AC000A89A01C0A8989F5F983011F0880FF6CFC0
:100AD0000895A09880E093B38F5F8830E1F7089580
:100AE000A09880E093B38F5F8830E1F7089540E0ED
:100AF00050E00BC020E030E0000000002F5F3F4FCF
:100B000024363105C9F74F5F5F4F4817590794F3F3
:100B100008959D990CC09C990AC088EC90E00197BB
:100B2000F1F79D9B14C09C9912C082E008959D9B93
:100B30000EC09C990CC088EC90E00197F1F79D994C
:100B400006C083B382958F7080958170089580E090
:100B500008959D990CC09C9B0AC088EC90E0019779
:100B6000F1F79D9914C09C9912C082E008959D9B55
:100B70000EC09C990CC088EC90E00197F1F79D990C
:100B800006C083B382958F7080958170089580E050
:100B9000089588EC90E0FC013197F1F7FC01319762
:100BA000F1F70197F1F780E008950895089590E036
:100BB000AE9880FF02C0AF9A01C0AF98AE9A9F5F17
:100BC000983011F08695F4CFAB9888EA92E0FC015A
:100BD0003197F1F7AB9A0197F1F7089580E20E94FF
:100BE000D705089581E60E94D70508958AE00E94FE
:100BF000D70508958AE90E94D70508958CE00E94E0
:100C0000D70508958CE90E94D705089580E00E94D9
:100C1000D705089580E00E94D705089590E0969842
:100C200080FF02C0C49A01C0C498969A9F5F983012
:100C300011F08695F4CF979888EA92E0FC013197FD
:100C4000F1F7979A0197F1F7089580E80E940E0650
:100C500008958CEF0E940E06089580E00E940E0613
:100C6000089580E00E940E060895991B79E004C063
:100C7000991F961708F0961B881F7A95C9F78095DB
:100C80000895FB019F01E8944230C4F04532B4F46A
:100C90004A3029F497FB1EF4909581959F4F642F5D
:100CA00077270E94E106805D8A330CF0895D81938D
:100CB000CB010097A1F716F45DE251931082C901B0
:100CC0000C94D106FA01CF93FF93EF93223044F1B5
:100CD000253234F5C22FE894CA3049F497FB3EF42C
:100CE00090958095709561957F4F8F4F9F4F2C2FDA
:100CF000332744275527FF93EF930E94F506EF9182
:100D0000FF91605D6A330CF0695D6193B901CA01BE
:100D1000605070408040904051F716F4CDE2C1938E
:100D200010828F919F91CF910C94D106FA01CF93AD
:100D3000FF93EF932230CCF02532BCF4C22F2C2F3E
:100D4000332744275527FF93EF930E94F506EF9131
:100D5000FF91605D6A330CF0695D6193B901CA016E
:100D6000605070408040904051F710828F919F9169
:100D7000CF910C94D106FB019F01423074F04532B3
:100D800064F4642F77270E94E106805D8A330CF0BB
:100D9000895D8193CB010097A1F71082C9010C9462
:100DA000D106DC01FC01672F71917723E1F73297BF
:100DB00004C07C916D9370836291AE17BF07C8F336
:100DC0000895AA1BBB1B51E107C0AA1FBB1FA61792
:100DD000B70710F0A61BB70B881F991F5A95A9F7E4
:100DE00080959095BC01CD010895A1E21A2EAA1B11
:100DF000BB1BFD010DC0AA1FBB1FEE1FFF1FA217CB
:100E0000B307E407F50720F0A21BB30BE40BF50BC7
:100E1000661F771F881F991F1A9469F76095709550
:100E2000809590959B01AC01BD01CF010895F89488
:020E3000FFCFF2
:100E3200566F6C756D653A200020202020416D7040
:100E42006C69666572204F66662020202000202093
:100E52002020416D706C69666572204F6E202020E3
:100E6200202000502E5550494E4F562020502E53D0
:100E7200544F59414E4F56000028323C46505A6456
:100E82006E78828C96A0AAB4BEC8D2D70E1B11115E
:100E92001111111F0E1B111111111F1F0E1B111108
:100EA200111F1F1F0E1B11111F1F1F1F0E1B111FB2
:100EB2001F1F1F1F0E1B1F1F1F1F1F1F0E1F1F1F66
:040EC2001F1F1F1FB0
:00000001FF
