:100000000C942A000C9466000C9470000C947A00F6
:100010000C9484000C948E000C9447000C944700C0
:100020000C9447000C9447000C9447000C94470034
:100030000C9447000C9447000C9447000C94470024
:100040000C9447000C9447000C9447000C94470014
:100050000C94470011241FBECFE5D8E0DEBFCDBF12
:1000600011E0A0E6B0E0E0E3FDE002C005900D92F3
:10007000AA32B107D9F711E0AAE2B1E001C01D929E
:10008000AE33B107E1F70E949C010C9496060C94E4
:1000900000008FEF8ABB1BBA88EB87BB87E088BB69
:1000A0008CEC84BB15BA80EF81BB8CE082BB0895D9
:1000B00082E080BF81E885BD13BC089581E885BDDD
:1000C00081E083BD089515BC13BC08951F920F9263
:1000D0000FB60F9211240F900FBE0F901F9018951E
:1000E0001F920F920FB60F9211240F900FBE0F9018
:1000F0001F9018951F920F920FB60F9211240F9018
:100100000FBE0F901F9018951F920F920FB60F926F
:1001100011240F900FBE0F901F9018951F920F92F1
:100120000FB60F9211240F900FBE0F901F901895CD
:100130000E9449000E946F030E941004089582E00B
:100140000E947205823009F44CC0813009F5E091BB
:100150002A01E150E0932A01F0E0E352FF4F608171
:10016000862F0E94F90384ED0E94480380E690E008
:100170000E948003E0912A01F0E0E352FF4F80816A
:1001800090E00E94DD0388E690E00E9480030895DD
:10019000833039F580912A018F5F80932A01833162
:1001A00018F083E180932A01E0912A01F0E0E35204
:1001B000FF4F6081862F0E94F90384ED0E9448035F
:1001C00080E690E00E948003E0912A01F0E0E35293
:1001D000FF4F808190E00E94DD0388E690E00E945E
:1001E000800308950E94670380E00E94480384E72B
:1001F00090E00E94800388E00E944803949A08954A
:1002000094980E94670380E00E94480389E890E088
:100210000E94800380EC0E9448038EE990E00E94D7
:1002200080038CE00E94480380E00895CF93DF9321
:10023000C0E9D1E0B1991AC0E0913601F0913701DF
:10024000808180FD13C00E940001882399F7E0910E
:100250003601F091370180818160808380E197E2EF
:10026000FE013197F1F70197D9F7E4CFB19918C0A2
:10027000E0913601F0913701808180FF11C00E942A
:10028000F200E0913601F091370180818E7F80830A
:1002900088E893E1FE013197F1F70197D9F7CACFCA
:1002A000B29916C0E0913601F0913701808180FF4C
:1002B0000FC083EB90E00E9480038CE00E94480313
:1002C00088E893E1FE013197F1F70197D9F7B2CFB2
:1002D000839916C0E0913601F0913701808180FF4B
:1002E0000FC088EC90E00E9480038CE00E944803DD
:1002F00088E893E1FE013197F1F70197D9F79ACF9A
:10030000B29907C0E0913601F0913701808180FFFA
:1003100091CF839907C0E0913601F0913701808138
:1003200080FF88CFE0913601F0913701808180FF16
:1003300081CF0E949F007ECF0E9498007894949A6B
:100340000E941601FDCF0E94B10280EA0E94BA020B
:1003500080E00E94BA0280E00E94BA020E94B102CC
:1003600081EA0E94BA0280E00E94C10280E00E94FD
:10037000C10280E00E94C10280E00E94C10280E0D0
:100380000E94C10281E00E94C1020E94B70208954A
:100390000E94B10280EA0E94BA0280E00E94BA0282
:1003A00080E00E94BA0280E30E94BA0281E30E94C8
:1003B000BA0282E30E94BA0283E30E94BA0284E393
:1003C0000E94BA020E94B7020895CF93DF930E9461
:1003D000B10280EA0E94BA0280E00E94BA0280E084
:1003E0000E94BA02C0E0D0E080E00E94BA022196EA
:1003F0008FE1CF3FD807C1F70E94B702DF91CF91BD
:100400000895B89AC09880E897E00197F1F7B898F6
:1004100080E491E00197F1F7B09B02C080E008957D
:1004200088E097E00197F1F781E00895B89AC098C5
:1004300085E08A95F1F7B89880E48A95F1F786B35C
:1004400081700895B89AC0988111C09A88EB91E0A4
:100450000197F1F7B898C0980895CF92DF92EF9284
:10046000FF921F93CF93DF9310E0C0E0D0E091E0C4
:10047000C92ED12C80EEE82E81E0F82E0E941602C3
:10048000882341F0C6010C2E02C0880F991F0A94E0
:10049000E2F7182BC7010197F1F72196C830D10573
:1004A00069F7812FDF91CF911F91FF90EF90DF903F
:1004B000CF9008950F931F93CF93DF93C0E0D0E0C8
:1004C000082F10E0C8010C2E02C0959587950A945C
:1004D000E2F780FF02C081E001C080E00E942202BA
:1004E0002196C830D10571F780EE91E00197F1F7C0
:1004F000DF91CF911F910F9108950E9416028823DA
:10050000E1F30895CF93DF930E9401028823E9F07D
:100510008CEC0E945A0284E40E945A020E947D02DE
:100520000E940102882389F08CEC0E945A028EEB13
:100530000E945A02CBE2D1E00E942D02899381E011
:10054000C433D807C9F781E001C080E0DF91CF91C3
:10055000089582E180B981E081B984E086BF13B853
:10056000089584EA86BF06B607FEFDCF089584E9A4
:1005700086BF089583B984E886BF06B607FEFDCF1F
:100580000895882311F484EC01C084E886BF06B680
:1005900007FEFDCF83B1089590E0D99887FF02C090
:1005A000D89A01C0D898D99A9F5F983011F0880FD7
:1005B000F4CFDD98DC98DB9ADA9888EA92E0FC01C7
:1005C0003197F1F7DA9A0197F1F7DB9880E991E03A
:1005D0000197F1F70895CF93DF9340E050E0A8EA48
:1005E000B2E0C0E9D1E022C0FC01E40FF51FE081D8
:1005F00020E0D998E7FF02C0D89A01C0D898D99ACC
:100600002F5F283011F0EE0FF4CFDD9ADC98DB9AE3
:10061000DA98FD013197F1F7DA9AFD013197F1F798
:10062000DB98FE013197F1F74F5F5F4F4617570791
:10063000DCF2DF91CF91089590E0D99887FF02C056
:10064000D89A01C0D898D99A9F5F983011F0880F36
:10065000F4CFDD9ADC98DB9ADA9888EA92E0FC0124
:100660003197F1F7DA9A0197F1F7DB9880E991E099
:100670000197F1F70895DB98DC98DD9A85ED982FC6
:100680009A95F1F7DB9ADC98DD9A8A95F1F708954F
:1006900090E0D99887FF02C0D89A01C0D898D99A1B
:1006A0009F5F983011F0880FF4CFDD98DC98DB9ACB
:1006B000DA9888EA92E0FC013197F1F7DA9A01972B
:1006C000F1F7DB9880E991E00197F1F7089581E077
:1006D0000E94480380EC92E10197F1F7089588E3C6
:1006E0000E94480386E00E94480382E00E9448037B
:1006F00081E00E94480380EC92E10197F1F70895B0
:10070000FC0128EA32E040E951E01DC090E0D998B0
:1007100087FF02C0D89A01C0D898D99A9F5F9830B5
:1007200011F0880FF4CF3196DD9ADC98DB9ADA98D5
:10073000C9010197F1F7DA9AC9010197F1F7DB983E
:10074000CA010197F1F78081882301F70895CF93BB
:10075000DF9310923B0110923A0125C00896880F52
:10076000880F880F0E94CC02C0E0D0E0E0913A01EF
:10077000F0913B0183E0EE0FFF1F8A95E1F7EC0F4C
:10078000FD1FEF50FF4F80810E941C032196C8304F
:10079000D10561F780913A0190913B0101969093C8
:1007A0003B0180933A0180913A0190913B0187305F
:1007B0009105A4F2DF91CF910895DF93CF93CDB748
:1007C000DEB72A970FB6F894DEBF0FBECDBFBE01CD
:1007D0006F5F7F4F4AE050E00E94C0050E94800397
:1007E0002A960FB6F894DEBF0FBECDBFCF91DF9132
:1007F00008950F931F93182F062FC3980E9400058A
:10080000C39ADE98812F602F0E940005DE9ADF9840
:10081000812F602F0E940005DF9A1F910F9108958C
:100820000E94EF04C39880E060E00E940005C39A34
:10083000DE9880E060E00E940005DE9ADF9880E0AC
:1008400060E00E940005DF9A08950E94EF04C398BB
:1008500080E060E00E940005C39ADE9880E060E0DE
:100860000E940005DE9ADF9880E060E00E940005AB
:10087000DF9A089587E689B910BC86E880BD88E9CB
:100880008AB91CB8089510BC86E880BD88E98AB989
:100890001CB80895AC0120E030E009C05D9BFECF9C
:1008A000FA01E20FF31F80818CB92F5F3F4F2617AB
:1008B0003707A4F308955D9BFECF8CB90895982F58
:1008C0005D9BFECF892F82958F70805D8CB95D9B7B
:1008D000FECF9F70905D9CB908955D9BFECF8CB953
:1008E0000895FC0104C05D9BFECF31968CB98081D8
:1008F0008823C9F708955F9BFECF8CB10895DF93DD
:10090000CF93CDB7DEB72A970FB6F894DEBF0FBEF0
:10091000CDBFAE014F5F5F4F2AE030E00E94E1059E
:100920000E9471042A960FB6F894DEBF0FBECDBFA9
:10093000CF91DF910895DF93CF93CDB7DEB72A979C
:100940000FB6F894DEBF0FBECDBFAE014F5F5F4F55
:100950002AE030E00E9415060E9471042A960FB624
:10096000F894DEBF0FBECDBFCF91DF910895DF9326
:10097000CF93CDB7DEB72A970FB6F894DEBF0FBE80
:10098000CDBFBE016F5F7F4F4AE050E00E94C005BF
:100990000E9471042A960FB6F894DEBF0FBECDBF39
:1009A000CF91DF910895DF93CF93CDB7DEB72A972C
:1009B0000FB6F894DEBF0FBECDBFBE016F5F7F4F95
:1009C0004AE050E00E943A060E9471042A960FB64F
:1009D000F894DEBF0FBECDBFCF91DF9108951EB852
:1009E00083E58DB91FB81DB8089583E58DB90895C5
:1009F0001DB8089593E59DB98FB9779BFECF0895F3
:100A000093E59DB98FB9779BFECF6FB9779BFECFEA
:100A10000895FC0193E506C031969DB980818FB998
:100A2000779BFECF80818823B9F708951FB8779B05
:100A3000FECF80E00895482F6AE00E94B405282F79
:100A400030E084E0220F331F8A95E1F7842F0E9463
:100A5000B405892F820F0895282F22952F709AE0D0
:100A6000299F900111248F70820F0895A09A94E419
:100A700080E090FF02C0A89A01C0A8988F5F8830DC
:100A800011F09695F6CF0895A09A90E084E487FF40
:100A900002C0A89A01C0A8989F5F983011F0880FF3
:100AA000F6CF0895A09880E093B38F5F8830E1F788
:100AB0000895A09880E093B38F5F8830E1F70895A0
:100AC00040E050E00BC020E030E0000000002F5F6D
:100AD0003F4F24363105C9F74F5F5F4F481759071D
:100AE00094F308959D990CC09C990AC0E8ECF0E03D
:100AF0003197F1F79D9B10C09C990EC08F5F0895B0
:100B00009D9B0AC09C9908C0E8ECF0E03197F1F792
:100B10009D9902C09C9B815008959D990CC09C9BFF
:100B20000AC0E8ECF0E03197F1F79D9910C09C996C
:100B30000EC08F5F08959D9B0AC09C9908C0E8EC89
:100B4000F0E03197F1F79D9902C09C9B8150089588
:100B500028EC30E0F9013197F1F7F9013197F1F71D
:100B6000F9013197F1F70895991B79E004C0991FB5
:100B7000961708F0961B881F7A95C9F780950895F7
:100B8000FB019F01E8944230C4F04532B4F44A308E
:100B900029F497FB1EF4909581959F4F642F77273A
:100BA0000E946006805D8A330CF0895D8193CB01E1
:100BB0000097A1F716F45DE251931082C9010C94DD
:100BC0005006FA01CF93FF93EF93223044F1253280
:100BD00034F5C22FE894CA3049F497FB3EF490955F
:100BE0008095709561957F4F8F4F9F4F2C2F3327A6
:100BF00044275527FF93EF930E947406EF91FF91CE
:100C0000605D6A330CF0695D6193B901CA0160509F
:100C100070408040904051F716F4CDE2C1931082AD
:100C20008F919F91CF910C945006FA01CF93FF932F
:100C3000EF932230CCF02532BCF4C22F2C2F332777
:100C400044275527FF93EF930E947406EF91FF917D
:100C5000605D6A330CF0695D6193B901CA0160504F
:100C600070408040904051F710828F919F91CF91BA
:100C70000C945006FB019F01423074F0453264F43D
:100C8000642F77270E946006805D8A330CF0895DAF
:100C90008193CB010097A1F71082C9010C945006F3
:100CA000DC01FC01672F71917723E1F7329704C0D3
:100CB0007C916D9370836291AE17BF07C8F308955E
:100CC000AA1BBB1B51E107C0AA1FBB1FA617B70772
:100CD00010F0A61BB70B881F991F5A95A9F780958E
:100CE0009095BC01CD010895A1E21A2EAA1BBB1B51
:100CF000FD010DC0AA1FBB1FEE1FFF1FA217B307E8
:100D0000E407F50720F0A21BB30BE40BF50B661FFD
:100D1000771F881F991F1A9469F7609570958095C1
:100D200090959B01AC01BD01CF010895F894FFCFD0
:100D3000566F6C756D65200020202020202020201B
:100D4000204C200020202020416D706C6966657267
:100D5000204F6666202020200020202020416D703A
:100D60006C69666572204F6E202020202000502E76
:100D70005550494E4F562020502E53544F59414EF6
:100D80004F5600505245535345442042544E20453F
:100D90005343415045202000505245535345442071
:100DA00042544E20454E434F4445522000002832C5
:100DB0003C46505A646E78828C96A0AAB4BEC8D2C3
:100DC000D70E1B11111111111F0E1B111111111F23
:100DD0001F0E1B1111111F1F1F0E1B11111F1F1F93
:100DE0001F0E1B111F1F1F1F1F0E1B1F1F1F1F1F4B
:0A0DF0001F0E1F1F1F1F1F1F1F00F3
:00000001FF
