:100000000C942A000C945B000C9465000C946F0017
:100010000C9479000C9483000C943C000C943C00EC
:100020000C943C000C943C000C943C000C943C0060
:100030000C943C000C943C000C943C000C943C0050
:100040000C943C000C943C000C943C000C943C0040
:100050000C943C0011241FBECFE5D8E0DEBFCDBF1D
:1000600010E0A0E6B0E001C01D92AE36B107E1F7A6
:100070000E9496000C941D040C9400008FEF8ABB24
:100080001BBA88EB87BB87E088BB8CEC84BB15BAB6
:1000900080EF81BB8CE082BB089582E080BF81E865
:1000A00085BD13BC089581E885BD81E083BD0895B9
:1000B00015BC13BC08951F920F920FB60F92112416
:1000C0000F900FBE0F901F9018951F920F920FB6B2
:1000D0000F9211240F900FBE0F901F9018951F9232
:1000E0000F920FB60F9211240F900FBE0F901F901A
:1000F00018951F920F920FB60F9211240F900FBEFA
:100100000F901F9018951F920F920FB60F92112407
:100110000F900FBE0F901F9018950E943E0082E036
:1001200080BF81E885BD13BC0895FFCF0E948D007C
:100130007894949AFFCF0E948A0180EA0E949301EA
:1001400080E00E94930180E00E9493010E948A0156
:1001500081EA0E94930180E00E949A0180E00E945F
:100160009A0180E00E949A0180E00E949A0181E059
:100170000E949A010E94900108950E948A0180EADB
:100180000E94930180E00E94930180E00E9493010D
:1001900080E30E94930181E30E94930182E30E9425
:1001A000930183E30E94930184E30E9493010E94E0
:1001B00090010895B89AC09880E897E00197F1F708
:1001C000B89880E491E00197F1F7B09B02C080E01D
:1001D000089588E097E00197F1F781E00895B89AD3
:1001E000C09885E08A95F1F7B89880E48A95F1F790
:1001F00086B381700895B89AC0988111C09A88EB2F
:1002000091E00197F1F7B898C0980895CF92DF92E6
:10021000EF92FF921F93CF93DF9310E0C0E0D0E006
:1002200091E0C92ED12C80EEE82E81E0F82E0E94BC
:10023000EF00882341F0C6010C2E02C0880F991FE1
:100240000A94E2F7182BC7010197F1F72196C830FD
:10025000D10569F7812FDF91CF911F91FF90EF902A
:10026000DF90CF9008950F931F93CF93DF93C0E05B
:10027000D0E0082F10E0C8010C2E02C0959587959C
:100280000A94E2F780FF02C081E001C080E00E9492
:10029000FB002196C830D10571F780EE91E00197FF
:1002A000F1F7DF91CF911F910F9108950E94EF0018
:1002B0008823E1F30895CF93DF930E94DA00882327
:1002C000E9F08CEC0E94330184E40E9433010E9427
:1002D00056010E94DA00882389F08CEC0E943301D9
:1002E0008EEB0E943301C1E6D0E00E9406018993A3
:1002F00080E0CA36D807C9F781E001C080E0DF910D
:10030000CF91089582E180B981E081B984E086BF10
:1003100013B8089584EA86BF06B607FEFDCF089598
:1003200084E986BF089583B984E886BF06B607FED0
:10033000FDCF0895882311F484EC01C084E886BFC2
:1003400006B607FEFDCF83B1089590E0D99887FFE8
:1003500002C0D89A01C0D898D99A9F5F983011F0FE
:10036000880FF4CFDA9888EA92E0FC013197F1F730
:10037000DA9A0197F1F7DD98DC98DB9A80E991E051
:10038000FC013197F1F7DB980197F1F7089581E0CF
:100390000E94A50182E00E94A5018FE00E94A501B4
:1003A0008CE30E94A5010895CF93DF9340E050E0D5
:1003B000C8EAD2E0A0E9B1E025C0FC01E40FF51FD6
:1003C000E08120E0D998E7FF02C0D89A01C0D89810
:1003D000D99A2F5F283011F0EE0FF4CFDA98FE0192
:1003E0003197F1F7DA9AFE013197F1F7DD9ADC984F
:1003F000DB9AFD013197F1F7DB98FD013197F1F7B9
:100400004F5F5F4F46175707C4F2DF91CF910895B2
:1004100090E0D99887FF02C0D89A01C0D898D99A9D
:100420009F5F983011F0880FF4CFDA9888EA92E055
:10043000FC013197F1F7DA9A0197F1F7DD9ADC9830
:10044000DB9A80E991E0FC013197F1F7DB980197A5
:10045000F1F70895DB98DC98DD9A80E991E0FC01E2
:100460003197F1F7DB9ADC98DD9A0197F1F708955F
:10047000FC0148EA52E020E931E020C090E0D99840
:1004800087FF02C0D89A01C0D898D99A9F5F983048
:1004900011F0880FF4CF3196DA98CA010197F1F77D
:1004A000DA9ACA010197F1F7DD9ADC98DB9AC90163
:1004B0000197F1F7DB98C9010197F1F78081882353
:1004C000E9F60895DF93CF93CDB7DEB72A970FB63D
:1004D000F894DEBF0FBECDBFBE016F5F7F4F4AE015
:1004E00050E00E9447030E9438022A960FB6F89403
:1004F000DEBF0FBECDBFCF91DF910895C3988FB9F6
:10050000779BFECF6FB9779BFECFC39A0895DE9895
:100510008FB9779BFECF6FB9779BFECFDE9A089598
:10052000DF988FB9779BFECF6FB9779BFECFDF9AAD
:10053000089587E689B910BC86E880BD88E98AB944
:100540001CB80895AC0120E030E009C05D9BFECFEF
:10055000FA01E20FF31F80818CB92F5F3F4F2617FE
:100560003707A4F308955D9BFECF8CB90895982FAB
:100570005D9BFECF892F82958F70805D8CB95D9BCE
:10058000FECF9F70905D9CB908955D9BFECF8CB9A6
:100590000895FC0104C05D9BFECF31968CB980812B
:1005A0008823C9F708955F9BFECF8CB10895DF9330
:1005B000CF93CDB7DEB72A970FB6F894DEBF0FBE44
:1005C000CDBFAE014F5F5F4F2AE030E00E9468036D
:1005D0000E94C9022A960FB6F894DEBF0FBECDBFA7
:1005E000CF91DF910895DF93CF93CDB7DEB72A97F0
:1005F0000FB6F894DEBF0FBECDBFAE014F5F5F4FA9
:100600002AE030E00E949C030E94C9022A960FB69D
:10061000F894DEBF0FBECDBFCF91DF910895DF9379
:10062000CF93CDB7DEB72A970FB6F894DEBF0FBED3
:10063000CDBFBE016F5F7F4F4AE050E00E9447038D
:100640000E94C9022A960FB6F894DEBF0FBECDBF36
:10065000CF91DF910895DF93CF93CDB7DEB72A977F
:100660000FB6F894DEBF0FBECDBFBE016F5F7F4FE8
:100670004AE050E00E94C1030E94C9022A960FB6C8
:10068000F894DEBF0FBECDBFCF91DF910895FB017F
:100690009F01E8944230C4F04532B4F44A3029F462
:1006A00097FB1EF4909581959F4F642F77270E94AA
:1006B000E703805D8A330CF0895D8193CB0100975D
:1006C000A1F716F45DE251931082C9010C94D7038F
:1006D000FA01CF93FF93EF93223044F1253234F5A2
:1006E000C22FE894CA3049F497FB3EF49095809568
:1006F000709561957F4F8F4F9F4F2C2F3327442745
:100700005527FF93EF930E94FB03EF91FF91605DEC
:100710006A330CF0695D6193B901CA0160507040A1
:100720008040904051F716F4CDE2C19310828F9132
:100730009F91CF910C94D703FA01CF93FF93EF933E
:100740002230CCF02532BCF4C22F2C2F3327442783
:100750005527FF93EF930E94FB03EF91FF91605D9C
:100760006A330CF0695D6193B901CA016050704051
:100770008040904051F710828F919F91CF910C94BF
:10078000D703FB019F01423074F0453264F4642FBB
:1007900077270E94E703805D8A330CF0895D81939F
:1007A000CB010097A1F71082C9010C94D703DC019B
:1007B000FC01672F71917723E1F7329704C07C9198
:1007C0006D9370836291AE17BF07C8F30895AA1B9B
:1007D000BB1B51E107C0AA1FBB1FA617B70710F02C
:1007E000A61BB70B881F991F5A95A9F7809590955E
:1007F000BC01CD010895A1E21A2EAA1BBB1BFD016D
:100800000DC0AA1FBB1FEE1FFF1FA217B307E407EF
:10081000F50720F0A21BB30BE40BF50B661F771F47
:10082000881F991F1A9469F7609570958095909527
:0E0830009B01AC01BD01CF010895F894FFCFEC
:00000001FF
