:100000000C942A000C9444050C9497000C94A100C5
:100010000C94AB000C94B5000C9447000C94470072
:100020000C9447000C9447000C9447000C94470034
:100030000C9447000C9447000C9447000C94470024
:100040000C9447000C9447000C9447000C94470014
:100050000C94470011241FBECFE5D8E0DEBFCDBF12
:1000600016E0A0E6B0E0E8E3F8E102C005900D92EA
:10007000AC3BB107D9F716E0ACEBB6E001C01D927E
:10008000A73EB107E1F70E947D040C941A0C0C9472
:1000900000008FEF8ABB1BBA88EB87BB87E088BB69
:1000A0008CEC84BB15BA80EF81BB8CE082BB0895D9
:1000B00082E085BF089580E48BBF8ABF08951BBE90
:1000C00080E48ABF08950895089519BE1DBC1CBC24
:1000D000089582E080BF81E885BD13BC089581EA60
:1000E0008FBD81E08EBD1BBC80917706E8E7F6E00E
:1000F000E80FF11D80818ABD08951FBC1EBC1BBC8A
:100100001ABC089581EA8FBD81E08EBD1BBC809131
:100110007706E8E7F6E0E80FF11D80818ABD0895D3
:100120001FBC1EBC1BBC1ABC0895089508951F92E5
:100130000F920FB60F9211240F900FBE0F901F90C9
:1001400018951F920F920FB60F9211240F900FBEA9
:100150000F901F9018951F920F920FB60F921124B7
:100160000F900FBE0F901F9018951F920F920FB611
:100170000F9211240F900FBE0F901F9018950F93A0
:100180001F9300E610E0C8010E948B0884EA90E00B
:100190000E948B0881EE90E00E948B088AE191E03A
:1001A0000E948B088CE190E00E94DE088EE391E0D3
:1001B0000E948B08C8010E948B0881E491E00E9494
:1001C0008B081F910F9108950E94490019BE1DBC14
:1001D0001CBC0E9445070E9495080E94BF000E9417
:1001E0003A080E941A0A0E94410A08951F9310912A
:1001F000BE068091BF06882361F5112379F485EF4F
:1002000091E00E948B0880E090E00E94DE088FE081
:1002100092E00E948B0880E090E013C08BE192E0B6
:100220000E948B0885EF91E00E948B081695812F24
:1002300090E00E94DE088FE092E00E948B08812F00
:1002400090E00E94EB0786E192E00E94560780E072
:100250001BC08F3FA1F4112391F08DE192E00E9429
:100260008B0885EF91E00E948B08812F90E08F5FD3
:10027000904062E070E00E94310B162FD8CF8FE1E2
:1002800092E00E948B0881E01F910895CF93DF9345
:1002900080E492E00E948B080E94D705882309F42D
:1002A0004DC085E50E94300680E10E9430068DE653
:1002B0000E94300684EF0E9430068FE80E943006CC
:1002C00082E00E94300688E00E94300680E00E94B2
:1002D000300681EB0E94300684E40E9430060E94C2
:1002E00053060E94D705882349F185E50E94300610
:1002F00080E10E9430068DE60E94300684EF0E9465
:1003000030068FE80E94300682E00E94300688E0C6
:100310000E94300680E00E94300681EB0E94300689
:100320008EEB0E943006CEEBD6E00E940306899346
:1003300086E0C73CD807C9F781E001C080E0DF91C3
:10034000CF910895CF93DF9381E892E00E948B08CC
:100350000E94D705882309F44DC085E50E94300628
:1003600080E10E9430068BED0E94300689E00E94F9
:10037000300685EA0E94300681E00E94300688E05F
:100380000E94300680E00E94300681EC0E94300618
:1003900084E40E9430060E9453060E94D7058823F9
:1003A00049F185E50E94300680E10E9430068BED20
:1003B0000E94300689E00E94300685EA0E943006DD
:1003C00081E00E94300688E00E94300680E00E94B2
:1003D000300681EC0E9430068EEB0E943006CEEB98
:1003E000D6E00E940306899386E0C73CD807C9F788
:1003F00081E001C080E0DF91CF910895CF93DF933A
:1004000080E00E941E0781EC92E00E94560780EC7B
:100410000E941E0784ED92E00E9456070E94A201EE
:10042000C0E0D0E083EE92E00E948B08CE010E94F3
:10043000DE0885EF92E00E948B08FE01E254F94F3E
:10044000808190E00E94DE088EE391E00E948B089C
:100450002196C930D10531F78091DB066091D7062E
:100460004091D6062091D3060E94F60084E90E94AE
:100470001E0789EF92E00E9456070E944601C0E0E5
:10048000D0E083EE92E00E948B08CE010E94DE084D
:1004900085EF92E00E948B08FE01E254F94F8081C3
:1004A00090E00E94DE088EE391E00E948B08219686
:1004B000C930D10531F78091DB066091D7064091B4
:1004C000D6062091D3060E94F60084ED0E941E07F6
:1004D00088E093E00E945607DF91CF9108950E9433
:1004E0009909882309F44FC08F3F41F58091C806D0
:1004F000803811F48FE701C081508093C80694982A
:100500008CE00E941E0784ED0E941E078091C806A1
:1005100084361CF08DE193E007C08A301CF086E23F
:1005200093E002C080E393E00E9456078091C806E2
:10053000992787FD90950E94EB070895813019F562
:100540008091C8068F5F8093C80694988CE00E94C3
:100550001E0784ED0E941E078091C80684361CF099
:100560008DE193E007C08A301CF086E293E002C080
:1005700080E393E00E9456078091C806992787FD83
:1005800090950E94EB070895E091BD06F0E0ED59CB
:10059000F94F6081862F0E94230884ED0E941E0778
:1005A0008091BD068A3018F08DE193E002C086E2AA
:1005B00093E00E9456078091BD0690E00E94EB07F1
:1005C0008BE393E00E948B088091BD0690E00E942F
:1005D000DE088EE391E00E948B080895E091D90631
:1005E000F091DA06808181FD0CC08091BD06809378
:1005F000BC061092BD0680818260808380E593E016
:100600000BC08091BC068093BD061092BC06808111
:100610008D7F808380E793E00E948B080E94C40254
:1006200008958F3F69F48091BD06882319F41092D4
:10063000BD0603C081508093BD060E94C402089588
:10064000813059F48091BD06833110F083E101C0FF
:100650008F5F8093BD060E94C40208950E9499098D
:100660008823E1F08F3F69F48091BD06882319F457
:100670001092BD0603C081508093BD060E94C40243
:100680000895813059F48091BD06833110F083E1E3
:1006900001C08F5F8093BD060E94C4020895E0915F
:1006A000D906F091DA0680818E7F808380E00E94F7
:1006B0001E0781E993E00E94560788E00E941E070A
:1006C00086EA93E00E948B080E943D0A88E59BE140
:1006D00020E931E0F9013197F1F70197D9F784EE7C
:1006E00093E00E948B080E94160A88E59BE120E9AE
:1006F00031E0F9013197F1F70197D9F781E294E000
:100700000E948B08AA9887E594E00E948B081FBC82
:100710001EBC1BBC1ABC0E943D0780E794E00E94EF
:100720008B08949A8CE994E00E948B0888E893E106
:1007300020E931E0F9013197F1F70197D9F70895F0
:10074000E091D906F091DA068081816080838AEB9E
:1007500094E00E948B0887ED94E00E948B089498A7
:100760000E943D0780E00E941E0783E095E00E9402
:10077000560780EC0E941E0788E195E00E9456070C
:100780008CE00E941E078DE295E00E948B0885E4B4
:1007900095E00E948B0881EA8FBD81E08EBD1BBC75
:1007A000E0917706F0E0E858F94F80818ABD85EA4C
:1007B00095E00E948B08AA9A80E49CE920E931E048
:1007C000F9013197F1F70197D9F78AED95E00E9489
:1007D0008B080E94020A88E59BE120E931E0F901DB
:1007E0003197F1F70197D9F786E196E00E948B08DF
:1007F0000E94390A80E197E220E931E0F90131975E
:10080000F1F70197D9F70895CF93DF9381EE96E042
:100810009093DA068093D9068091E1068C7F8093CD
:10082000E106C0E9D1E0B1990AC0E091D906F091A2
:10083000DA06808180FD03C00E94A003F4CFB19945
:100840000AC0E091D906F091DA06808180FF03C0EA
:100850000E944F03E8CFB29911C0E091D906F09100
:10086000DA06808180FF0AC00E943D0788E893E194
:10087000FE013197F1F70197D9F7D5CF83990FC0D2
:10088000E091D906F091DA06808180FF08C088E8FF
:1008900093E1FE013197F1F70197D9F7C4CFB299EF
:1008A0000FC0E091D906F091DA06808180FD08C082
:1008B00088E893E1FE013197F1F70197D9F7B3CFBB
:1008C000839911C0E091D906F091DA06808180FD0C
:1008D0000AC00E94FE0188E893E1FE013197F1F71A
:1008E0000197D9F7A0CFE091D906F091DA0680817F
:1008F00080FF99CF0E942E0396CF0E94E40080E4EF
:100900008BBF8ABF7894949A0E940404FDCF0E9402
:10091000450A9091DD06913029F48091D806853101
:1009200099F406C0943029F58091D8068D3099F459
:10093000E091D906F091DA06808180FD03C00E9423
:10094000A00398C0913029F48091D8068531B1F484
:1009500006C0943071F48091D8068D3079F4E0911E
:10096000D906F091DA06808180FF03C00E944F0310
:1009700081C0913019F0943009F07CC02091D806E4
:10098000223149F4E091D906F091DA06808180FFA6
:1009900002C081E00FC0913019F0943009F06AC0B4
:1009A000233159F4E091D906F091DA06808180FF75
:1009B00004C08FEF0E9411035DC0913019F0943094
:1009C00009F058C0243151F4E091D906F091DA06CB
:1009D000808180FF03C00E94EE024CC0943009F079
:1009E00049C0223381F4E091D906F091DA06808182
:1009F00080FF40C080917706882319F41092770613
:100A000014C0815010C02333A9F5E091D906F091AC
:100A1000DA06808180FF2EC080917706873010F043
:100A200087E001C08F5F8093770684ED0E941E07E8
:100A300083E596E00E9456078091770690E00E9439
:100A4000EB078EE596E00E945607E0917706F0E00E
:100A5000E858F94F808190E00E94EB0781EA8FBD52
:100A600081E08EBD1BBCE0917706F0E0E858F94FBD
:100A700080818ABD80ED97E020E931E0F90131976E
:100A8000F1F70197D9F708951F920F920FB60F92C1
:100A900011242F933F934F935F936F937F938F9383
:100AA0009F93AF93BF93EF93FF931BBE80E48ABFE6
:100AB00082990BC08AE0982F9A95F1F7982F9A9512
:100AC000F1F78A95F1F70E94870480E48BBF8ABF13
:100AD000FF91EF91BF91AF919F918F917F916F9116
:100AE0005F914F913F912F910F900FBE0F901F90EC
:100AF00018950E94870680EA0E94900680E00E9476
:100B0000900680E00E9490060E94870681EA0E947B
:100B1000900680E00E94970680E00E94970680E0A1
:100B20000E94970680E00E94970680E00E94970648
:100B300081E00E9497060E948D0608950E94870614
:100B400080EA0E94900680E00E94900680E00E9469
:100B5000900680E30E94900681E30E94900682E363
:100B60000E94900683E30E94900684E30E94900610
:100B70000E948D060895CF93DF930E94870680EA36
:100B80000E94900680E00E94900680E00E949006FD
:100B9000C0E0D0E080E00E94900621968FE1CF3F38
:100BA000D807C1F70E948D06DF91CF910895B89ABA
:100BB000C09880E897E00197F1F7B89880E491E059
:100BC0000197F1F7B09B02C080E0089588E097E0BC
:100BD0000197F1F781E00895B89AC09885E08A9569
:100BE000F1F7B89880E48A95F1F786B3817008959B
:100BF000B89AC0988111C09A88EB91E00197F1F7FB
:100C0000B898C0980895CF92DF92EF92FF921F9309
:100C1000CF93DF9310E0C0E0D0E091E0C92ED12C5B
:100C200080EEE82E81E0F82E0E94EC05882341F04A
:100C3000C6010C2E02C0880F991F0A94E2F7182BE8
:100C4000C7010197F1F72196C830D10569F7812FC7
:100C5000DF91CF911F91FF90EF90DF90CF9008959B
:100C60000F931F93CF93DF93C0E0D0E0082F10E0E5
:100C7000C8010C2E02C0959587950A94E2F780FF73
:100C800002C081E001C080E00E94F8052196C830D2
:100C9000D10571F780EE91E00197F1F7DF91CF91E7
:100CA0001F910F9108950E94EC058823E1F30895A8
:100CB000CF93DF930E94D7058823E9F08CEC0E9444
:100CC000300684E40E9430060E9453060E94D70535
:100CD000882389F08CEC0E9430068EEB0E9430064F
:100CE000C9ECD6E00E940306899386E0C23DD8078E
:100CF000C9F781E001C080E0DF91CF91089582E1E2
:100D000080B981E081B984E086BF13B8089584EA90
:100D100086BF06B607FEFDCF089584E986BF089515
:100D200083B984E886BF06B607FEFDCF0895882301
:100D300011F484EC01C084E886BF06B607FEFDCF3F
:100D400083B1089590E0D99887FF02C0D89A01C076
:100D5000D898D99A9F5F983011F0880FF4CFDD981A
:100D6000DC98DB9ADA9888EA92E0FC013197F1F797
:100D7000DA9A0197F1F7DB9880E991E00197F1F7B2
:100D80000895CF93DF9340E050E0A8EAB2E0C0E9D5
:100D9000D1E022C0FC01E40FF51FE08120E0D998EA
:100DA000E7FF02C0D89A01C0D898D99A2F5F28309F
:100DB00011F0EE0FF4CFDD9ADC98DB9ADA98FD01A2
:100DC0003197F1F7DA9AFD013197F1F7DB98FE01DF
:100DD0003197F1F74F5F5F4F46175707DCF2DF910E
:100DE000CF91089590E0D99887FF02C0D89A01C0AA
:100DF000D898D99A9F5F983011F0880FF4CFDD9A78
:100E0000DC98DB9ADA9888EA92E0FC013197F1F7F6
:100E1000DA9A0197F1F7DB9880E991E00197F1F711
:100E20000895DB98DC98DD9A85ED982F9A95F1F777
:100E3000DB9ADC98DD9A8A95F1F7089590E0D998CD
:100E400087FF02C0D89A01C0D898D99A9F5F98307E
:100E500011F0880FF4CFDD98DC98DB9ADA9888EAF5
:100E600092E0FC013197F1F7DA9A0197F1F7DB98FC
:100E700080E991E00197F1F7089581E00E941E0753
:100E800080EC92E10197F1F7089588E30E941E0734
:100E900086E00E941E0782E00E941E0781E00E94F9
:100EA0001E0780EC92E10197F1F70895FC0128EA12
:100EB00032E040E951E01DC090E0D99887FF02C0C0
:100EC000D89A01C0D898D99A9F5F983011F0880FAE
:100ED000F4CF3196DD9ADC98DB9ADA98C901019754
:100EE000F1F7DA9AC9010197F1F7DB98CA01019786
:100EF000F1F78081882301F70895CF93DF93109253
:100F0000E4061092E30625C00896880F880F880F24
:100F10000E94A206C0E0D0E0E091E306F091E40672
:100F200083E0EE0FFF1F8A95E1F7EC0FFD1FE058FD
:100F3000F94F80810E94F2062196C830D10561F7F1
:100F40008091E3069091E40601969093E4068093E5
:100F5000E3068091E3069091E40687309105A4F2C0
:100F6000DF91CF910895DF93CF93CDB7DEB72A9766
:100F70000FB6F894DEBF0FBECDBFAE014F5F5F4F1F
:100F80002AE030E00E94AD0B0E9456072A960FB669
:100F9000F894DEBF0FBECDBFCF91DF910895DF93F0
:100FA000CF93CDB7DEB72A970FB6F894DEBF0FBE4A
:100FB000CDBFAE014F5F5F4F2AE030E00E94790B5A
:100FC0000E9456072A960FB6F894DEBF0FBECDBF1B
:100FD000CF91DF910895DF93CF93CDB7DEB72A97F6
:100FE0000FB6F894DEBF0FBECDBFBE016F5F7F4F5F
:100FF0004AE050E00E94580B0E9456072A960FB60E
:10100000F894DEBF0FBECDBFCF91DF910895DF937F
:10101000CF93CDB7DEB72A970FB6F894DEBF0FBED9
:10102000CDBFBE016F5F7F4F4AE050E00E94D20B00
:101030000E9456072A960FB6F894DEBF0FBECDBFAA
:10104000CF91DF9108950F931F93182F062FC39808
:101050000E942709C39ADE98812F602F0E942709DA
:10106000DE9ADF98812F602F0E942709DF9A1F9157
:101070000F9108950E941609C39880E060E00E94D5
:101080002709C39ADE9880E060E00E942709DE9A73
:10109000DF9880E060E00E942709DF9A08950E94AF
:1010A0001609C39880E060E00E942709C39ADE9881
:1010B00080E060E00E942709DE9ADF9880E060E02F
:1010C0000E942709DF9A0895AC0120E030E009C0B2
:1010D0005D9BFECFFA01E20FF31F80818CB92F5F79
:1010E0003F4F26173707A4F308955D9BFECF8CB9B9
:1010F0000895982F5D9BFECF892F82958F70805D1C
:101100008CB95D9BFECF9F70905D9CB908955D9BEF
:10111000FECF8CB90895FC0104C05D9BFECF3196D3
:101120008CB980818823C9F7089587E689B910BCF6
:1011300086E880BD88E08AB91CB888EB96E00E94FA
:101140008B0808955F9BFECF8CB10895DF93CF93FA
:10115000CDB7DEB72A970FB6F894DEBF0FBECDBF6E
:10116000AE014F5F5F4F2AE030E00E94790B0E9492
:101170008B082A960FB6F894DEBF0FBECDBFCF9175
:10118000DF910895DF93CF93CDB7DEB72A970FB6DF
:10119000F894DEBF0FBECDBFAE014F5F5F4F2AE0B8
:1011A00030E00E94AD0B0E948B082A960FB6F8948F
:1011B000DEBF0FBECDBFCF91DF910895DF93CF93F8
:1011C000CDB7DEB72A970FB6F894DEBF0FBECDBFFE
:1011D000BE016F5F7F4F4AE050E00E94580B0E94B3
:1011E0008B082A960FB6F894DEBF0FBECDBFCF9105
:1011F000DF910895DF93CF93CDB7DEB72A970FB66F
:10120000F894DEBF0FBECDBFBE016F5F7F4F4AE0D7
:1012100050E00E94D20B0E948B082A960FB6F894D9
:10122000DEBF0FBECDBFCF91DF9108951EB883E51D
:101230008DB91FB81DB8089583E58DB908951DB8FF
:10124000089593E59DB98FB9779BFECF089593E5F7
:101250009DB98FB9779BFECF6FB9779BFECF08956D
:10126000FC0193E506C031969DB980818FB9779BCB
:10127000FECF80818823B9F708951FB8779BFECFF2
:1012800080E00895482F6AE00E94250B282F30E067
:1012900084E0220F331F8A95E1F7842F0E94250BEB
:1012A000892F820F0895282F22952F709AE0299F69
:1012B000900111248F70820F0895A09A94E480E029
:1012C00090FF02C0A89A01C0A8988F5F883011F0E3
:1012D0009695F6CF0895A09A94E480E097FF02C017
:1012E000A89A01C0A8988F5F883011F0990FF6CFA7
:1012F0000895A09880E093B38F5F8830E1F7089558
:10130000A09880E093B38F5F8830E1F7089540E0C4
:1013100050E00BC020E030E0000000002F5F3F4FA6
:1013200024363105C9F74F5F5F4F4817590794F3CB
:1013300008959D990EC09C990CC088EC90E001978F
:10134000F1F79D9B14C083B382958F708095817057
:1013500008959D9B0CC09C990AC088EC90E0019771
:10136000F1F79D9904C09C9902C08FEF089580E029
:1013700008959D990EC09C9B0CC088EC90E001974D
:10138000F1F79D9914C083B382958F708095817019
:1013900008959D9B0CC09C990AC088EC90E0019731
:1013A000F1F79D9904C09C9902C08FEF089580E0E9
:1013B000089588EC90E0FC013197F1F7FC0131973A
:1013C000F1F70197F1F780E008950895089590E00E
:1013D000AE9880FF02C0AF9A01C0AF98AE9A9F5FEF
:1013E000983011F08695F4CFAB9888EA92E0FC0132
:1013F0003197F1F7AB9A0197F1F7089580E20E94D7
:10140000E709089581E60E94E70908958AE00E94AD
:10141000E70908958AE90E94E70908958CE00E948F
:10142000E70908958CE90E94E709089580E00E9489
:10143000E709089580E00E94E709089590E09698F2
:1014400080FF02C0C49A01C0C498969A9F5F9830EA
:1014500011F08695F4CF979888EA92E0FC013197D5
:10146000F1F7979A0197F1F7089580E80E941E0A14
:1014700008958CEF0E941E0A089580E00E941E0AC3
:10148000089580E00E941E0A08951092D8061092D6
:10149000DD068299FECF20E040E253E004C02F5FDA
:1014A000CA010197F1F7829BFACF2B50233070F5D8
:1014B00040E030E060E273E036958299FECF20E0B4
:1014C00004C02F5FCB010197F1F7829BFACF263042
:1014D00008F030644F5F473079F73093D80640E02A
:1014E00030E060E273E036958299FECF20E004C0E0
:1014F0002F5FCB010197F1F7829BFACF263008F0DE
:1015000030614F5F453079F73093DD0608951092D2
:10151000D8061092DD068299FECF20E040E253E02B
:1015200004C02F5FCA010197F1F7829BFACF2B50BD
:10153000233070F540E030E060E273E03695829948
:10154000FECF20E004C02F5FCB010197F1F7829B13
:10155000FACF263008F030644F5F473079F7309388
:10156000D80640E030E060E273E036958299FECF25
:1015700020E004C02F5FCB010197F1F7829BFACFE7
:10158000263008F030614F5F483079F73093DD0640
:1015900008951092D8061092DD061092DF06829907
:1015A000FECF20E040E253E004C02F5FCA01019764
:1015B000F1F7829BFACF2B50233008F045C040E072
:1015C00030E060E273E036958299FECF20E004C0FF
:1015D0002F5FCB010197F1F7829BFACF263008F0FD
:1015E00030644F5F473079F73093D80640E030E001
:1015F00060E273E036958299FECF20E004C02F5F51
:10160000CB010197F1F7829BFACF263008F03061C9
:101610004F5F453079F73093DD0640E030E060E21F
:1016200073E036958299FECF20E004C02F5FCB0196
:101630000197F1F7829BFACF263008F030614F5FB7
:10164000483079F73093DF060895991B79E004C09C
:10165000991F961708F0961B881F7A95C9F78095F1
:10166000089597FB092E07260AD077FD04D00CD0E9
:1016700006D000201AF4709561957F4F0895F6F713
:10168000909581959F4F0895AA1BBB1B51E107C000
:10169000AA1FBB1FA617B70710F0A61BB70B881F02
:1016A000991F5A95A9F780959095BC01CD01089591
:1016B000FB019F01E8944230C4F04532B4F44A3053
:1016C00029F497FB1EF4909581959F4F642F7727FF
:1016D0000E94440B805D8A330CF0895D8193CB01BD
:1016E0000097A1F716F45DE251931082C9010C94A2
:1016F000E80BFA01CF93FF93EF93223044F12532A8
:1017000034F5C22FE894CA3049F497FB3EF4909523
:101710008095709561957F4F8F4F9F4F2C2F33276A
:1017200044275527FF93EF930E94F80BEF91FF9109
:10173000605D6A330CF0695D6193B901CA01605064
:1017400070408040904051F716F4CDE2C193108272
:101750008F919F91CF910C94E80BFA01CF93FF9357
:10176000EF932230CCF02532BCF4C22F2C2F33273C
:1017700044275527FF93EF930E94F80BEF91FF91B9
:10178000605D6A330CF0695D6193B901CA01605014
:1017900070408040904051F710828F919F91CF917F
:1017A0000C94E80BFB019F01423074F0453264F465
:1017B000642F77270E94440B805D8A330CF0895D8B
:1017C0008193CB010097A1F71082C9010C94E80B1B
:1017D000DC01FC01672F71917723E1F7329704C098
:1017E0007C916D9370836291AE17BF07C8F3089523
:1017F000A1E21A2EAA1BBB1BFD010DC0AA1FBB1F15
:10180000EE1FFF1FA217B307E407F50720F0A21B86
:10181000B30BE40BF50B661F771F881F991F1A94F3
:1018200069F760957095809590959B01AC01BD011D
:08183000CF010895F894FFCFE9
:101838005B5541525420494E464F5D203D3D3D3D4C
:101848003D3D3D3D3D3D3D3D3D3D3D3D3D3D3D3DC0
:101858003D3D3D3D3D3D3D3D3D3D3D3D3D3D3D3DB0
:101868003D3D3D3D3D3D3D3D3D3D3D3D3D3D3D3DA0
:101878003D0D0A005B5541525420494E464F5D20AC
:1018880009417574686F727320616E6420637265B4
:1018980061746F72733A20502E5570696E6F76209E
:1018A800616E6420502E53746F79616E6F760D0AE5
:1018B800005B5541525420494E464F5D200944650E
:1018C80076696365206E616D653A2044696769745D
:1018D800616C20436F6E74726F6C20417564696F20
:1018E8002053797374656D0D0A005B55415254207D
:1018F800494E464F5D20094669726D7761726520D1
:1019080076657273696F6E206265746120000D0AD6
:10191800005B5541525420494E464F5D204461209A
:10192800646F626176712075707261766C656E693C
:1019380065206E613A0909090909090D0A5B5541D3
:10194800525420494E464F5D202D2046414E20736B
:101958006D61727420636F6E74726F6C6C696E6700
:101968000909090909090909090D0A5B5541525470
:1019780020494E464F5D202D204453313853323094
:101988000909090909090909090909090D0A5B551C
:1019980041525420494E464F5D202D205254430950
:1019A8000909090909090909090909090D0A5B55FC
:1019B80041525420494E464F5D202D204D656D6F94
:1019C80072790D0A005B5541525420494E464F5DCD
:1019D8002054656D70657261747572653A20002EC9
:1019E8003020430D0A002E302043002B002D005BD1
:1019F80055415254204552524F525D204552524F44
:101A0800522054454D50455241545552450D0A00F7
:101A18005B5541525420494E464F5D2054454D5028
:101A2800455241545552452053454E534F5220522A
:101A3800494748543A20313020364420463420382B
:101A480046203032203038203030204231200D0AF4
:101A5800005B5541525420494E464F5D2054454D38
:101A680050455241545552452053454E534F5220EC
:101A78004C4546543A2031302044422030392041E8
:101A880035203031203038203030204331200D0AC5
:101A9800002020202054455045524154555245209D
:101AA800202020004C454654202053454E534F5289
:101AB8003A20005B5541525420494E464F5D206202
:101AC8007974652000203A20005249474854205331
:101AD800454E534F523A200020202020202020201D
:101AE80020202020204453313878323000566F6C43
:101AF800756D653A2000566F6C756D653A2030003B
:101B0800566F6C756D653A203030005B5541525404
:101B180020494E464F5D20566F6C756D653A200022
:101B28005B5541525420494E464F5D20566F6C75A7
:101B38006D65206D757465206973206F6E0D0A00E0
:101B48005B5541525420494E464F5D20566F6C7587
:101B58006D65206D757465206973206F66660D0A62
:101B68000020202020416D706C69666572204F66E8
:101B78006620202020005B5541525420494E464F94
:101B88005D2054727920746F2073776974636820BC
:101B98006F66662072656C617973206F7574206654
:101BA8006F7220616C6C2036206368616E6E656CA4
:101BB800730D0A005B5541525420494E464F5D2033
:101BC80054727920746F20737769746368206F6624
:101BD800662072656C61797320696E20666F722069
:101BE800616C6C2036206368616E6E656C730D0ADB
:101BF800005B5541525420494E464F5D205472793E
:101C080020746F20737769746368206F666620722A
:101C1800656C61797320666F7220706F77657220CA
:101C2800323230560D0A005B5541525420494E4617
:101C38004F5D2046616E206973206F66660D0A004D
:101C48005B5541525420494E464F5D20446973709C
:101C58006C6179206F666620616E642073746174AC
:101C68007573206C6564206F6E0D0A005B554152D8
:101C78005420494E464F5D20416D706C696665720F
:101C8800206973206F66660D0A005B554152542027
:101C9800494E464F5D20416D706C696665722069DA
:101CA80073206F6E0D0A005B5541525420494E4611
:101CB8004F5D20446973706C6179206F6E20616E8E
:101CC8006420737461747573206C6564206F666634
:101CD8000D0A0020202020416D706C696665722015
:101CE8004F6E202020202000502E5550494E4F5630
:101CF8002020502E53544F59414E4F56005B5541AA
:101D0800525420494E464F5D2046616E206973202B
:101D18006F6E0D0A005B5541525420494E464F5D87
:101D28002046616E20697320616C77617973206F3A
:101D38006E2C2069742069736E27742073656E7326
:101D4800697469766520746F2074656D7065726159
:101D5800747572652C2062656361757365204453E0
:101D680031385332302069732064697361626C6959
:101D78006E670D0A005B5541525420494E464F5D2F
:101D88002054727920746F20737769746368206FA8
:101D98006E2072656C61797320666F7220706F7740
:101DA800657220323230560D0A005B55415254207C
:101DB800494E464F5D2054727920746F20737769BD
:101DC800746368206F6E2072656C61797320696E28
:101DD80020666F7220616C6C2036206368616E6EBD
:101DE800656C730D0A005B5541525420494E464FAD
:101DF8005D2054727920746F20737769746368204A
:101E08006F6E2072656C617973206F757420666FD0
:101E18007220616C6C2036206368616E6E656C732D
:101E28000D0A0046616E20537465703A2000206FD9
:101E38007220000028323C46505A646E78828C9694
:101E4800A0AAB4BEC8D2D70100647D96AFC8E1FA93
:101E58000E1B11111111111F0E1B111111111F1F32
:101E68000E1B1111111F1F1F0E1B11111F1F1F1FEA
:101E78000E1B111F1F1F1F1F0E1B1F1F1F1F1F1FA2
:0C1E88000E1F1F1F1F1F1F1F0D0A000050
:00000001FF
