:100000000C942A000C9466000C9470000C947A00F6
:100010000C9484000C948E000C9447000C944700C0
:100020000C9447000C9447000C9447000C94470034
:100030000C9447000C9447000C9447000C94470024
:100040000C9447000C9447000C9447000C94470014
:100050000C94470011241FBECFE5D8E0DEBFCDBF12
:1000600011E0A0E6B0E0E0E0F0E102C005900D9202
:10007000AC3EB107D9F712E0ACEEB1E001C01D9281
:10008000A230B107E1F70E942A020C94FE070C94FB
:1000900000008FEF8ABB1BBA88EB87BB87E088BB69
:1000A0008CEC84BB15BA80EF81BB8CE082BB0895D9
:1000B00082E080BF81E885BD13BC089581E885BDDD
:1000C00081E083BD089515BC13BC08951F920F9263
:1000D0000FB60F9211240F900FBE0F901F9018951E
:1000E0001F920F920FB60F9211240F900FBE0F9018
:1000F0001F9018951F920F920FB60F9211240F9018
:100100000FBE0F901F9018951F920F920FB60F926F
:1001100011240F900FBE0F901F9018951F920F92F1
:100120000FB60F9211240F900FBE0F901F901895CD
:100130000E9449000E94FD030E94F2040E94F10601
:100140000E9418070E94C80508950E94700688231F
:1001500009F44FC08F3F41F58091ED01803811F4D3
:100160008FE701C081508093ED0194988CE00E944C
:10017000D60384ED0E94D6038091ED0184361CF0F5
:1001800080E690E007C08A301CF089E690E002C06B
:1001900083E790E00E940E048091ED01992787FD8E
:1001A00090950E94A3040895813019F58091ED0186
:1001B0008F5F8093ED0194988CE00E94D60384EDCC
:1001C0000E94D6038091ED0184361CF080E690E019
:1001D00007C08A301CF089E690E002C083E790E017
:1001E0000E940E048091ED01992787FD90950E9451
:1001F000A3040895E091EC01F0E0E05FFE4F608120
:10020000862F0E94DB0484ED0E94D6038091EC01CE
:100210008A3018F080E690E002C089E690E00E9403
:100220000E048091EC0190E00E94A3048EE790E020
:100230000E944A058091EC0190E00E94900583E9BC
:1002400090E00E944A0508950E9470068823E1F01C
:100250008F3F69F48091EC01882319F41092EC012E
:1002600003C081508093EC010E94FA000895813010
:1002700059F48091EC01833110F083E101C08F5F6C
:100280008093EC010E94FA00089586E990E00E94B4
:100290004A0580E00E94D60384EB90E00E940E04A1
:1002A00088E00E94D6030E94140788E59BE120E9BC
:1002B00031E0F9013197F1F70197D9F70E94ED0686
:1002C00088E59BE120E931E0F9013197F1F70197E9
:1002D000D9F7AA980E94F503949A089589EC90E0C2
:1002E0000E944A0594980E94F50380E00E94D6037C
:1002F00086EE90E00E940E0480EC0E94D6038BEF05
:1003000090E00E940E048CE00E94D603AA9A80E43A
:100310009CE920E931E0F9013197F1F70197D9F72C
:100320000E94D90688E59BE120E931E0F901319787
:10033000F1F70197D9F70E9410070895CF93DF9343
:100340008DEF91E09093FA018093F9018091FD0186
:100350008C7F8093FD01C0E9D1E0B19913C0E09199
:10036000F901F091FA01808180FD0CC081608083E9
:100370000E946E0180E197E2FE013197F1F701974B
:10038000D9F7EBCFB19913C0E091F901F091FA01DF
:10039000808180FF0CC08E7F80830E94450188E8A9
:1003A00093E1FE013197F1F70197D9F7D6CFB299D2
:1003B00011C0E091F901F091FA01808180FF0AC03B
:1003C0000E94F50388E893E1FE013197F1F7019768
:1003D000D9F7C3CF83990FC0E091F901F091FA01E9
:1003E000808180FF08C088E893E1FE013197F1F732
:1003F0000197D9F7B2CFB2990FC0E091F901F0910E
:10040000FA01808180FD08C088E893E1FE01319700
:10041000F1F70197D9F7A1CF83990FC0E091F901C6
:10042000F091FA01808180FD08C088E893E1FE0127
:100430003197F1F70197D9F790CFE091F901F09159
:10044000FA01808180FF03C00E94240186CF0E94B0
:10045000A50083CF0E9498007894949A0E949E01F0
:10046000FDCF0E943F0380EA0E94480380E00E9483
:10047000480380E00E9448030E943F0381EA0E94F3
:10048000480380E00E944F0380E00E944F0380E019
:100490000E944F0380E00E944F0380E00E944F03C0
:1004A00081E00E944F030E94450308950E943F038C
:1004B00080EA0E94480380E00E94480380E00E9496
:1004C000480380E30E94480381E30E94480382E3DB
:1004D0000E94480383E30E94480384E30E94480388
:1004E0000E9445030895CF93DF930E943F0380EA63
:1004F0000E94480380E00E94480380E00E94480375
:10050000C0E0D0E080E00E94480321968FE1CF3F19
:10051000D807C1F70E944503DF91CF910895B89A9B
:10052000C09880E897E00197F1F7B89880E491E0EF
:100530000197F1F7B09B02C080E0089588E097E052
:100540000197F1F781E00895B89AC09885E08A95FF
:10055000F1F7B89880E48A95F1F786B38170089531
:10056000B89AC0988111C09A88EB91E00197F1F791
:10057000B898C0980895CF92DF92EF92FF921F93A0
:10058000CF93DF9310E0C0E0D0E091E0C92ED12CF2
:1005900080EEE82E81E0F82E0E94A402882341F02C
:1005A000C6010C2E02C0880F991F0A94E2F7182B7F
:1005B000C7010197F1F72196C830D10569F7812F5E
:1005C000DF91CF911F91FF90EF90DF90CF90089532
:1005D0000F931F93CF93DF93C0E0D0E0082F10E07C
:1005E000C8010C2E02C0959587950A94E2F780FF0A
:1005F00002C081E001C080E00E94B0022196C830B4
:10060000D10571F780EE91E00197F1F7DF91CF917D
:100610001F910F9108950E94A4028823E1F3089589
:10062000CF93DF930E948F028823E9F08CEC0E9425
:10063000E80284E40E94E8020E940B030E948F02F9
:10064000882389F08CEC0E94E8028EEB0E94E8027D
:10065000CEEED1E00E94BB02899381E0C73FD8076C
:10066000C9F781E001C080E0DF91CF91089582E178
:1006700080B981E081B984E086BF13B8089584EA27
:1006800086BF06B607FEFDCF089584E986BF0895AC
:1006900083B984E886BF06B607FEFDCF0895882398
:1006A00011F484EC01C084E886BF06B607FEFDCFD6
:1006B00083B1089590E0D99887FF02C0D89A01C00D
:1006C000D898D99A9F5F983011F0880FF4CFDD98B1
:1006D000DC98DB9ADA9888EA92E0FC013197F1F72E
:1006E000DA9A0197F1F7DB9880E991E00197F1F749
:1006F0000895CF93DF9340E050E0A8EAB2E0C0E96C
:10070000D1E022C0FC01E40FF51FE08120E0D99880
:10071000E7FF02C0D89A01C0D898D99A2F5F283035
:1007200011F0EE0FF4CFDD9ADC98DB9ADA98FD0138
:100730003197F1F7DA9AFD013197F1F7DB98FE0175
:100740003197F1F74F5F5F4F46175707DCF2DF91A4
:10075000CF91089590E0D99887FF02C0D89A01C040
:10076000D898D99A9F5F983011F0880FF4CFDD9A0E
:10077000DC98DB9ADA9888EA92E0FC013197F1F78D
:10078000DA9A0197F1F7DB9880E991E00197F1F7A8
:100790000895DB98DC98DD9A85ED982F9A95F1F70E
:1007A000DB9ADC98DD9A8A95F1F7089590E0D99864
:1007B00087FF02C0D89A01C0D898D99A9F5F983015
:1007C00011F0880FF4CFDD98DC98DB9ADA9888EA8C
:1007D00092E0FC013197F1F7DA9A0197F1F7DB9893
:1007E00080E991E00197F1F7089581E00E94D60336
:1007F00080EC92E10197F1F7089588E30E94D60317
:1008000086E00E94D60382E00E94D60381E00E9427
:10081000D60380EC92E10197F1F70895FC0128EAF4
:1008200032E040E951E01DC090E0D99887FF02C056
:10083000D89A01C0D898D99A9F5F983011F0880F44
:10084000F4CF3196DD9ADC98DB9ADA98C9010197EA
:10085000F1F7DA9AC9010197F1F7DB98CA0101971C
:10086000F1F78081882301F70895CF93DF931092E9
:10087000FF011092FE0125C00896880F880F880F8F
:100880000E945A03C0E0D0E0E091FE01F091FF0128
:1008900083E0EE0FFF1F8A95E1F7EC0FFD1FEC5D83
:1008A000FE4F80810E94AA032196C830D10561F7CE
:1008B0008091FE019091FF0101969093FF0180933A
:1008C000FE018091FE019091FF0187309105A4F215
:1008D000DF91CF910895DF93CF93CDB7DEB72A97FD
:1008E0000FB6F894DEBF0FBECDBFAE014F5F5F4FB6
:1008F0002AE030E00E947D070E940E042A960FB67F
:10090000F894DEBF0FBECDBFCF91DF910895DF9386
:10091000CF93CDB7DEB72A970FB6F894DEBF0FBEE0
:10092000CDBFAE014F5F5F4F2AE030E00E94490724
:100930000E940E042A960FB6F894DEBF0FBECDBFFC
:10094000CF91DF910895DF93CF93CDB7DEB72A978C
:100950000FB6F894DEBF0FBECDBFBE016F5F7F4FF5
:100960004AE050E00E9428070E940E042A960FB623
:10097000F894DEBF0FBECDBFCF91DF910895DF9316
:10098000CF93CDB7DEB72A970FB6F894DEBF0FBE70
:10099000CDBFBE016F5F7F4F4AE050E00E94A207CB
:1009A0000E940E042A960FB6F894DEBF0FBECDBF8C
:1009B000CF91DF9108950F931F93182F062FC3989F
:1009C0000E94FE05C39ADE98812F602F0E94FE05CB
:1009D000DE9ADF98812F602F0E94FE05DF9A1F911B
:1009E0000F9108950E94ED05C39880E060E00E9499
:1009F000FE05C39ADE9880E060E00E94FE05DE9A64
:100A0000DF9880E060E00E94FE05DF9A08950E9472
:100A1000ED05C39880E060E00E94FE05C39ADE9871
:100A200080E060E00E94FE05DE9ADF9880E060E0F2
:100A30000E94FE05DF9A089510BC86E880BD88E913
:100A40008AB91CB80895AC0120E030E009C05D9B74
:100A5000FECFFA01E20FF31F80818CB92F5F3F4F69
:100A600026173707A4F308955D9BFECF8CB9089530
:100A7000982F5D9BFECF892F82958F70805D8CB9FA
:100A80005D9BFECF9F70905D9CB908955D9BFECFEE
:100A90008CB90895FC0104C05D9BFECF31968CB9E2
:100AA00080818823C9F708955F9BFECF8CB108959C
:100AB000DF93CF93CDB7DEB72A970FB6F894DEBF9A
:100AC0000FBECDBFAE014F5F5F4F2AE030E00E9406
:100AD00049070E944A052A960FB6F894DEBF0FBE5A
:100AE000CDBFCF91DF910895DF93CF93CDB7DEB720
:100AF0002A970FB6F894DEBF0FBECDBFAE014F5F91
:100B00005F4F2AE030E00E947D070E944A052A9646
:100B10000FB6F894DEBF0FBECDBFCF91DF91089521
:100B2000DF93CF93CDB7DEB72A970FB6F894DEBF29
:100B30000FBECDBFBE016F5F7F4F4AE050E00E9405
:100B400028070E944A052A960FB6F894DEBF0FBE0A
:100B5000CDBFCF91DF910895DF93CF93CDB7DEB7AF
:100B60002A970FB6F894DEBF0FBECDBFBE016F5FF0
:100B70007F4F4AE050E00E94A2070E944A052A9651
:100B80000FB6F894DEBF0FBECDBFCF91DF910895B1
:100B900087E689B910BC8CE00E94D60384ED0E94E0
:100BA000D6038CE591E00E940E0460E074E284EFCD
:100BB00090E00E946B0483E691E00E940E0486E8B8
:100BC00080BD88E08AB91CB888E691E00E944A0599
:100BD0008BE691E00E944A0508951EB883E58DB921
:100BE0001FB81DB8089583E58DB908951DB80895FF
:100BF00093E59DB98FB9779BFECF089593E59DB995
:100C00008FB9779BFECF6FB9779BFECF0895FC011C
:100C100093E506C031969DB980818FB9779BFECF51
:100C200080818823B9F708951FB8779BFECF80E0B5
:100C30000895482F6AE00E941C07282F30E084E0C6
:100C4000220F331F8A95E1F7842F0E941C07892FFA
:100C5000820F0895282F22952F709AE0299F9001E6
:100C600011248F70820F0895A09A94E480E090FF81
:100C700002C0A89A01C0A8988F5F883011F096959D
:100C8000F6CF0895A09A90E084E487FF02C0A89A66
:100C900001C0A8989F5F983011F0880FF6CF089593
:100CA000A09880E093B38F5F8830E1F70895A09813
:100CB00080E093B38F5F8830E1F7089540E050E023
:100CC0000BC020E030E0000000002F5F3F4F2436D3
:100CD0003105C9F74F5F5F4F4817590794F30895DF
:100CE0009D990EC09C990CC088EC90E00197F1F79B
:100CF0009D9B14C083B382958F70809581700895F9
:100D00009D9B0CC09C990AC088EC90E00197F1F77C
:100D10009D9904C09C9902C08FEF089580E00895CA
:100D20009D990EC09C9B0CC088EC90E00197F1F758
:100D30009D9914C083B382958F70809581700895BA
:100D40009D9B0CC09C990AC088EC90E00197F1F73C
:100D50009D9904C09C9902C08FEF089580E008958A
:100D600088EC90E0FC013197F1F7FC013197F1F745
:100D70000197F1F780E008950895089590E0AE9806
:100D800080FF02C0AF9A01C0AF98AE9A9F5F9830C3
:100D900011F08695F4CFAB9888EA92E0FC01319788
:100DA000F1F7AB9A0197F1F7089580E20E94BE0631
:100DB000089581E60E94BE0608958AE00E94BE065C
:100DC00008958AE90E94BE0608958CE00E94BE063E
:100DD00008958CE90E94BE06089580E00E94BE0638
:100DE000089580E00E94BE06089590E0969880FFE6
:100DF00002C0C49A01C0C498969A9F5F983011F0BF
:100E00008695F4CF979888EA92E0FC013197F1F744
:100E1000979A0197F1F7089580E80E94F5060895E2
:100E20008CEF0E94F506089580E00E94F506089573
:100E300080E00E94F5060895991B79E004C0991F8F
:100E4000961708F0961B881F7A95C9F78095089524
:100E5000FB019F01E8944230C4F04532B4F44A30BB
:100E600029F497FB1EF4909581959F4F642F772767
:100E70000E94C807805D8A330CF0895D8193CB01A5
:100E80000097A1F716F45DE251931082C9010C940A
:100E9000B807FA01CF93FF93EF93223044F1253244
:100EA00034F5C22FE894CA3049F497FB3EF490958C
:100EB0008095709561957F4F8F4F9F4F2C2F3327D3
:100EC00044275527FF93EF930E94DC07EF91FF9192
:100ED000605D6A330CF0695D6193B901CA016050CD
:100EE00070408040904051F716F4CDE2C1931082DB
:100EF0008F919F91CF910C94B807FA01CF93FF93F4
:100F0000EF932230CCF02532BCF4C22F2C2F3327A4
:100F100044275527FF93EF930E94DC07EF91FF9141
:100F2000605D6A330CF0695D6193B901CA0160507C
:100F300070408040904051F710828F919F91CF91E7
:100F40000C94B807FB019F01423074F0453264F401
:100F5000642F77270E94C807805D8A330CF0895D73
:100F60008193CB010097A1F71082C9010C94B807B7
:100F7000DC01FC01672F71917723E1F7329704C000
:100F80007C916D9370836291AE17BF07C8F308958B
:100F9000AA1BBB1B51E107C0AA1FBB1FA617B7079F
:100FA00010F0A61BB70B881F991F5A95A9F78095BB
:100FB0009095BC01CD010895A1E21A2EAA1BBB1B7E
:100FC000FD010DC0AA1FBB1FEE1FFF1FA217B30715
:100FD000E407F50720F0A21BB30BE40BF50B661F2B
:100FE000771F881F991F1A9469F7609570958095EF
:100FF00090959B01AC01BD01CF010895F894FFCFFE
:10100000566F6C756D653A2000566F6C756D653A5C
:10101000203000566F6C756D653A203030005B559E
:1010200041525420494E464F5D20566F6C756D6598
:101030003A20000D0A005B5541525420494E464F5C
:101040005D20416D706C69666572206973204F4642
:10105000460D0A0020202020416D706C6966657283
:10106000204F666620202020005B554152542049C5
:101070004E464F5D20416D706C69666572206973E4
:10108000204F4E0D0A0020202020416D706C6966B3
:101090006572204F6E202020202000502E55504990
:1010A0004E4F562020502E53544F59414E4F56000C
:1010B0000028323C46505A646E78828C96A0AAB4BE
:1010C000BEC8D2D70E1B11111111111F0E1B111109
:1010D00011111F1F0E1B1111111F1F1F0E1B1111AC
:1010E0001F1F1F1F0E1B111F1F1F1F1F0E1B1F1F48
:1010F0001F1F1F1F0E1F1F1F1F1F1F1F46726571FF
:101100003A2000204D487A000D0A005B55415254A8
:101110002053657269616C20506F7274205365743E
:1011200074696E67735D20426175642072617465D5
:101130003A20393630302C20446174612062697461
:10114000733A203820626974732C2053746F7020B6
:10115000626974733A2031206269742C2050617284
:101160006974793A204E6F6E652C20466C6F77203B
:10117000636F6E74726F6C3A204E6F6E65206F7283
:0C11800020584F4E2F584F46460D0A00D5
:00000001FF
