:100000000C942A000C9466000C9470000C947A00F6
:100010000C9484000C948E000C9447000C944700C0
:100020000C9447000C9447000C9447000C94470034
:100030000C9447000C9447000C9447000C94470024
:100040000C9447000C9447000C9447000C94470014
:100050000C94470011241FBECFE5D8E0DEBFCDBF12
:1000600013E0A0E6B0E0E0E4F0E102C005900D92FC
:10007000A43AB107D9F713E0A4EAB3E001C01D9296
:10008000AA3BB107E1F70E944A020C941E080C94A7
:1000900000008FEF8ABB1BBA88EB87BB87E088BB69
:1000A0008CEC84BB15BA80EF81BB8CE082BB0895D9
:1000B00082E080BF81E885BD13BC089581E885BDDD
:1000C00081E083BD089515BC13BC08951F920F9263
:1000D0000FB60F9211240F900FBE0F901F9018951E
:1000E0001F920F920FB60F9211240F900FBE0F9018
:1000F0001F9018951F920F920FB60F9211240F9018
:100100000FBE0F901F9018951F920F920FB60F926F
:1001100011240F900FBE0F901F9018951F920F92F1
:100120000FB60F9211240F900FBE0F901F901895CD
:100130000E9449000E941D040E94E8050E941205C9
:100140000E9411070E94380708950E949006882394
:1001500009F44FC08F3F41F58091A503803811F419
:100160008FE701C081508093A50394988CE00E9492
:10017000F60384ED0E94F6038091A50384361CF0FB
:1001800080E690E007C08A301CF089E690E002C06B
:1001900083E790E00E942E048091A503992787FDB4
:1001A00090950E94C3040895813019F58091A503AC
:1001B0008F5F8093A50394988CE00E94F60384EDF2
:1001C0000E94F6038091A50384361CF080E690E03F
:1001D00007C08A301CF089E690E002C083E790E017
:1001E0000E942E048091A503992787FD90950E9477
:1001F000C3040895E091A403F0E0E953FD4F60814A
:10020000862F0E94FB0484ED0E94F6038091A403D4
:100210008A3018F080E690E002C089E690E00E9403
:100220002E048091A40390E00E94C3048EE790E026
:100230000E946A058091A40390E00E94B00583E9C2
:1002400090E00E946A0508950E9490068823E1F0DC
:100250008F3F69F48091A403882319F41092A403BA
:1002600003C081508093A4030E94FA000895813056
:1002700059F48091A403833110F083E101C08F5FB2
:100280008093A4030E94FA00089580E00E94F60380
:1002900086E990E00E942E0488E00E94F6038BEA33
:1002A00090E00E946A050E94340788E59BE120E9FE
:1002B00031E0F9013197F1F70197D9F789EE90E034
:1002C0000E946A050E940D0788E59BE120E931E064
:1002D000F9013197F1F70197D9F786E291E00E9491
:1002E0006A05AA980E9415048CE591E00E946A05AF
:1002F000949A88E891E00E946A05089586EA91E060
:100300000E946A0583EC91E00E946A0594980E941D
:10031000150480E00E94F6038FEE91E00E942E0407
:1003200080EC0E94F60384E092E00E942E048CE0B0
:100330000E94F60389E192E00E946A05AA9A80E48D
:100340009CE920E931E0F9013197F1F70197D9F7FC
:100350008EE492E00E946A050E94F90688E59BE11E
:1003600020E931E0F9013197F1F70197D9F78AE8EF
:1003700092E00E946A050E9430070895CF93DF93B0
:1003800085EB93E09093B2038093B1038091B50322
:100390008C7F8093B503C0E9D1E0B19913C0E0919F
:1003A000B103F091B203808180FD0CC08160808335
:1003B0000E947E0180E197E2FE013197F1F70197FB
:1003C000D9F7EBCFB19913C0E091B103F091B2032B
:1003D000808180FF0CC08E7F80830E94450188E869
:1003E00093E1FE013197F1F70197D9F7D6CFB29992
:1003F00011C0E091B103F091B203808180FF0AC087
:100400000E94150488E893E1FE013197F1F7019706
:10041000D9F7C3CF83990FC0E091B103F091B20334
:10042000808180FF08C088E893E1FE013197F1F7F1
:100430000197D9F7B2CFB2990FC0E091B103F09113
:10044000B203808180FD08C088E893E1FE01319706
:10045000F1F70197D9F7A1CF83990FC0E091B103CC
:10046000F091B203808180FD08C088E893E1FE012D
:100470003197F1F70197D9F790CFE091B103F0915F
:10048000B203808180FF03C00E94240186CF0E94B6
:10049000A50083CF0E9498007894949A0E94BE0190
:1004A000FDCF0E945F0380EA0E94680380E00E9403
:1004B000680380E00E9468030E945F0381EA0E9453
:1004C000680380E00E946F0380E00E946F0380E079
:1004D0000E946F0380E00E946F0380E00E946F0320
:1004E00081E00E946F030E94650308950E945F03EC
:1004F00080EA0E94680380E00E94680380E00E9416
:10050000680380E30E94680381E30E94680382E33A
:100510000E94680383E30E94680384E30E946803E7
:100520000E9465030895CF93DF930E945F0380EAE2
:100530000E94680380E00E94680380E00E946803D4
:10054000C0E0D0E080E00E94680321968FE1CF3FB9
:10055000D807C1F70E946503DF91CF910895B89A3B
:10056000C09880E897E00197F1F7B89880E491E0AF
:100570000197F1F7B09B02C080E0089588E097E012
:100580000197F1F781E00895B89AC09885E08A95BF
:10059000F1F7B89880E48A95F1F786B381700895F1
:1005A000B89AC0988111C09A88EB91E00197F1F751
:1005B000B898C0980895CF92DF92EF92FF921F9360
:1005C000CF93DF9310E0C0E0D0E091E0C92ED12CB2
:1005D00080EEE82E81E0F82E0E94C402882341F0CC
:1005E000C6010C2E02C0880F991F0A94E2F7182B3F
:1005F000C7010197F1F72196C830D10569F7812F1E
:10060000DF91CF911F91FF90EF90DF90CF900895F1
:100610000F931F93CF93DF93C0E0D0E0082F10E03B
:10062000C8010C2E02C0959587950A94E2F780FFC9
:1006300002C081E001C080E00E94D0022196C83053
:10064000D10571F780EE91E00197F1F7DF91CF913D
:100650001F910F9108950E94C4028823E1F3089529
:10066000CF93DF930E94AF028823E9F08CEC0E94C5
:10067000080384E40E9408030E942B030E94AF0237
:10068000882389F08CEC0E9408038EEB0E940803FB
:10069000C6EAD3E00E94DB02899383E0CF3AD80711
:1006A000C9F781E001C080E0DF91CF91089582E138
:1006B00080B981E081B984E086BF13B8089584EAE7
:1006C00086BF06B607FEFDCF089584E986BF08956C
:1006D00083B984E886BF06B607FEFDCF0895882358
:1006E00011F484EC01C084E886BF06B607FEFDCF96
:1006F00083B1089590E0D99887FF02C0D89A01C0CD
:10070000D898D99A9F5F983011F0880FF4CFDD9870
:10071000DC98DB9ADA9888EA92E0FC013197F1F7ED
:10072000DA9A0197F1F7DB9880E991E00197F1F708
:100730000895CF93DF9340E050E0A8EAB2E0C0E92B
:10074000D1E022C0FC01E40FF51FE08120E0D99840
:10075000E7FF02C0D89A01C0D898D99A2F5F2830F5
:1007600011F0EE0FF4CFDD9ADC98DB9ADA98FD01F8
:100770003197F1F7DA9AFD013197F1F7DB98FE0135
:100780003197F1F74F5F5F4F46175707DCF2DF9164
:10079000CF91089590E0D99887FF02C0D89A01C000
:1007A000D898D99A9F5F983011F0880FF4CFDD9ACE
:1007B000DC98DB9ADA9888EA92E0FC013197F1F74D
:1007C000DA9A0197F1F7DB9880E991E00197F1F768
:1007D0000895DB98DC98DD9A85ED982F9A95F1F7CE
:1007E000DB9ADC98DD9A8A95F1F7089590E0D99824
:1007F00087FF02C0D89A01C0D898D99A9F5F9830D5
:1008000011F0880FF4CFDD98DC98DB9ADA9888EA4B
:1008100092E0FC013197F1F7DA9A0197F1F7DB9852
:1008200080E991E00197F1F7089581E00E94F603D5
:1008300080EC92E10197F1F7089588E30E94F603B6
:1008400086E00E94F60382E00E94F60381E00E94A7
:10085000F60380EC92E10197F1F70895FC0128EA94
:1008600032E040E951E01DC090E0D99887FF02C016
:10087000D89A01C0D898D99A9F5F983011F0880F04
:10088000F4CF3196DD9ADC98DB9ADA98C9010197AA
:10089000F1F7DA9AC9010197F1F7DB98CA010197DC
:1008A000F1F78081882301F70895CF93DF931092A9
:1008B000B7031092B60325C00896880F880F880FDB
:1008C0000E947A03C0E0D0E0E091B603F091B70354
:1008D00083E0EE0FFF1F8A95E1F7EC0FFD1FE55255
:1008E000FD4F80810E94CA032196C830D10561F76F
:1008F0008091B6039091B70301969093B7038093CC
:10090000B6038091B6039091B70387309105A4F2A6
:10091000DF91CF910895DF93CF93CDB7DEB72A97BC
:100920000FB6F894DEBF0FBECDBFAE014F5F5F4F75
:100930002AE030E00E949D070E942E042A960FB6FE
:10094000F894DEBF0FBECDBFCF91DF910895DF9346
:10095000CF93CDB7DEB72A970FB6F894DEBF0FBEA0
:10096000CDBFAE014F5F5F4F2AE030E00E946907C4
:100970000E942E042A960FB6F894DEBF0FBECDBF9C
:10098000CF91DF910895DF93CF93CDB7DEB72A974C
:100990000FB6F894DEBF0FBECDBFBE016F5F7F4FB5
:1009A0004AE050E00E9448070E942E042A960FB6A3
:1009B000F894DEBF0FBECDBFCF91DF910895DF93D6
:1009C000CF93CDB7DEB72A970FB6F894DEBF0FBE30
:1009D000CDBFBE016F5F7F4F4AE050E00E94C2076B
:1009E0000E942E042A960FB6F894DEBF0FBECDBF2C
:1009F000CF91DF9108950F931F93182F062FC3985F
:100A00000E941E06C39ADE98812F602F0E941E0648
:100A1000DE9ADF98812F602F0E941E06DF9A1F91B9
:100A20000F9108950E940D06C39880E060E00E9437
:100A30001E06C39ADE9880E060E00E941E06DE9AE1
:100A4000DF9880E060E00E941E06DF9A08950E9411
:100A50000D06C39880E060E00E941E06C39ADE98EF
:100A600080E060E00E941E06DE9ADF9880E060E091
:100A70000E941E06DF9A089510BC86E880BD88E9B2
:100A80008AB91CB80895AC0120E030E009C05D9B34
:100A9000FECFFA01E20FF31F80818CB92F5F3F4F29
:100AA00026173707A4F308955D9BFECF8CB90895F0
:100AB000982F5D9BFECF892F82958F70805D8CB9BA
:100AC0005D9BFECF9F70905D9CB908955D9BFECFAE
:100AD0008CB90895FC0104C05D9BFECF31968CB9A2
:100AE00080818823C9F708955F9BFECF8CB108955C
:100AF000DF93CF93CDB7DEB72A970FB6F894DEBF5A
:100B00000FBECDBFAE014F5F5F4F2AE030E00E94C5
:100B100069070E946A052A960FB6F894DEBF0FBED9
:100B2000CDBFCF91DF910895DF93CF93CDB7DEB7DF
:100B30002A970FB6F894DEBF0FBECDBFAE014F5F50
:100B40005F4F2AE030E00E949D070E946A052A96C6
:100B50000FB6F894DEBF0FBECDBFCF91DF910895E1
:100B6000DF93CF93CDB7DEB72A970FB6F894DEBFE9
:100B70000FBECDBFBE016F5F7F4F4AE050E00E94C5
:100B800048070E946A052A960FB6F894DEBF0FBE8A
:100B9000CDBFCF91DF910895DF93CF93CDB7DEB76F
:100BA0002A970FB6F894DEBF0FBECDBFBE016F5FB0
:100BB0007F4F4AE050E00E94C2070E946A052A96D1
:100BC0000FB6F894DEBF0FBECDBFCF91DF91089571
:100BD00087E689B910BC8CE00E94F60384ED0E9480
:100BE000F60383E193E00E942E0460E074E284EF58
:100BF00090E00E948B048AE193E00E942E0486E834
:100C000080BD88E08AB91CB88FE193E00E946A0534
:100C100082E293E00E946A0508951EB883E58DB9CB
:100C20001FB81DB8089583E58DB908951DB80895BE
:100C300093E59DB98FB9779BFECF089593E59DB954
:100C40008FB9779BFECF6FB9779BFECF0895FC01DC
:100C500093E506C031969DB980818FB9779BFECF11
:100C600080818823B9F708951FB8779BFECF80E075
:100C70000895482F6AE00E943C07282F30E084E066
:100C8000220F331F8A95E1F7842F0E943C07892F9A
:100C9000820F0895282F22952F709AE0299F9001A6
:100CA00011248F70820F0895A09A94E480E090FF41
:100CB00002C0A89A01C0A8988F5F883011F096955D
:100CC000F6CF0895A09A90E084E487FF02C0A89A26
:100CD00001C0A8989F5F983011F0880FF6CF089553
:100CE000A09880E093B38F5F8830E1F70895A098D3
:100CF00080E093B38F5F8830E1F7089540E050E0E3
:100D00000BC020E030E0000000002F5F3F4F243692
:100D10003105C9F74F5F5F4F4817590794F308959E
:100D20009D990EC09C990CC088EC90E00197F1F75A
:100D30009D9B14C083B382958F70809581700895B8
:100D40009D9B0CC09C990AC088EC90E00197F1F73C
:100D50009D9904C09C9902C08FEF089580E008958A
:100D60009D990EC09C9B0CC088EC90E00197F1F718
:100D70009D9914C083B382958F708095817008957A
:100D80009D9B0CC09C990AC088EC90E00197F1F7FC
:100D90009D9904C09C9902C08FEF089580E008954A
:100DA00088EC90E0FC013197F1F7FC013197F1F705
:100DB0000197F1F780E008950895089590E0AE98C6
:100DC00080FF02C0AF9A01C0AF98AE9A9F5F983083
:100DD00011F08695F4CFAB9888EA92E0FC01319748
:100DE000F1F7AB9A0197F1F7089580E20E94DE06D1
:100DF000089581E60E94DE0608958AE00E94DE06DC
:100E000008958AE90E94DE0608958CE00E94DE06BD
:100E100008958CE90E94DE06089580E00E94DE06B7
:100E2000089580E00E94DE06089590E0969880FF85
:100E300002C0C49A01C0C498969A9F5F983011F07E
:100E40008695F4CF979888EA92E0FC013197F1F704
:100E5000979A0197F1F7089580E80E941507089581
:100E60008CEF0E941507089580E00E9415070895F1
:100E700080E00E9415070895991B79E004C0991F2E
:100E8000961708F0961B881F7A95C9F780950895E4
:100E9000FB019F01E8944230C4F04532B4F44A307B
:100EA00029F497FB1EF4909581959F4F642F772727
:100EB0000E94E807805D8A330CF0895D8193CB0145
:100EC0000097A1F716F45DE251931082C9010C94CA
:100ED000D807FA01CF93FF93EF93223044F12532E4
:100EE00034F5C22FE894CA3049F497FB3EF490954C
:100EF0008095709561957F4F8F4F9F4F2C2F332793
:100F000044275527FF93EF930E94FC07EF91FF9131
:100F1000605D6A330CF0695D6193B901CA0160508C
:100F200070408040904051F716F4CDE2C19310829A
:100F30008F919F91CF910C94D807FA01CF93FF9393
:100F4000EF932230CCF02532BCF4C22F2C2F332764
:100F500044275527FF93EF930E94FC07EF91FF91E1
:100F6000605D6A330CF0695D6193B901CA0160503C
:100F700070408040904051F710828F919F91CF91A7
:100F80000C94D807FB019F01423074F0453264F4A1
:100F9000642F77270E94E807805D8A330CF0895D13
:100FA0008193CB010097A1F71082C9010C94D80757
:100FB000DC01FC01672F71917723E1F7329704C0C0
:100FC0007C916D9370836291AE17BF07C8F308954B
:100FD000AA1BBB1B51E107C0AA1FBB1FA617B7075F
:100FE00010F0A61BB70B881F991F5A95A9F780957B
:100FF0009095BC01CD010895A1E21A2EAA1BBB1B3E
:10100000FD010DC0AA1FBB1FEE1FFF1FA217B307D4
:10101000E407F50720F0A21BB30BE40BF50B661FEA
:10102000771F881F991F1A9469F7609570958095AE
:1010300090959B01AC01BD01CF010895F894FFCFBD
:10104000566F6C756D653A2000566F6C756D653A1C
:10105000203000566F6C756D653A203030005B555E
:1010600041525420494E464F5D20566F6C756D6558
:101070003A20000D0A0020202020416D706C696626
:101080006572204F666620202020005B5541525437
:1010900020494E464F5D2054727920746F2073773B
:1010A00069746368206F66662072656C617973206D
:1010B0006F757420666F7220616C6C2036206368D7
:1010C000616E6E656C730D0A005B55415254204988
:1010D0004E464F5D2054727920746F207377697487
:1010E0006368206F66662072656C61797320696E33
:1010F00020666F7220616C6C2036206368616E6EB2
:10110000656C730D0A005B5541525420494E464FA1
:101110005D2054727920746F20737769746368203E
:101120006F66662072656C61797320666F722070DD
:101130006F77657220323230560D0A005B5541528E
:101140005420494E464F5D20446973706C6179208C
:101150006F666620616E6420737461747573206CB1
:101160006564206F6E0D0A005B5541525420494E54
:10117000464F5D20416D706C696665722069732011
:101180006F66660D0A005B5541525420494E464F2A
:101190005D20416D706C69666572206973206F6EA9
:1011A0000D0A005B5541525420494E464F5D204484
:1011B0006973706C6179206F6E20616E6420737446
:1011C00061747573206C6564206F66660D0A00207B
:1011D000202020416D706C69666572204F6E202062
:1011E00020202000502E5550494E4F562020502E82
:1011F00053544F59414E4F56005B5541525420496C
:101200004E464F5D2054727920746F207377697455
:101210006368206F6E2072656C61797320666F72EF
:1012200020706F77657220323230560D0A005B55A0
:1012300041525420494E464F5D2054727920746FBC
:1012400020737769746368206F6E2072656C6179B2
:101250007320696E20666F7220616C6C203620638B
:1012600068616E6E656C730D0A005B5541525420C7
:10127000494E464F5D2054727920746F2073776910
:10128000746368206F6E2072656C617973206F756E
:101290007420666F7220616C6C2036206368616E0A
:1012A0006E656C730D0A000028323C46505A646E1D
:1012B00078828C96A0AAB4BEC8D2D70E1B11111189
:1012C00011111F0E1B111111111F1F0E1B111111D6
:1012D0001F1F1F0E1B11111F1F1F1F0E1B111F1F72
:1012E0001F1F1F0E1B1F1F1F1F1F1F0E1F1F1F1F34
:1012F0001F1F1F467265713A2000204D487A000D6D
:101300000A005B554152542053657269616C20504C
:101310006F72742053657474696E67735D204261E7
:10132000756420726174653A20393630302C20445F
:1013300061746120626974733A2038206269747341
:101340002C2053746F7020626974733A20312062CC
:1013500069742C205061726974793A204E6F6E6501
:101360002C20466C6F7720636F6E74726F6C3A201E
:101370004E6F6E65206F7220584F4E2F584F464665
:041380000D0A000052
:00000001FF
