:100000000C942A000C9466000C9470000C947A00F6
:100010000C9484000C948E000C9447000C944700C0
:100020000C9447000C9447000C9447000C94470034
:100030000C9447000C9447000C9447000C94470024
:100040000C9447000C9447000C9447000C94470014
:100050000C94470011241FBECFE5D8E0DEBFCDBF12
:1000600010E0A0E6B0E0EAECF9E002C005900D92E5
:10007000A839B107D9F710E0A8E9B0E001C01D9296
:10008000AD3AB107E1F70E94E6000C94E3040C944A
:1000900000008FEF8ABB1BBA88EB87BB87E088BB69
:1000A0008CEC84BB15BA80EF81BB8CE082BB0895D9
:1000B00082E080BF81E885BD13BC089581E885BDDD
:1000C00081E083BD089515BC13BC08951F920F9263
:1000D0000FB60F9211240F900FBE0F901F9018951E
:1000E0001F920F920FB60F9211240F900FBE0F9018
:1000F0001F9018951F920F920FB60F9211240F9018
:100100000FBE0F901F9018951F920F920FB60F926F
:1001100011240F900FBE0F901F9018951F920F92F1
:100120000FB60F9211240F900FBE0F901F901895CD
:100130001F93CF93DF93C0E9D1E0B199FECFE09157
:10014000A500F091A600808180FD17C0949A0E94BE
:10015000150280E00E94F6010E94B502E091A50020
:10016000F091A60080818160808380ED97E0FE01A0
:100170003197F1F70197D9F7E0CF94980E941502D3
:1001800080E00E94F60110E0812F0E9462021F5F52
:100190001031D1F7E091A500F091A60080818E7F0B
:1001A000808380ED97E0FE013197F1F70197D9F751
:1001B000C4CF0E94490082E080BF81E885BD13BCA6
:1001C0000E941D0281E00E94F60108950E94D9005C
:1001D00078940E949800FDCF0E94DB0180EA0E9483
:1001E000E40180E00E94E40180E00E94E4010E94BA
:1001F000DB0181EA0E94E40180E00E94EB0180E0E3
:100200000E94EB0180E00E94EB0180E00E94EB0184
:1002100081E00E94EB010E94E10108950E94DB0150
:1002200080EA0E94E40180E00E94E40180E00E94F4
:10023000E40180E30E94E40181E30E94E40182E39F
:100240000E94E40183E30E94E40184E30E94E4014C
:100250000E94E1010895B89AC09880E897E001975C
:10026000F1F7B89880E491E00197F1F7B09B02C0F4
:1002700080E0089588E097E00197F1F781E0089524
:10028000B89AC09885E08A95F1F7B89880E48A9585
:10029000F1F786B381700895B89AC0988111C09A19
:1002A00088EB91E00197F1F7B898C0980895CF9244
:1002B000DF92EF92FF921F93CF93DF9310E0C0E0A5
:1002C000D0E091E0C92ED12C80EEE82E81E0F82E0E
:1002D0000E944001882341F0C6010C2E02C0880F05
:1002E000991F0A94E2F7182BC7010197F1F721969D
:1002F000C830D10569F7812FDF91CF911F91FF9011
:10030000EF90DF90CF9008950F931F93CF93DF93DB
:10031000C0E0D0E0082F10E0C8010C2E02C0959577
:1003200087950A94E2F780FF02C081E001C080E077
:100330000E944C012196C830D10571F780EE91E002
:100340000197F1F7DF91CF911F910F9108950E94CE
:1003500040018823E1F30895CF93DF930E942B019E
:100360008823E9F08CEC0E94840184E40E948401DB
:100370000E94A7010E942B01882389F08CEC0E9427
:1003800084018EEB0E948401CAE9D0E00E945701EB
:10039000899380E0C33AD807C9F781E001C080E0C3
:1003A000DF91CF91089582E180B981E081B984E045
:1003B00086BF13B8089584EA86BF06B607FEFDCF50
:1003C000089584E986BF089583B984E886BF06B698
:1003D00007FEFDCF0895882311F484EC01C084E862
:1003E00086BF06B607FEFDCF83B1089590E0D99889
:1003F00087FF02C0D89A01C0D898D99A9F5F9830D9
:1004000011F0880FF4CFDD98DC98DB9ADA9888EA4F
:1004100092E0FC013197F1F7DA9A0197F1F7DB9856
:1004200080E991E00197F1F7089581E00E94F601DB
:1004300080EC92E10197F1F7089588E30E94F601BC
:100440008FE00E94F60186E00E94F60182E00E94A1
:10045000F60181E00E94F60180EC92E10197F1F74C
:100460000895CF93DF9340E050E0A8EAB2E0C0E9FE
:10047000D1E022C0FC01E40FF51FE08120E0D99813
:10048000E7FF02C0D89A01C0D898D99A2F5F2830C8
:1004900011F0EE0FF4CFDD9ADC98DB9ADA98FD01CB
:1004A0003197F1F7DA9AFD013197F1F7DB98FE0108
:1004B0003197F1F74F5F5F4F46175707DCF2DF9137
:1004C000CF91089590E0D99887FF02C0D89A01C0D3
:1004D000D898D99A9F5F983011F0880FF4CFDD9AA1
:1004E000DC98DB9ADA9888EA92E0FC013197F1F720
:1004F000DA9A0197F1F7DB9880E991E00197F1F73B
:100500000895DB98DC98DD9A85ED982F9A95F1F7A0
:10051000DB9ADC98DD9A8A95F1F70895FC0128EAC8
:1005200032E040E951E01DC090E0D99887FF02C059
:10053000D89A01C0D898D99A9F5F983011F0880F47
:10054000F4CF3196DD9ADC98DB9ADA98C9010197ED
:10055000F1F7DA9AC9010197F1F7DB98CA0101971F
:10056000F1F78081882301F70895CF93DF931092EC
:10057000AA001092A90025C00896880F880F880F3E
:100580000E94F601C0E0D0E0E091A900F091AA003D
:1005900083E0EE0FFF1F8A95E1F7EC0FFD1FE05A95
:1005A000FF4F80810E9462022196C830D10561F719
:1005B0008091A9009091AA0001969093AA0080933F
:1005C000A9008091A9009091AA0087309105A4F21A
:1005D000DF91CF910895DF93CF93CDB7DEB72A9700
:1005E0000FB6F894DEBF0FBECDBFBE016F5F7F4F69
:1005F0004AE050E00E940D040E948E022A960FB637
:10060000F894DEBF0FBECDBFCF91DF9108950F9359
:100610001F93182F062FC3980E94F203C39ADE98E7
:10062000812F602F0E94F203DE9ADF98812F602FC6
:100630000E94F203DF9A1F910F9108950E94E10337
:10064000C39880E060E00E94F203C39ADE9880E0E5
:1006500060E00E94F203DE9ADF9880E060E00E9492
:10066000F203DF9A089587E689B910BC86E880BD59
:1006700088E98AB91CB80895AC0120E030E009C0CF
:100680005D9BFECFFA01E20FF31F80818CB92F5FD3
:100690003F4F26173707A4F308955D9BFECF8CB913
:1006A0000895982F5D9BFECF892F82958F70805D76
:1006B0008CB95D9BFECF9F70905D9CB908955D9B4A
:1006C000FECF8CB90895FC0104C05D9BFECF31962E
:1006D0008CB980818823C9F708955F9BFECF8CB1C8
:1006E0000895DF93CF93CDB7DEB72A970FB6F8946E
:1006F000DEBF0FBECDBFAE014F5F5F4F2AE030E0DF
:100700000E942E040E9463032A960FB6F894DEBF5F
:100710000FBECDBFCF91DF910895DF93CF93CDB7BB
:10072000DEB72A970FB6F894DEBF0FBECDBFAE017D
:100730004F5F5F4F2AE030E00E9462040E94630333
:100740002A960FB6F894DEBF0FBECDBFCF91DF91D2
:100750000895DF93CF93CDB7DEB72A970FB6F894FD
:10076000DEBF0FBECDBFBE016F5F7F4F4AE050E0DE
:100770000E940D040E9463032A960FB6F894DEBF10
:100780000FBECDBFCF91DF910895DF93CF93CDB74B
:10079000DEB72A970FB6F894DEBF0FBECDBFBE01FD
:1007A0006F5F7F4F4AE050E00E9487040E9463031E
:1007B0002A960FB6F894DEBF0FBECDBFCF91DF9162
:1007C00008951EB883E58DB91FB81DB8089583E557
:1007D0008DB908951DB8089593E59DB98FB9779B9C
:1007E000FECF089593E59DB98FB9779BFECF6FB982
:1007F000779BFECF0895FC0193E506C031969DB925
:1008000080818FB9779BFECF80818823B9F70895C7
:100810001FB8779BFECF80E00895FB019F01E8940D
:100820004230C4F04532B4F44A3029F497FB1EF448
:10083000909581959F4F642F77270E94AD04805D2E
:100840008A330CF0895D8193CB010097A1F716F4F0
:100850005DE251931082C9010C949D04FA01CF937B
:10086000FF93EF93223044F1253234F5C22FE89400
:10087000CA3049F497FB3EF4909580957095619548
:100880007F4F8F4F9F4F2C2F332744275527FF93A0
:10089000EF930E94C104EF91FF91605D6A330CF009
:1008A000695D6193B901CA01605070408040904019
:1008B00051F716F4CDE2C19310828F919F91CF91A1
:1008C0000C949D04FA01CF93FF93EF932230CCF068
:1008D0002532BCF4C22F2C2F332744275527FF93F2
:1008E000EF930E94C104EF91FF91605D6A330CF0B9
:1008F000695D6193B901CA016050704080409040C9
:1009000051F710828F919F91CF910C949D04FB0120
:100910009F01423074F0453264F4642F77270E94BF
:10092000AD04805D8A330CF0895D8193CB01009723
:10093000A1F71082C9010C949D04DC01FC01672F12
:1009400071917723E1F7329704C07C916D937083A6
:100950006291AE17BF07C8F30895AA1BBB1B51E1F4
:1009600007C0AA1FBB1FA617B70710F0A61BB70B1F
:10097000881F991F5A95A9F780959095BC01CD01C4
:100980000895A1E21A2EAA1BBB1BFD010DC0AA1FD0
:10099000BB1FEE1FFF1FA217B307E407F50720F0E8
:1009A000A21BB30BE40BF50B661F771F881F991F63
:1009B0001A9469F760957095809590959B01AC01AC
:0A09C000BD01CF010895F894FFCFA8
:1009CA000E1B11111111111F0E1B111111111F1FD5
:1009DA000E1B1111111F1F1F0E1B11111F1F1F1F8D
:1009EA000E1B111F1F1F1F1F0E1B1F1F1F1F1F1F45
:0809FA000E1F1F1F1F1F1F1F0E
:00000001FF
